:020000040800F2
:10000000081400204D010008E94900081B430008BE
:100010006B4700083D0A0008518D000800000000F1
:10002000000000000000000000000000C96E000891
:100030003312000800000000BD520008757A000865
:1000400067010008670100084D7C0008670100088F
:1000500067010008670100086701000867010008E0
:1000600067010008351200086701000869110008DF
:100070007111000867010008670100087911000884
:1000800067010008670100086701000867010008B0
:1000900067010008670100083B12000867010008BB
:1000A0006701000867010008670100086701000890
:1000B0006701000867010008670100086701000880
:1000C0006701000867010008670100086701000870
:1000D0006701000867010008CD44000867010008B7
:1000E00067010008670100089154000867010008D3
:1000F0006701000867010008670100086701000840
:100100006701000867010008C96500086701000869
:10011000670100086701000867010008670100081F
:10012000670100086701000867010008670100080F
:100130006701000867010008DFF80CD000F038FB09
:1001400000480047958D00080814002006488047A5
:1001500006480047FEE7FEE7FEE7FEE7FEE7FEE7AC
:10016000FEE7FEE7FEE7FEE7497C000839010008EC
:100170002DE9F05F0546002092469B4688460646DC
:10018000814640241BE0284641464746224600F06F
:1001900010F953465A46C01A914110D311461846D9
:1001A000224600F0F7F82D1A67EB01084F46224669
:1001B0000120002100F0EEF817EB00094E41201E4F
:1001C000A4F10104DFDC484631462A464346BDE837
:1001D000F09F40EA01039B0703D009E008C9121F02
:1001E00008C0042AFAD203E011F8013B00F8013BF1
:1001F000521EF9D27047D2B201E000F8012B491E1D
:10020000FBD270470022F6E710B513460A460446B3
:100210001946FFF7F0FF204610BD421C10F8011BE5
:100220000029FBD1801A704780EA010210B502F064
:100230000043400022D04A001FD0010E01EB1261A2
:10024000C0F35600C2F3560240F4000042F400022C
:10025000A0FB022000047F39140400D0401C50EAA7
:10026000124001D44000491EC2B20C0604EBD0106B
:10027000401C4008802A02D003E0002010BD20F07E
:100280000100002900DA0020184310BD30B480EAD4
:10029000010202F0004530F0004221F0004013D08E
:1002A00090B1C30DD40DC2F31601C0F31600E41AC9
:1002B00041F4000140F400027D34914201D3641CFA
:1002C00000E04900002C02DA30BC002070474FF4F7
:1002D00000000023914201D3891A034340084FEAEA
:1002E0004101F7D151B1914202D14FF0004105E0F7
:1002F00002D24FF0010101E06FF0010103EBC450A5
:10030000284430BC00F065B8002801DBC0F1004093
:10031000002901DBC1F10041814201D80120704771
:1003200000207047002801DBC0F10040002901DBFC
:10033000C1F10041814201D901207047002070477E
:1003400020F00040C10DC0F3160040F400007F29EA
:1003500001DA00207047962903DCC1F19601C840FC
:10036000704796398840704730B50B4601460020EB
:100370002022012409E021FA02F59D4205D303FA67
:1003800002F5491B04FA02F52844151EA2F10102E8
:10039000F1DC30BD202A04DB203A00FA02F1002013
:1003A00070479140C2F1200320FA03F319439040B3
:1003B0007047202A04DB203A21FA02F0002170471E
:1003C00021FA02F3D040C2F12002914008431946BD
:1003D00070470029A8BF7047401C490008BF20F0A3
:1003E0000100704710B4B0FA80FC00FA0CF050EA3B
:1003F000010404BF10BC704749B1CCF1200421FABC
:1004000004F411FA0CF118BF012121430843A3EBB6
:100410000C01CB1D4FEA00614FEA102042BF0020C3
:1004200010BC704700EBC35010440029A4BF10BC9F
:100430007047401C490008BF20F0010010BC704705
:100440002DE9FE4F804681EA0300C00F0C46009064
:1004500021F0004123F00045B8EB0200A94105D28C
:100460004046214690461C460B46024623F000407B
:10047000104347D0270DC7F30A00C3F30A51029077
:10048000401A019040286BDAC3F3130040F4801B3C
:100490000098924620B10023D2EB030A63EB0B0BCA
:1004A00001985946C0F140025046FFF773FF0646D7
:1004B0000D4650465946019A00F08CF910EB0800A1
:1004C0006141002487EA115284EAE7731A4340D05D
:1004D000009A62B3019A012A4FEA075215DC001B09
:1004E00061EB02014FF0004202EA0752CDE90042FF
:1004F000001C41F5801132462B4600F08CF903B008
:10050000BDE8F08F40462146F9E7001B61EB020190
:10051000001C41F5801300185B412018A2F500175C
:1005200047EB030140EAD570B6196D4111E06D0843
:100530004FEA360645EAC0754FEA0752001B61EBE9
:100540000201001C41F5801149084FEA30000019F2
:10055000514132462B4603B0BDE8F04F00F04CB994
:100560000098012240000023D0EB020263EBE0730D
:10057000009821464FEAE074B8EB000061EB0401FB
:10058000E9E783F000435BE781F0004158E72DE99C
:10059000FE4F81EA030404F0004421F0004100947E
:1005A0004FF0000B23F0004350EA01045ED052EA02
:1005B00003045BD0C3F30A54C1F30A552C44A4F2DC
:1005C000F3340194A0FB0254C1F3130141F48011F0
:1005D000C3F3130343F4801301FB024400FB034EF7
:1005E000840A970A44EA815447EA8357A4FB0768C0
:1005F00002958D0A05FB07854FEA932C04FB0C54EA
:100600002705029D4FEA065847EA1637B5EB08055D
:100610006EEB070C870E920E47EA811742EA8312AF
:10062000A7FB0201B6EB0B0164EB00042B0D43EAC0
:100630000C335E1844EB1C50DA465146E7FB0201CE
:10064000C5F313044FEA0B3343EA14534FEA043261
:10065000019C43EA0603A4F10C040294009CCDE93A
:1006600000B400F0D8F803B0BDE8F08F00200146D8
:10067000F9E72DE9F04D81EA030404F0004B21F085
:10068000004514464FF0000A23F0004150EA0502ED
:1006900020D054EA01021DD0C5F30A570246C5F323
:1006A0001303C1F31300C1F30A5640F4801543F459
:1006B0008013A7EB0608101BD64608F2FD3873EB33
:1006C000050002D308F1010801E092185B41B8F17E
:1006D000000F03DA00200146BDE8F08D00204FF442
:1006E0008011064684460EE0171B73EB050705D301
:1006F000121B63EB050306434CEA010C49084FEA61
:10070000300092185B4150EA0107EDD152EA030034
:1007100012D082EA040083EA0501084305D0101BC9
:10072000AB4106D20122002306E000224FF0004335
:1007300002E06FF0010253101AEB06004CEB085177
:1007400010EB0A0041EB0B01BDE8F04D00F054B88E
:10075000C1F30A52C1F3130140F2FF3341F4801197
:100760009A4202DA00200146704740F233439A422F
:10077000A2F2334202DC5242FFF71BBEFFF70ABE71
:1007800030B5041E71F1000404DB4FF00044404218
:1007900064EB0101141E73F1000405DB1C464FF0ED
:1007A0000043524263EB0403994208BF904230BDBC
:1007B000064C074D06E0E06840F0010394E80700AE
:1007C00098471034AC42F6D3FFF7BAFCFCA00008FF
:1007D0001CA10008202A06DBCB17203A41FA02F0C0
:1007E00043EAE07306E041FA02F3D040C2F120028E
:1007F000914008431946704710B5141E73F1000468
:1008000008DA401C41F1000192185B411A4301D102
:1008100020F0010010BD2DE9F04D92469B4611B12C
:10082000B1FA81F202E0B0FA80F220329046FFF78E
:10083000B1FD04460F4640EA0A0041EA0B01534667
:100840005A46084313D0114653EA010019D0C8F1A3
:1008500040025046FFF7ADFD05460E46504659464C
:100860004246FFF797FD084305D0012004E02046EB
:100870003946BDE8F08D0020054346EAE0762C437A
:1008800037430A986305E40AA0EB08000022FD0A3A
:1008900044EA47540A3002D500200146E9E7010541
:1008A00010196941DDE9084500196941BDE8F04DBD
:1008B000A2E70000B0B5044600688168490701D48A
:1008C0000020B0BD8168890704D481683F4A114087
:1008D0001031816001F0F1FF054620688068400713
:1008E000EED501F0EAFF401B0328F6D304F096F89A
:1008F000B0BD00BFB0B50168044688688A6880074B
:100900004FF000001ED412F001021BD0886800F0E6
:100910000500012814D188682C4A104002308860F4
:100920000320086001F0C9FF054620688068C00701
:1009300004BF0020B0BD01F0C0FF401B0328F4D36A
:1009400004F06CF8B0BD00BF7CB5044600200190F7
:1009500021688A68D20707D11C4E886806F12F02E9
:10096000104202D004F05AF87CBD8868304040F054
:100970000100886016480068000204D4E06901287C
:100980000ED100207CBD134813490068B0FBF1F084
:100990000130019001980028F0D001980138F8E763
:1009A00001F08BFF054620680168C907E9D181681D
:1009B000C90704D18168314041F00101816001F033
:1009C0007CFF401B0328EED3CCE700BFE8FFFF7F8E
:1009D00008270140B0000020400D0300BFB50446C9
:1009E00003F078FD144800F008FF08B100F04EFC59
:1009F00000200390CDE901400F4801A900F040FF1D
:100A000008B100F043FC0C4801F0DAF908B100F03D
:100A10003DFC094C4FF0FF31204601F071F92046B2
:100A200001F0F6F9204601F037F80546204600F0BF
:100A3000EFFF284604B0B0BD10070020FEE700001D
:100A40000278104843788270591C03441A72CAB263
:100A50004170092A05D3012250FA81F10280002257
:100A60000A72406800B10047704700BF10B50446E5
:100A7000034807F077FF0CB10248446010BD00BF87
:100A8000410A000824010020704710B50446C06ADE
:100A9000012807D1E06D012802D104F02FFA13E0FC
:100AA0000120E0650020A087B4F84200A16820661C
:100AB000206804F0F9F96FF49571013107D24268AA
:100AC000D207FAD004F04BFA18B1012010BD04F09F
:100AD000EBB8002010BD10B50446C06A012807D14C
:100AE000E06D012802D104F009FA13E00120E0656D
:100AF0000020A087B4F84200A1682066206804F0B6
:100B000034F96FF49571013107D24268D207FAD0F7
:100B100004F025FA18B1012010BD04F0C5B800207A
:100B200010BDF8B504466FF49075002601276DB925
:100B30002068016821F001010160A06D40F0100003
:100B4000A06520462665676501F04EFA20680135EC
:100B50004168C907EBD0016841F080010160F8BD30
:100B6000C06A01214165816D41F004018165016820
:100B70000A6842F080020A6001F036BAF8B5C46A29
:100B80002068616C0268062922F4006202604BD181
:100B90002046FFF7C6FFA06A0225E16965640028C8
:100BA00008BF8900080733D06FF0030000EA910006
:100BB000A087C1F38100024652B1A38FA7692668BE
:100BC000013A57F82330B360A38F0133A387F3E7CB
:100BD00011F0030211D0A38FD4E90016A7690338DE
:100BE00002EB4602944E57F8233056F822201A4062
:100BF0008A6050B101300022FAE7216860F00300FA
:100C0000002210B18A600130FBE72046FFF789FF20
:100C10002068016821F470010160016865F34E31BC
:100C20000160204600F00AF92046BDE8F84001F0D6
:100C3000DEB900BFF0B585B0C46A2068016821F450
:100C400080510160016841F080010160B4F84210F8
:100C50000A075BD06FF0030202EA9102E287E28F9B
:100C6000A4F8402001F1100222F00F02511A02688C
:100C700002F01802102A04D04AB96269602A04D02E
:100C800005E06269B2F5803F01D104F0C6F80123A6
:100C9000C1F1100289074FEA920118BF03EB9201DC
:100CA0000A463AB1E38F656B013A55F8233003F0F9
:100CB000EDFFF6E70022032902D882600131FAE74E
:100CC0002046FFF72EFF2068002201A9042A04D045
:100CD000C36841F822300132F8E7B4F8422000231B
:100CE00003329208B4F84050032B0FD8AA420DD912
:100CF00051F82350B4F84060A76B013347F82650F1
:100D0000B4F840500135A4F84050EBE7616901F0B8
:100D10006002602A06D011F4803103D1016821F00D
:100D2000010101600020206501206065204605B0BA
:100D3000BDE8F04001F0F4B970B502680446C3693B
:100D4000806A0125116865F34E31116002216164EA
:100D50000028116841F00101116008BF9B00102BB1
:100D600013D306208C4DA16908326064A06C8563A2
:100D7000884D05634FF6FC7505EA930301F048FBC7
:100D800030B3A06D40F004003CE0002B43D0980845
:100D9000014649B1A58FA669013956F825509560DD
:100DA000A58F0135A587F4E713F0030116D0A38FB3
:100DB0006568A66901EB45011F4D56F8233055F8CB
:100DC00021101940022891600ED801300021F9E766
:100DD0002068016841F4006101602BE000210328D4
:100DE00002D891600130FAE720464FF4917100F08B
:100DF000F8F82268116858B121F001001060A06D68
:100E000040F01000A065002020650120606570BDE5
:100E100041F0800010601068022120F47000106022
:100E2000106861F34E301060204600F007F808B1FA
:100E3000012070BD002070BD909D0008F0B585B008
:100E4000B0F8424054B1A208102C0CD3D0E90D13D5
:100E500022F0030200F06EF8002161E001214165FB
:100E6000002101655CE001682F4D304E0B681D408C
:100E7000C4F11003B54201D0602D05D10D6825F4F1
:100E8000700545EA03550D6013F0030318BF0123F5
:100E900003EB940425464DB1C68F476B013D57F8CF
:100EA00026608E60C68F0136C687F4E70025042CC5
:100EB00002D28D600134FAE71D4C01340FD24D6827
:100EC000ED07FAD00C6844F080040C60002401ADFA
:100ED000042C11D0CE6845F824600134F8E70A6884
:100EE00022F001020A60816D41F01001816500214C
:100EF00001650121416513E0D11801AA61B1B0F883
:100F00004030846B20CA013944F82350B0F8403097
:100F10000133A0F84030F1E700210122016542656C
:100F2000084605B0F0BD00BF7800010010000100C8
:100F3000DEFEFFFF2DE9F8439846436991460446DB
:100F40000268806C134E154DE76C0663124E03F079
:100F50006003602B3D638663BE6303D0136843F078
:100F60000103136008324B4601F052FA08B103F056
:100F7000FDFF2168E06C42464B460C3101F048FA17
:100F800008B103F0F3FF2068016841F4C05101602B
:100F9000BDE8F8837D0B0008610B0008350C0008E4
:100FA000C268EAB199B1B1F5802F19D11168006812
:100FB000C1635168816391684163D16801631169BC
:100FC000C1615169816191694161D16907E011682D
:100FD0000068C1615168816191684161D1680161B6
:100FE0007047F8B50C46054601F067FC0646671CDD
:100FF00028684068C0071CBF0020F8BD002FF7D04C
:1010000001F05BFC811B0120A14201D8002CEFD133
:10101000F8BD0122062A06D811460132B0EB011FA5
:10102000F8D8080100E00020C0B2704770B505296B
:1010300055D804461546DFE801F0030D1720293284
:1010400003F074FD4BD1A078012848D1E578204603
:101050000C213EE003F06AFD41D1A07802283ED188
:10106000E57820461C2134E0012B2BD103F05EFDF6
:1010700035D1A078032830D031E0012B26D103F000
:1010800055FD2CD1A078042827D028E0012B0FD1C2
:1010900003F04CFD23D1A078052810D01FE0012BD0
:1010A00006D103F043FD1AD1A078062807D016E038
:1010B000E6782046102100F014F886420FD1A0886F
:1010C00028800AE0E5782046202102E0E5782046E5
:1010D000102100F006F8854201D1012070BD0020EA
:1010E00070BD10B500220023914204BFD8B210BDDC
:1010F000032A1CBF845C63400132F5E70120002114
:1011000007F016BDB0B5052A88BFB0BD04460D4630
:10111000DFE802F00C151E03030320461021FFF741
:10112000E0FFE07028462146102219E020460C21FD
:10113000FFF7D7FFE070284621460C2210E020463A
:101140001C21FFF7CEFFE070284621461C2207E055
:1011500020462021FFF7C5FFE070284621462022C7
:10116000BDE8B040FFF735B84548806C01F0A4B841
:101170004348C06C01F0A0B8014801F09DB800BF21
:101180005409002010B51049836C104C01F1640221
:1011900023F0030302650268A24238BF04F57E71A2
:1011A00019441423C1646FF00701A24251FA82F17D
:1011B000B1FBF3F128BF0731012201F01F0102FA50
:1011C00001F1416510BD00BF1C0802400804024047
:1011D00010B5436807490124583003F07F0301F13B
:1011E0004002013B01EB830103F0030304FA03F324
:1011F0000EC010BD00090240F0B500F1500670CEDF
:10120000656016B1D0E91745656004688568D0E966
:101210001160012700F01C00102D07FA00F070602B
:101220000846636008BF1046A06008BF0A46E26037
:10123000F0BD7047082001F06BBA402001F068BA99
:1012400070B50F4C0546204600F0F6FD08B100F0E1
:101250001DF80C4B2020042201260021606120464D
:101260006662094EC4E9003204F1080262C200F06D
:10127000BFFE18B1BDE8704000F008B870BD00BFF7
:101280007C07002000180058D89D0008FEE70000E9
:10129000B0B59A4A536843F480235360EFF3108348
:1012A000EFF3108472B6402420C9013C20C025060B
:1012B000FAD11068C003FCD483F31088B0BD00BF1E
:1012C00070B58E4E044601F0F8FA05463068C0034A
:1012D00005D501F0F2FA401BA042F7D317E03068C1
:1012E000C1071CBF012131604CF2FA31084004D023
:1012F000084948603060012070BD306840035CBF21
:10130000002070BD01F0D9FA401BA042F5D30320A4
:1013100070BD00BFB00A0020F0B54FF6FF73002289
:101320004AF201048A4204BF98B2F0BD855C6B406A
:1013300008252E0407D084EA5306DF0708BF5E089D
:10134000013D3346F5E70132ECE7000070B5044695
:101350008C4D8548E86001F043F968484FF400413E
:10136000012201600221284640F8141F7D2140E936
:101370000412C0E90112011F01F09CF801F0F0F81D
:1013800001F02EF90026302E0CD0A019A259E968E0
:101390004368012001F0EEF810B9E8680830E86011
:1013A0000836F0E7BDE8704001F0DAB8F8B57C48DF
:1013B00001257C4E0B4C0C4F4FF400610022056060
:1013C000002070712046B84720464FF4806100220B
:1013D000B8474FF090404FF400710022B847B57104
:1013E000F8BD00BF00040048AF280008F0B589B080
:1013F000044606F0FBF9D04D002601AF102E04BFC5
:1014000009B0F0BDB919284602F01BF808B1FFF782
:101410003DFFB859A0510436F0E700BFBFB568469C
:10142000FFF7E4FF57484FF400719DE83C0040F897
:101430003C1F0021071DC0E90A11C0E90611C0E9DF
:1014400008113EC704B0BDE8B040FFF77FBF00BF42
:1014500080B54C4801210222C0E90821283014211E
:10146000FEF7D0FEBDE8804000F01AB8F0B587B0B6
:101470006C461C212046FEF7C5FE4248204900224A
:10148000C1601C2A05D011F8013BA354C160013290
:10149000F7E79DE8FE002030FEC007B0F0BD00BFBA
:1014A000B0B501F09DF8374D14484FF4004101608C
:1014B00002202C46012144F8140F7E2044E9040147
:1014C000C4E90101211F204600F0F4FF0C4844F854
:1014D000080C0024202C0CD02819E968D0E9082336
:1014E000012001F047F810B9E8680830E8600834D6
:1014F000F0E7BDE8B04001F033B800BF104000583D
:1015000000F00308F0B58DB001AC30212046FEF7A5
:1015100079FE1C4D14480021E8600130302906D0C6
:1015200010F8012CE860013062540131F6E70DF14A
:10153000040C05F13C0E9CE8DF108EE8DF1009ABCF
:1015400005F15C040FCB0FC4FFF790FF95F83C004A
:10155000687000F00DF805F14404286B034E1ECCB2
:1015600028701EC60DB0F0BD00E80308C80A0020B0
:1015700010B50448044C00F15403006E0ECBE0603B
:101580000EC410BDA4010020D80A00200448002188
:1015900001600448012141710820002107F0C8BA08
:1015A00044020020B80000208048417B71B90849FE
:1015B000097801290AD1D0E9011201319142416033
:1015C00004D3012100224173C0E90121704700BF0B
:1015D000A50100202DE9FF41284D29A4287803F01A
:1015E000C5FA0028FAD12AA4687803F0BFFA0028C7
:1015F000FAD12CA4686803F0B9FA0028FAD12D4D6D
:101600002DA4286903F0B2FA0028FAD12DA4E868C5
:1016100003F0ACFA0028FAD131A4686803F0A6FA06
:101620000028FAD132A4286803F0A0FA0028FAD1E1
:10163000344D35A4287803F099FA0028FAD1364CB5
:101640004FF461664FF03C08A868B0FBF6F101FB6F
:10165000160293B2B3FBF8F38DE80B0000200021D3
:10166000C3EB03172346A2EB870292B20392002238
:1016700007F0FEF80028E7D1BDE8FF81E001002077
:101680004D6F646552756E3A202578200A0000007F
:101690005479706553656E736F723A202578200A0D
:1016A00000000000556E69636173743A2025642060
:1016B0000A000000C40100204552524F5220256408
:1016C000200A000053656E736F72536F696C4D6F23
:1016D0006973747572653A202564200A0000000061
:1016E00053656E644D6973733A202564200A0000C7
:1016F00054696D6557616B6575703A202564200AE1
:10170000000000002402002052616E646F6D3A20D8
:1017100025640A0D00000000BBA00008E0B506F03B
:1017200065F8054801A901F08CFE08B1FFF7AEFD90
:101730009DF804008CBD00BF480A0020B0B51C4DC8
:101740001A4C6968207BC1B1C0B9FFF7E7FF3B21A4
:101750004843FF21B0FBF1F000F13D010130A160F1
:101760002070FFF737FF0120A0732073686828B14D
:101770000020BDE8B04007F095BC00B1B0BDFFF758
:10178000CDFF3B214843FF21B0FBF1F02968013038
:10179000C1EB0111207000EB8100A060FFF71AFF80
:1017A0000020A07301202073B0BD00BF24020020E0
:1017B000C401002010B50C46087010B10020606014
:1017C00010BD6168481C0528606005D80029F7D164
:1017D00002F0F8FD01200DE0082804D802F0F2FD27
:1017E0004FF4807006E00928EAD002F0EBFD0120FA
:1017F000E0720020A4F8090010BD1CB504460020CA
:101800000190E06D012804BF02201CBD0120E065AD
:101810002046FFF76FF821688B68226EDB0720D126
:1018200022F4817202322266CA68CB6823F0030375
:1018300002F00302CB608B6843F000438B608B683F
:10184000B3F1FF3F10DC019B01330193019BB3F522
:101850002E3FF4D3206E40F0100020F00201012052
:1018600009E042F0100106E0CB681A43CA60012289
:10187000216E62F301010022E26521661CBD0000B9
:10188000F8B500220092C26D012A01D10221B0E018
:101890000122C265026893685B0724D403694C681F
:1018A00043F00403022C24D1534CA3420B6801BF24
:1018B000D943564C61EA0401946A04BF2140916205
:1018C000B3F1FF3F00F39280F8494E4C0A68A342FF
:1018D0007CD04D4CA3427CD0494CA34240F0868042
:1018E00002F0A07277E0016E41F020010166012153
:1018F0007DE0414DAB4207D1144654F8285F0B6898
:101900001E466FF39F4622E00B689D0393FAA3F5F2
:10191000B5FA85F604F01F0508BFC3F3846606FA1E
:1019200005FC876ED0F824E00F26AE40B74347EAA7
:101930000C07BEEB940F87660BD99C0EF64304F0A0
:101940000F0404FA05F5144654F8287F3E40354349
:10195000256054698968294D01EA032124EA03249A
:1019600029402143B3F1FF3F51613FDCCF4A244975
:1019700015688B4208BF15F4000105F0E07411D022
:1019800020498B4208BF15F080712AD01E4E0021DD
:10199000B34208BF15F4800329D103F06BFB41F477
:1019A000800122E003F066FB41F400011160BC49B4
:1019B000BC4A0968B1FBF2F101EB41018900013138
:1019C0000091009991B100990139F9E702F44002C0
:1019D00001E002F0C0720B6823F0E0731A440A6061
:1019E00004E003F047FB41F0807111600021002208
:1019F000C2650846F8BD00BF0400008000FFFF0379
:101A0000001000B0004000B8002000B4FFFF030049
:101A100070B558B10446006E40F0020020662046C2
:101A2000FEF748FF20B1054620680CE001252FE0B5
:101A300003F037FB054608B9012020662068974A65
:101A4000816811408160416840F29F3200269143D5
:101A5000416002600F4AC1681140C160016921F014
:101A600040410161416921F007014161016A01F0D2
:101A7000F0210162816A86628C48016821F0FE7162
:101A80000160204600F01AF96666A666E6652666DD
:101A9000284670BD00023E830068006C704700005D
:101AA000F8B50446002000902CB3254655F8600F89
:101AB00028B9204600F00EF90020E0656066216834
:101AC0008868C00011D48868744A1040754A00F1D3
:101AD0008050886072480068B0FBF2F040000090CF
:101AE000009810B100980138F9E78868C00004D464
:101AF00002F094FF02E00120F8BD00208A682B6804
:101B0000C2F3800203F01003D2182A6803D042F017
:101B100010010120C0E022F4817202322A608A683A
:101B2000D2072DD1D4E90123D4E911C7CE6826F01C
:101B300018063343CB6002F04043E66C3B435A4FF8
:101B40003343266D3343666DBCF1010F43EA060E45
:101B500008BF4EF0010E0E693E4046EA0E06B2F195
:101B6000004F0E6118BFB2F1404F0BD0B2F1804F61
:101B700008D04E4E920C376862F39547376001E00B
:101B80004FF0000E04F11807D4E9032CC8CFF60378
:101B900046EA833343EA47331A43D4E90D36002E2D
:101BA00018BF42F480522CF00046BCF1FF3FC8BF82
:101BB0004FF40016324342EA4302A36A012B0BD1D1
:101BC00047B1236E43F020032366636E43F00103A5
:101BD000636601E042F48032E76A27B107F4E073FC
:101BE0001A43236B1A43CB68314E3340314E1343B3
:101BF000CB600B69334043EA0E030B61D4E90F3627
:101C00004F6927F007073B434B61BCF1000F4B695D
:101C100023F0700343EA06134B6110D0BCF5001F9C
:101C200022D1A36E0026202E0FD023FA06F707F04C
:101C30000F070F2F01D00436F5E7042E05D10B4610
:101C400053F8286F66F00F060DE0666A1C2707EB55
:101C500086066FF00F0706F01C0607FA06F61E430D
:101C60000B4653F8287F1E60C968134B19409142F8
:101C700006D1002101226166216E62F301010BE0B1
:101C8000206E40F0100020F00200206654F8640F2F
:101C900040F00101012025462960F8BDE8FFFF6FF3
:101CA000B0000020400D030002FCFF1F0827014088
:101CB0001902FEFF02FCFFDFE7FF3F8300680E49C9
:101CC000884200D070470D48016821F4007101601E
:101CD000704700BF81B000680749884209D10748B2
:101CE000016841F400710160006800F40070009028
:101CF000009801B0704700BF002401406000005808
:101D00002DE9F041804640690D46082801D1082799
:101D100005E0D8F80000C068C00734D1042700F0FF
:101D2000CCFD06466C1CD8F80000016839420AD187
:101D3000002CF8D000F0C1FD801BA84201D8002D76
:101D4000F1D102F033BFD8F8601041F40071C8F847
:101D50006010C16811F4406F2AD1D8F8201039BB47
:101D60000168090724D58168490715D4416840F204
:101D7000011221F00C014160D8F86010914301314B
:101D8000C8F8601014E0D8F8600040F02000C8F8EF
:101D900060000120BDE8F081D8F8601041F020011A
:101DA000C8F86010D8F8641041F00101C8F8641058
:101DB000D8F8181009B90C2101600020BDE8F081A5
:101DC00010B5044600688068400702D4E06D012821
:101DD00001D1022010BD03F0D5F818B10020E06554
:101DE000012010BD2168206E40F60172074B904320
:101DF0001C2200F580702066002060660A60E065A5
:101E00008A681A4004328A6010BD00BFE8FFFF7F75
:101E100010B50446C06D012804BF022010BD02F0B9
:101E200074FF30B903F03DF908B1012001E003F07F
:101E30000FF80021E16510BDB0B50446012064B182
:101E40000025E587A4F84050A587606403F000F9F9
:101E500000F0EEF8002025656565B0BDF8B503F02B
:101E6000CEF831D102F0AEFF32D00026E687A4F8DA
:101E70004060676A2568002F08BF9200A4F84220DE
:101E80002A6860F3C40201202A60C4E90D132065AA
:101E900054492868084008D0202806D0B0F5803F73
:101EA0001CD060281FD0402822D10096E06A01286B
:101EB00004D1E06D012839D00120E0656069402837
:101EC00007D103F090F82DE003F095F8A06501200C
:101ED000F8BD206B78B102F08CFF22E02046BDE80F
:101EE000F840FEF7D2BD2046BDE8F840FEF7F3BD4E
:101EF00003F07DF8EAE72868012161F3C400286057
:101F00002046A168FFF74CF803F09BF80091009978
:101F1000013900910099C9B14168C907F7D003F0B0
:101F200015F80160606908B102F0DBFD03F005F807
:101F300007D0D4E90D1382082046FEF7FBFF0020EE
:101F4000F8BD0120606500202065F8BD02F086FE26
:101F5000F8BD00BFB0B503F052F831D102F032FF46
:101F600032D00020E08702F0D8FF08BF920002F0D4
:101F700060FF1C4922650068084008D0202806D070
:101F8000B0F5803F21D0602824D0402827D1E06AD6
:101F9000012804D1E06D012806D00120E06503F09E
:101FA0005EF801D002F09DFD0220D4E90D136064BB
:101FB000B4F8420082082046FEF7BCFF0020B0BD06
:101FC00003F019F8A0650120B0BD2046BDE8B0407F
:101FD000FEF75BBD2046BDE8B040FEF77CBD03F0D8
:101FE00006F8EFE7600001007047406D70477047EA
:101FF000C8B170B50446406D20B900202065204668
:1020000000F02AF894E807006369084E0568354037
:10201000294311431943016000200121A065E065B7
:102020006164616570BD0120704700BF99FFFAFFD0
:1020300010B5044600683549884218BF10BD3448C1
:10204000016821F400310160A06C00F0E3F8E06C5D
:10205000BDE8104000F0DEB82DE9FC410446006800
:102060002A49884201D0BDE8FC8129492A4D002235
:102070004FF4006C4FF4007E802710262723086859
:10208000A84640F40030086022480262C0E90053CC
:10209000C0E90262C0E9047EC0E906C2096801F431
:1020A00000310191019900F055F908B1FFF7EEF800
:1020B000184D1021284600F09CF808B1FFF7E6F80B
:1020C000164800214FF40062EC62A5644FF40073DF
:1020D0008025282608F114070162C0E90076C0E9CE
:1020E0000211C0E90453C0E9062100F033F908B138
:1020F000FFF7CCF8094D1021284600F07AF808B116
:10210000FFF7C4F8EC62E564BDE8FC8100180058F4
:10211000500000588C08002008000240F008002001
:10212000704740B3B0B5816A022926D1016800F139
:1021300044041CCC0D6803F01C0325F00E050D6053
:10214000256825F4807525600C6824F001040C6076
:10215000012101FA03F35360D0E914235360826D27
:1021600032B1136823F480731360D0E917235360EE
:102170008162002104E0012106E0042101640121C3
:1021800000224262BDE8B04008467047B0B5816A9F
:10219000022929D10168D0E91132C46C0D6825F0FB
:1021A0000E050D600D6825F001050D60216821F414
:1021B0008071216002F01C01012202FA01F15960D4
:1021C000D0E914134B60816D31B10B6823F4807337
:1021D0000B60D0E917134B60002141628262C26B31
:1021E0002AB19047002102E0042101640121084640
:1021F000B0BD60B10068CB06026805D5C90254BF06
:1022000022F4801242F48012026000207047012004
:1022100070470000F8B54FF0010C002844D0036867
:10222000244A7A4F0446196802F5806521F00101BD
:1022300019601F490E1DB3423CBF0025C4F20205C0
:1022400038BF07F580671F441420B7FBF0F0870004
:10225000C4E911570025B3421D6038BF111D1C226F
:1022600002EA80000CFA00F008602046FEF78AFFC0
:10227000606804F14C030ECB013803280D605360F5
:1022800007D82046FEF7A4FF04F1580207CA0560EC
:102290004A602564C4E916552566C4E90C55C4E9AD
:1022A0000E556562A56200E001252846F8BD00BF15
:1022B0000404024000000240F0B5D0E91123016897
:1022C000042403F01C0316680D689C40344201D0BE
:1022D0006F0719D402249C40344201D0AF071DD4AB
:1022E00026FA03F4240731D52C072FD50C6824F0E7
:1022F0000E040C60012101FA03F353600022016413
:1023000042628162816B1DE00B689B0603D40B68FF
:1023100023F004030B605460416B13E00A689206DB
:1023200005D40A6822F00A020A60012282620022B1
:102330004262074A02F17C03994288BF02F580623B
:102340001460016B11B1BDE8F0400847F0BD00BF5B
:102350000400024000284AD0F8B5044602202A4969
:10236000A06204F10806206801F1080268CE9042DC
:10237000264A38BFA1F5806138BF02F58062142774
:102380000244B2FBF7F29200C4E9111247F6F07270
:1023900001689143016045EA0301626931431143D9
:1023A000A2691143E2691143226A11430268114391
:1023B00001602046FEF7E6FEA06804F14C03B0F58C
:1023C000804F06BF00206060606800F07F050ECB84
:1023D000013803280D6053600BD82046FEF7F8FE45
:1023E00004F15802002307CA03604A6005E0012097
:1023F00070470020C4E916002066002001212064F7
:102400006062A162F8BD00BF00040240F8FBFDBF9E
:10241000B0B50446406A012804BF0220B0BD0120C7
:102420006062A06A012812D10220A062002020640C
:102430002068056825F0010505602046FEF7DCFEF2
:102440002068626B016842B141F00E010BE0002090
:102450006062802020640120B0BD21F00401016091
:10246000016841F00A010160E16C0A68D20303D5FA
:102470000A6842F480720A60A16D19B10A6842F4D8
:1024800080720A60016841F0010101600020B0BD66
:1024900081B00090009801B005F006BC10B1016059
:1024A000002070470120704709B101207047426049
:1024B000002070472DE9F84FDFF81CA10546DAF837
:1024C0000000012804BF0220BDE8F88F002401208D
:1024D0008946CAE9000402F0AFFAC8BB28683F4B3E
:1024E0001D4A04289B4607D11968901C08431860B0
:1024F00002F0A2FA5B4627E04FF0FF301749C9F817
:10250000000068688846C4000646A96808448642F8
:102510000FD21868174600EA0800204310431860DD
:1025200002F08AFA38B96868083401363A465B46E0
:10253000EBE7002002E05B46C9F80060196840F252
:10254000FA3200249143196053F8141C53F8141CF8
:10255000CAF80040BDE8F88F0200010005FCFEFF4C
:102560001E48016841F0004101600068C043C00F8F
:10257000704700BF2DE9F843174F0446386801281B
:1025800004BF0220BDE8F8834FF0000901209846FF
:1025900016460D46C7E9000902F04AFAB8B90F49D4
:1025A000012C0AD1086840F0010008602E60BFF3DA
:1025B0006F8FC5F804800D4604E028460D4631466D
:1025C000FEF766FE02F034FA2968A1432960C7F8D5
:1025D0000090BDE8F88300BFB00A00201440005806
:1025E0000648C168B1F1FF3FC4BF002070470449ED
:1025F000016004490160C068C00F7047084000587E
:1026000023016745AB89EFCD2DE9FC4F9D4A4FF083
:10261000000890424FF0070208BF02220024002366
:102620000092019131FA03F608BFBDE8FC8F012248
:1026300002FA03F616EA010E57D0944A4FEA930CB9
:10264000B0F1904F52F82C9007D0914ADDF800A0DD
:10265000904208BF4FF0010A01E04FF0000A08F075
:102660000C0B0721424601FA0BF80AFA0BF509EAAE
:102670000807AF421BD18449D1F8805025EA0E05E6
:10268000C1F88050D1F8845025EA0E05C1F8845075
:102690000D6825EA0E050D604D6825EA0E054D60B2
:1026A0007A4951F82C5025EA080541F82C500321AD
:1026B0000768904601FA04F50F212F43076002F0E6
:1026C0001C0701FA07F76FF0030101EA5302024405
:1026D000116AB94311628168A94381604168B143BD
:1026E0004160C168A943C160019908F1040802343E
:1026F000013397E7082808D1044800210122C1745A
:10270000A0F81120C170A0F801107047100200203D
:1027100003490A68024208BF70470860FFF7EABF32
:102720000C0800582DE9F84F564A4FF000084FF0BA
:10273000010B4FF0000E90424FF0070208BF02223B
:1027400000920027514A92460A6832FA07F308BFFE
:10275000BDE8F88F0BFA07F312EA030900F08B804B
:102760004E68122E4DD80BFA06F515F0061F48D00C
:102770000322846802FA0EF5CA68AC436FEA050CBE
:1027800002FA0EF22243826032094468BA4024EA17
:1027900003031A437B004260C2688C6802EA0C02A1
:1027A0009C402243C26046F01002122A11D16FF001
:1027B000030508F01C020F2405EA57059440054460
:1027C0002E6A26EA04040E6906FA02F222432A62FD
:1027D0004E68026806F0030404FA03F302EA0C02EE
:1027E0001A430260F20046D5BB0852465AF82360ED
:1027F000B0F1904F0CD0264A009D904208BF0125B1
:1028000007E0032202FA0EF36FEA030C7346C3E7F4
:10281000002508F00C020724944005FA02F226EA8B
:102820000404194E224354464AF82320D6F8802047
:102830004C6842EA0903E50358BF22EA0903C6F8D7
:102840008030A503D6F8842042EA090358BF22EA63
:102850000903C6F88430E502326842EA090358BF2A
:1028600022EA09033360A402726842EA090358BFEE
:1028700022EA0903736008F104080EF1020E013721
:1028800062E700BF00080048000800580800014047
:10289000000400480069084018BF012070474269E1
:1028A00002EA0103914341EA034181617047182321
:1028B000002A08BF2823C150704705F023BA000042
:1028C0000348044940680A6810440860704700BF24
:1028D00000000020000C002080B5032000F058F814
:1028E00000F06CFA3F4908600F2000F007F808B1CB
:1028F000012080BD00F004F8002080BD002070475A
:102900007047000000280CD400F01F01012240098C
:1029100002FA01F1034A42F82010BFF34F8FBFF3D0
:102920006F8F704780E100E0002808D400F01F019D
:102930000122400902FA01F1014A42F820107047D1
:1029400000E100E0F0B5184B4FF0FF361C68C4F30F
:102950000224E51E84F0070438BF002506FA05F7B7
:10296000BA43042C28BF042406FA04F4A14300F05F
:102970000F04A940043C11432344044A09010C33C9
:10298000B0F1FF3FC8BF83181970F0BD00E400E04C
:1029900005494FF6FF030A681A4060F30A2203480C
:1029A00010430860704700BF0CED00E00000FA051E
:1029B00020483222016821F48041016009490968F8
:1029C0005143094AB1FBF2F14A1E43698A4203D2DC
:1029D00013F400711146F7D140690321800501EA23
:1029E000E0707047B000002040420F00114802F034
:1029F0000ABB00BF0F49022301280A6863F30202E1
:102A00000A601D490A6842F004020A600FBF30BF25
:102A100040BF20BF20BF02F013B800BF05480068C8
:102A200000F4C060704700BF0248016841F4807143
:102A3000016070470004005810B50C460D49096844
:102A400001F4007118B139B9FFF7D0FF04E019B1F2
:102A5000FFF7AEFF00B110BD0748012C016821F05F
:102A60000401016004BF30BF10BD40BF20BF20BFC4
:102A700010BD00BF1404005810ED00E0F8B5044686
:102A80008078544EC00742D0FFF7CEFFFFF715FF06
:102A90000546D6F8F403C00506D4FFF70EFF401B29
:102AA0000228F6D9032533E0606BD6F8841001F4D0
:102AB0004071814224D0D6F88410D6F8842042F4A4
:102AC0008032C6F88420D6F8842022F48032C6F8FA
:102AD000842021F4407289070146C6F884200FD56E
:102AE000FFF7EBFE054641F28837D6F884008007F1
:102AF00005D4FFF7E2FE401BB842F6D9D2E7616B7E
:102B0000D6F8840020F440700843C6F884000025FD
:102B10002068C10702D0616802F03DFA810702D542
:102B2000A16802F038FA810605D52169F26F22F416
:102B300040621143F167810502D5216A01F099FFD6
:102B4000410502D5616A01F094FF010502D5A16A31
:102B500001F08FFF410603D5606901F0A7FC2068F2
:102B6000010603D5A06901F0A1FC2068C10503D5C9
:102B7000E06901F09BFC2068C1060CD5E168F26FAA
:102B800022F440720A43B1F5807FF26703D13168C5
:102B900041F08071316001040AD5216BF26F22F09F
:102BA00040420A43F26719B9316841F080713160DF
:102BB00040040CD5E06AF16F21F040510143B0F1BF
:102BC000005FF16703D1306840F480303060284600
:102BD000F8BD00BF0C0000582DE9F843002800F0B4
:102BE000B780734F05460C46386800F007008842EE
:102BF00011D2386820F00700204302F009FA064697
:102C0000386800F00700A04205D0FFF756FE801B91
:102C10000228F5D96EE02868B9467C4F810711D5A6
:102C2000A868396821F0F001084302F0F1F906467E
:102C30003868C00305D4FFF740FE801B0228F7D98F
:102C400058E02868810615D56869D7F8001121F089
:102C5000F0010843C7F80001FFF72FFE0646D7F83A
:102C60000001800305D4FFF728FE801B0228F6D957
:102C700040E02868410616D5A869D7F8001121F070
:102C80000F0141EA1010C7F80001FFF716FE0646D3
:102C9000D7F80001C00305D4FFF70FFE801B022800
:102CA000F6D927E02868410711D5E868396821F48A
:102CB000E061084302F0ACF906463868800305D4A9
:102CC000FFF7FBFD801B0228F7D913E028680107F6
:102CD00014D52869396821F4605141EAC00002F036
:102CE00097F906463868400307D4FFF7E6FD801BD6
:102CF0000228F7D90320BDE8F8832868C0071CD153
:102D0000D9F8000000F00700A04224D9D9F800004B
:102D100020F007002043C9F80000FFF7CEFD05466C
:102D20004846D9F8000000F00700A04213D0FFF792
:102D3000C4FD02F02CF9F3D930E068684FF0B041DF
:102D400098B103282CD002282ED1096889030FD40A
:102D50000120BDE8F88300F031F8164908601648F4
:102D60000068BDE8F843FFF7C9BD09688907EFD5DA
:102D7000396821F00301084302F04AF9064641F29E
:102D800088386868396801F00C01B1EB800FB7D062
:102D9000FFF793FD811B03204145F2D9BDE8F8837D
:102DA00009688901D4D5E3E709684905D0D5DFE78B
:102DB00000400058B00000200000002080B500F066
:102DC00029F812493C22096802EA9101024A515845
:102DD000B0FBF1F080BD00BFE89D000880B5FFF7B3
:102DE000EDFF0A490A4A0968C1F3022152F821108D
:102DF000C84080BD80B5FFF7E1FF0449044A096877
:102E0000C1F3C22152F82110C84080BD080000580B
:102E1000289E000810B5364951F8042C086812F0B5
:102E20000C0205D00C2A15D100F00300012811D1A5
:102E30004FF0B0400368006800F008001B0705D49D
:102E4000B8B9D1F88800C0F303201CE0B0B9D1F8BC
:102E5000880011E02748042A1ED0082A1BD14FF011
:102E6000B0421268D2025CBF44F60000C0F2E81023
:102E700012E04FF0B0400068002004E04FF0B04096
:102E80000068C0F303101C4B002A53F8203018468A
:102E900018BF002001E00020002351F8042C02F0AC
:102EA0000C020C2A22D1086800F003021148022A01
:102EB0000CD0032A09D14FF0B0421268D2025CBF95
:102EC00044F60000C0F2E81000E018460A680B68FB
:102ED00009680124C2F3062204EB51715043C3F385
:102EE00002120132B0FBF2F0B0FBF1F010BD00BFF6
:102EF0000C0000580024F400049F00082DE9F0475E
:102F0000002800F05981DE4C8246606800F00C0811
:102F1000A06800F003099AF80000800627D49AF808
:102F20000000C00770D0B8F1080F63D0B8F10C0FE3
:102F300008BFB9F1030F5DD04FF0B041DAE90102EB
:102F40000B6823F480131A43B0F5803F0A6009D060
:102F5000B0F5041F40F096814FF0B040026842F493
:102F600000120260086840F48030086097E1B8F110
:102F7000000F1DD0B8F10C0F08BFB9F1010F17D029
:102F80004FF0B0463068DAF82010002900F03481A4
:102F900040F0010001F016FE05463068800700F1A0
:102FA0003A81FFF78AFC01F0F2FFF6D9BDE8F0871D
:102FB0004FF0B0410868800704D5DAF820000028F7
:102FC00000F0FA80DAF828000968090759BFD4F838
:102FD000901009094FF0B041096801F0F0018842F2
:102FE00040F2D48002F0C0F9002840F0E58001F002
:102FF0002CFDE4E04FF0B0400068800304D5DAF81F
:103000000400002800F0D8809AF80000800730D52E
:10301000B8F1040F1BD0B8F10C0F08BFB9F1020FC3
:1030200015D04FF0B0463068DAF81010002900F0E3
:10303000468140F4807001F0C5FD054630684005CA
:103040000FD4FFF73AFC01F0A2FFF7D9AEE74FF03B
:10305000B0400068400504D5DAF81000002800F000
:10306000AB80DAF81400216821F0FE4141EA0060EB
:1030700020609AF8000000072CD49AF8000040075E
:103080004FD4DAF82C0010B3B8F10C0F40F0C68022
:10309000012800F09180DAF83010A06800F00302F7
:1030A0008A4240F08980DAF8341000F070028A42D7
:1030B00040F08280DAF8381000F4FE42B2EB012FC3
:1030C0007AD1DAF8441000F06040884274D10020D0
:1030D000BDE8F087D4F89010DAF8180000287AD00C
:1030E000DAF81C0001F01002904200F08D8101F02E
:1030F0000302022A60D0C90700F07F81D4F8900053
:1031000020F0010001F0BBFF0546D4F890008007D5
:1031100040F17181FFF7D1FB411B03201129F4D944
:1031200044E7D4F8FC03C0050ED4FFF77DFCFFF79D
:10313000C4FB0546D4F8FC03C00505D4FFF7BDFB6E
:1031400001F025FFF6D931E7DAF80C00002800F08D
:10315000C580852801D0052805D1D4F88C0040F021
:103160000400C4F88C00FFF7A8FB01F0D3FD40F089
:103170000100C4F88C00D4F88C00800764D4FFF7F9
:103180009CFB411B0320B142F5D90FE74FF0B04142
:103190000A6842F008020A600A6822F0F00202435C
:1031A0000A60DAF82410226822F47F4242EA012100
:1031B000216002F0D9F810B10120BDE8F087FFF7D7
:1031C000FDFD9B4908609B480068FFF797FB0028BE
:1031D0007FF4ECAEA3E621F0010001F050FF0546BC
:1031E000D4F8900080077FF548AFFFF766FB411BDE
:1031F00003201129F4D9D9E620F0010001F0E2FC06
:103200000546306880077FF58AAEFFF756FB01F070
:10321000BEFEF6D9CAE601F018FC80E64FF0B046D3
:103220000228316821F08071316071D1FFF745FBD0
:1032300005463068800140F18180FFF73EFB411B6D
:1032400003200A29F5D9B1E6DAF80C0040F00400B1
:10325000852840F09980FFF730FB01F05BFD40F0DE
:103260008000C4F88C00D4F88C0000053FF509AF4D
:10327000FFF723FB411B0320B142F4D996E600BFC0
:10328000040000584FF0B0460028316821F4803126
:103290003160316821F40011316000F09E80FFF749
:1032A0000CFB05464FF0B046306880033FF5ACAEEE
:1032B000FFF703FB411B03206429F5D976E620F4D0
:1032C000807001F07FFC0546306840057FF5D1AE87
:1032D000FFF7F3FA01F05BFEF6D967E6FFF7EDFAC8
:1032E0000646D4F88C0041F2883920F08000C4F8FA
:1032F0008C00D4F88C0027460405FFF7DEFA05465B
:10330000002C55D5A91B03203C464945F1D94DE673
:10331000A068494920F00300A060A0680840A060B0
:10332000FFF7CBFA0446306880017FF5D0AEFFF797
:10333000C4FA011B03200A29F5D937E6A0683F49E2
:103340000AF130070840EECF0843104340EA03205B
:1033500028434FF0B04530433843A060286840F020
:1033600080702860A06840F08050A060FFF7A5FA48
:103370000446286880013FF5AAAEFFF79EFA011BBC
:1033800003200A29F5D911E6FFF797FA01F0C2FCEC
:1033900020F08000C4F88C00D4F88C0000057FF584
:1033A00070AEFFF78AFA411B0320B142F4D9FDE564
:1033B000D7F88C003C4641F2883620F00100C7F86F
:1033C0008C00D4F88C0080077FF55BAEFFF775FAB0
:1033D000411B0320B142F4D9E8E5FFF76EFA054638
:1033E000306880037FF510AEFFF767FA411B0320BA
:1033F0006429F5D9DAE5DAF81C00D4F8901021F048
:1034000010010843C4F89000D4F8900040F0010087
:1034100001F035FE0546D4F8900080073FF52DAE4B
:10342000FFF74BFA401B1128F5D90320BDE8F087C0
:10343000B000002000000020FFFFFEEE8C80C111D4
:103440007047F8B504468068012801D102253FE0A5
:103450000120A060E068012808D102200E46E0604B
:1034600020684068400605D400250DE004200125B1
:1034700020612BE008202061204601F0C7FF0546AF
:10348000012801D1012523E0FFF717FA074620683C
:103490004168C9070BD1FFF710FAC01B0328F6D308
:1034A00001250020E560A0600220206110E0816815
:1034B00061614268520601D4316005E00821216152
:1034C000416821F0010141600120E0600020A0601E
:1034D0002846F8BDB0B5002846D00446C06820B9DB
:1034E0000020A060204600F049F80220E060D4E906
:1034F0000001026822F004020260026822F0200249
:10350000114341F0804101601B4901614AF6742179
:10351000016101F0F1FA054620680168490009D50A
:10352000FFF7CBF9401B0328F6D301200221E0600E
:103530002161B0BD016841F00401016040684006AE
:1035400010D4FFF7BAF905462068406840070DD54A
:10355000FFF7B3F9401B0328F6D30420E0600220F4
:10356000206101E00420E0600120B0BD0120E060A6
:1035700000202061B0BD00BFBC0A591770477047DA
:10358000034850F821007047014840F82120704757
:1035900000B10040C26A0221012A0BD00163B04988
:1035A000734601F049FB9E4642F02002734601F04B
:1035B00070FA9E460846704780B504F04BFB013018
:1035C000BDE8804004F052BB10B504461F480168B6
:1035D000490604D5402181602046FFF7EDFF012018
:1035E000206310BDC26A0221012A13D001639C49E5
:1035F000734601F021FB9E4642F080020A609A4A1F
:10360000136843F480231360FF22CA600021012263
:10361000C16202630846704705F0D2BA70B50B4D1F
:1036200004462868616B01EA0006F00704D0012017
:10363000A8602046FFF7F0FFB00704D50220A8607D
:103640002046FFF79CFF0120206370BD54280040F6
:1036500010B5C36A0222012B28D00263804ACA2314
:10366000D3605323D3603423B1F5807F08BF2C236C
:103670009C58B1F5807F24F000449C506FF40853AF
:1036800008BF6FF48853146823401360FF23D3608E
:1036900000226FF00203C262B1F5807F08BF6FF0B5
:1036A0000103416B1940416301210163104610BDC4
:1036B00070B578B30446006B20B90020E062204664
:1036C00000F03CF80220754D2063CA20A861532009
:1036D000A861204601F0F4FEC8B9E8681649261D25
:1036E0000840E8604ECEA06931430843E9680843CA
:1036F000E86043EA02406860D4E909012A6822F4DC
:10370000F85210430843286001F093FA20B1FF21DA
:10371000A96170BD012070BD6069D4E90712EB6832
:1037200023F060431A4311430843E860FF20A86177
:1037300001202063002070BDBFFF8FFB10B590B04B
:10374000044601A830210430FCF75CFD20681749CD
:10375000884229D14FF480700E904FF48030019050
:1037600001A8FFF78BF908B1FDF790FD1048002282
:10377000816B41F400418163016841F48061016023
:103780000021006800F480600F900F980220FFF77E
:10379000D9F80220FFF7C8F82A2000210022FFF7FD
:1037A000D1F82A20FFF7C0F810B010BD0028004063
:1037B000580000582DE9F04701F065F94ED020631C
:1037C0000120274F01F070FC01D100201CE0386877
:1037D00000F040001AB188B90021E97010E008B982
:1037E0000020E8702878DFF87CA0D0478046687811
:1037F000D04701F027FA01F00EFC03E0E8788105DC
:1038000001F0E3F901F084FC01F0CCFB0ED101F0F2
:1038100068FC19BFB862A869D5E906010843F862D7
:1038200068680121B8654FF488500DE001F02BFC69
:1038300019BF3863A869D5E9060108437863686849
:103840000221F8654FF408503A6810433860064882
:10385000026842F40032026001F062FABDE8F087CB
:10386000182800409D54000880080058B0B50B4D42
:10387000286860F0A0002860FFF71FF80446286859
:10388000800644BF0020B0BDFFF717F8001BB0F55D
:103890007A7F84BF0320B0BDF1E700BF0C28004051
:1038A000014801F0B6B800BF10E000E0012904D0E3
:1038B00041B9CC48816880200847CA4881684FF4E4
:1038C00080700847704700BFC6488168402008479D
:1038D0002DE9F04101F00DFC02D1A068012802D1D0
:1038E0000220BDE8F08101F07CF9ED4908688846C6
:1038F00020F400400860F9B201F0CDFB2046002121
:10390000002702F01DFEAF4204D201F0D5FB0137C3
:103910000136F8E701F04FFB01F0C3F818BF0120B2
:10392000BDE8F0812DE9F04101F0E3FB02D1A06890
:10393000012802D10220BDE8F081012520461E4663
:1039400017468846A56002F027FE48F010005FFA8F
:1039500088F1942818BF00252571D14D286820F4DE
:103960000040286001F097FB2EB117F8011B01F011
:1039700092FB013EF8E72868B8F1840F40F400405C
:10398000286002D0204602F023FE01F08AF818BF1A
:103990000120BDE8F08100BF9248816820200847DF
:1039A00090488168102008477CB5044600200DF13E
:1039B000060212210223ADF806002046FFF788FF19
:1039C0009DF807609DF80650F00702D0204600F0F1
:1039D00005F9B00702D5204600F0F2F8700702D5CD
:1039E000204600F091F8300702D5204600F0F2F8AA
:1039F000F00602D52046FFF7D3FFB00602D52046D9
:103A0000FFF7CAFF700602D52046FFF75DFF3006BC
:103A100004D505F001012046FFF748FFA80702D5AD
:103A2000204600F0D1F80DF10602204602210223C3
:103A3000FFF778FF7CBD0000BCB510B30446C0683A
:103A400020B90020A060204600F046F802201E4A5F
:103A50006423E0601D48815821F4004181501C49D5
:103A60000968C1EBC101C1F34C415943019101996E
:103A700049B1019B013B019383585B04F7D40025B6
:103A800003E001251DE001252561D0F8882042F4DE
:103A90000042C0F888200F4A136843F48053136033
:103AA000026842F4006202604FF40062026131B1C8
:103AB000206802F007FD0020206101202071012014
:103AC000E0602846BCBD00BF8CFCFFFF0804005826
:103AD000B000002090080058E0B50A4800220168B4
:103AE00041F0010101600021006800F00100019037
:103AF00001983220FEF726FF3220BDE88C40FEF709
:103B000013BF00BF6400005836488168042008478E
:103B10002DE9F84301F0EDFA02D1A068012802D1A5
:103B20000220BDE8F88301F05CF85D49DFF874819C
:103B300001F09EF91E21C04720463946C047204665
:103B400000210027C047AF4204D201F0B5FA013787
:103B50000136F8E701F0EEF800F0A3FF18BF0120EE
:103B6000BDE8F8832DE9F84301F0C3FA02D1A0685B
:103B7000012802D10220BDE8F88301F032F848495B
:103B8000DFF8208101F074F91D21C047390A204671
:103B9000C047F9B22046C047204600210027C04751
:103BA000AF4204D201F088FA01370136F8E701F09C
:103BB000C1F800F076FF18BF0120BDE8F88300BF10
:103BC0000848816802200847064881684FF4007061
:103BD000084700BF034881680820084701488168FA
:103BE00001200847840100202DE9F04101F081FA0D
:103BF00002D1A068012802D10220BDE8F08100F0C6
:103C0000F0FF27490868884620F4004008602046F5
:103C10000E2102F095FC2046394602F091FC2DB1B0
:103C200016F8011B01F037FA013DF8E701F0C3F97E
:103C300000F037FF18BF0120BDE8F0812DE9F843FF
:103C400001F057FA1CBF0220BDE8F8830F46A168B7
:103C50000220012921D0E06001201D461646A06007
:103C6000204602F099FC0E49DFF8388001F000F997
:103C70000D21C047390A2046C047F9B22046C04747
:103C80002DB116F8011B01F006FA013DF8E701F02D
:103C900051F800F006FF18BF0120BDE8F88300BF0F
:103CA0009004005841650008014801F029B800BFA0
:103CB00010E000E010B501F0F2F804BF022010BDE2
:103CC0002420C4F8840020680168026822F0010200
:103CD00041F0005102600122C4F880204FF00052F0
:103CE00062660160204604F00DFA00202021C4F82D
:103CF0008000C4F8841010BD0146D0F8800001286F
:103D000004BF022070470020C1F8800009680A68DB
:103D100042F002020A60704770477047B0B501F088
:103D2000BEF804BF0220B0BD00F0CDFE22F06062FC
:103D300001F050F900F066BFB0B501F0B0F804BF73
:103D40000220B0BD00F0BFFE22F0604201F042F957
:103D500000F058BFBCB501F0A2F804BF0220BCBD02
:103D60002420C4F884002068036823F00103036062
:103D70000123C4F88030836823F440130B4383602D
:103D800059B9436891B223F0100319434160C2F35B
:103D90000741426861F31F624260016841F001011E
:103DA0000160FEF78AFD03466FF07E404FF480010C
:103DB000002200250090204604F01AFD08B10320DF
:103DC00003E02020C4F884000020C4F88050BCBD6B
:103DD000704770477047000070B50168044640F6B0
:103DE0000F05CA6908688B682A4272D08B4D00EAB9
:103DF00005068B4D1D40761975D0D60709D0C6052E
:103E000007D501260E62D4F88C6046F00106C4F88E
:103E10008C60960709D5DE0707D002260E62D4F81B
:103E20008C6046F00406C4F88C60560709D5DE079E
:103E300007D004260E62D4F88C6046F00206C4F85F
:103E40008C6016070BD500F02006354307D00825F7
:103E50000D62D4F88C5045F00805C4F88C50150557
:103E60000AD5450108D54FF400650D62D4F88C5091
:103E700045F02005C4F88C50D4F88C50002D70D03B
:103E800092060AD500F0200003F08052801804D07A
:103E9000226F12B1204690472168D4F88C008968BF
:103EA00000F0280001F04001401854D0204604F0F2
:103EB0000FFA20688168490648D500F0C8FE45D051
:103EC0005849C163FEF762F900284AD0E06FC16B20
:103ED0001FE0950607D500F0200503F08056AD19C8
:103EE00001D0216F13E0E56E012D03D1D50601D578
:103EF000C50637D4D50201D55D021FD415060BD5F2
:103F000000F0800503F400035B1905D0616F41B335
:103F10002046BDE870400847530601D5430644D407
:103F2000110201D541004ED4D1011AD5B0F1FF3FA5
:103F300017DC2046BDE87040FFF7EFBE4FF480105D
:103F400008622046BDE87040FFF743BF2046BDE849
:103F50007040FFF73FBF2046FFF73CFF0020C4F84A
:103F60008C0070BD102008628868400630D4B4F818
:103F70005E00B4F85C20B4F85E30002BF1D0101A6B
:103F80000204EED00A68284B22F490720A608A6814
:103F90001A408A602022C4F888200022E266226744
:103FA0000A6822F010020A6032E0086820F040003F
:103FB0000860002060672020C4F884002046BDE827
:103FC000704000F0A3B92046BDE87040FFF700BF85
:103FD000E06F03685D68AEB2002EC2D0B4F85C201A
:103FE0009642BED2A4F85E501B689B060DD401F029
:103FF00067F8C4F888200022E2660A6822F01002FE
:104000000A60FEF78EF8B4F85C20B4F85E00101A6F
:1040100081B22046BDE87040FFF77EBE200100045B
:10402000010000103D820008FEFFFFEF10B548B10F
:104030000446D0F8840008B900F0C6FF00F038FD4F
:10404000012801D1012010BDA06A08B100F07BFF5A
:1040500000F05CFF21F02A01816001F04EF8BDE81C
:10406000104004F0C5B8000010B5044600683E4991
:10407000884218BF10BD0948016821F001010160A4
:104080004FF090400C21FEF7BFFAA06FFEF7C2F888
:104090002620BDE81040FEF735BC00BF5C0000588C
:1040A00070B594B004460EA81421FCF7ABF868462E
:1040B00034210430FCF7A6F820682B49884251D1FE
:1040C0004FF440600490202000906846FEF7D6FC34
:1040D00008B1FDF7DBF8F4480025016941F0010162
:1040E0000161016901F0010113911399016841F027
:1040F00001010160006800F0010013900820109594
:1041000012900320119002200F900C200E90139813
:104110000EA94FF09040FEF705FB1448144E802185
:1041200010221623C0E90063C0E90225C0E9041586
:10413000C0E906550562FEF70DF908B1FDF7A6F8CE
:104140000A4D10212846FEF754F808B1FDF79EF8F5
:10415000262002210022EC62A567FEF7F3FB262051
:10416000FEF7E2FB14B070BD00800040540900204F
:104170005800024010B5D0F88830202B05D131B15D
:104180002AB1D0F88030012B03D1022408E00124A9
:1041900006E000240123C466C0F8803004F0C4FAAD
:1041A000204610BD10B504460848436833B1D4F822
:1041B0008C0018B905480121002298470349204680
:1041C0000122BDE81040FFF7D5BF00BF400100202D
:1041D0002DE9F8430446D0F88400202807D10E4684
:1041E00041B1174632B1D4F88000012805D1022030
:1041F000BDE8F8830120BDE8F8834FF000090120F5
:104200001D46C4F88C90C4F880002120C4F88400B6
:10421000FEF753FBA4F856708046A4F85470A068CB
:10422000B0F5805F01D1206908B1002701E0374671
:104230000026C4F88090B4F85600B8B1204680211A
:1042400000F0F2FDB8B926B116F8010B21688862BA
:1042500006E037F8021B206800266FF35F218162B9
:10426000B4F856000138A4F85600E4E7204640218F
:1042700000F0DAFD10B10320BDE8F8832020C4F877
:1042800084000020BDE8F883F8B50546D0F8840026
:10429000202806D131B3134622B3D5F88000012877
:1042A00001D102241FE000240120A5F85630C5F8F2
:1042B0008C40C5F880002120A5F854302965C5F848
:1042C0008400A86F88B10E4A0E4E0F4FC0E90E242D
:1042D0002A68C0E90C762832FEF79AF828B1102037
:1042E00000F060FD01242046F8BD286840210162ED
:1042F000C5F88040816841F080018160F3E700BF2C
:104300004D820008CB820008A382000801480168A2
:10431000002008470C0700207047FEE710B5254C29
:10432000A07A01282AD102F06BFE2348016831B13E
:104330000120224920750020A07208701EE020494B
:10434000227BC968052906D20023032AA37206D25C
:104350001A4803700DE0032A0ED30022A2720160F6
:1043600016490A7801320A70D1B2052924BF00210A
:1043700001600120207501E0501C2073217DA07D8B
:10438000012908BF012804D0012908BF02280BD049
:1043900010BD607D05283EBF0130607510BDFDF782
:1043A000F5F80020A08210BDFDF7F0F80020207580
:1043B00010BD00BFB80000203C020020A401002076
:1043C000C4010020B0B5094C094D4FF40061002232
:1043D0002046A84720464FF480610022A84700F0FD
:1043E00083FD00222B46BDE8B0401847000400487A
:1043F000AF28000881B00B490A6802430A600968C7
:1044000008400090009801B0704700BF81B0054996
:104410000A6802430A60096808400090009801B0E9
:10442000704700BF4800005881B01F490A68024326
:104430000A60096808400090009801B0704700BF0A
:1044400081B019490A6802430A600968084000906F
:10445000009801B0704700BF81B01348016841F077
:1044600001010160006800F001000090009801B0B7
:10447000704700BF81B00C48016841F00401016041
:10448000006800F004000090009801B0704700BF81
:1044900081B005490A6802430A6009680840009033
:1044A000009801B0704700BF4C000058064A6FF4F6
:1044B0007F2161EA101100F47F401368194041EA3E
:1044C00000101060704700BF880000587B48FFF75D
:1044D00083BC00BFB0B51248124D002104234FF039
:1044E00000440122C0E90054C0E9041307234FF43B
:1044F0008054C0E90211C0E906114165C0E9081203
:10450000C0E90A11C0E90C11C0E91031C0E90E433D
:10451000FDF7C6FA18B1BDE8B040FCF7B7BEB0BDB4
:10452000100700200024014080B50420FFF762FF3F
:104530000120FFF75FFF0F2002210022FEF702FAA1
:104540000F20BDE88040FEF7EFB90000B0B53C4950
:104550000A6842F400020A603A49FBF765FE4FF030
:104560007A510446FBF760FE3749FBF7CDFEC0BB2E
:1045700020464FF07851FBF757FE3349FBF7C4FE56
:1045800098BB20464FF07651FBF74EFE2E49FBF7C5
:10459000BBFE70BB20464FF07451FBF745FE2A4925
:1045A000FBF7B2FE48BB20464FF07251FBF73CFED2
:1045B0002549FBF7A9FE20BB20464FF07051FBF7C1
:1045C00033FE2149FBF7A0FEF8B920464FF06E51AB
:1045D000FBF72AFE1C49FBF7A5FED0B10021002005
:1045E0001AE000204FF0814116E001204FF0824197
:1045F00012E002204FF083410EE003204FF084418F
:104600000AE004204FF0854106E005204FF0864186
:1046100002E006204FF087410F4D45F255522A60C7
:1046200068602046FBF732FEFBF78AFE80B2A86086
:104630004AF6AA2028604CF6CC402860B0BD00BFE6
:10464000940000580000FA4600007A4502484AF6F5
:10465000AA210160704700BF0030004010B5174824
:104660004FF00051164C4FF496530C224166002136
:10467000C0E90043C0E908118162C0E90211C0E944
:1046800004128161FFF7D2FC08B1FCF7FFFD0B4873
:104690000021FFF751FB08B1FCF7F8FD07480021A6
:1046A000FFF73CFB08B1FCF7F1FD0448FFF702FB04
:1046B00018B1BDE81040FCF7E9BD10BDB8090020F5
:1046C0000080004080B58CB001A82821FBF79AFD3E
:1046D000174800224FF480714FF08043C0E9082151
:1046E0001F21C0E90422C0E906238160114901604D
:1046F000FEF7DEFF08B1FCF7C9FD0D48FEF772FFBB
:1047000008B1FCF7C3FD4FF4807001220B904FF00D
:10471000005007900020069002900890044801A9DC
:10472000FFF748F808B1FCF7B1FD0CB080BD00BF41
:10473000600A00200028004080B50548082101607B
:10474000FFF77AF918B1BDE88040FCF79FBD80BD46
:104750009C0A002080B503F0DDF9BDE8804003F03D
:10476000EDB84FF0FF3004F06FB9FEE7B0B58F48F9
:10477000007801281ED0A8BB92480079012831D1C9
:104780008B4C606803282ED001282BD1022060605A
:10479000022002F009FE914900F0A5FA8849036A57
:1047A0008548027885489847012830D18A48058095
:1047B00003202FE0804882490278804802F006FFFB
:1047C00002280CD001280DD182484068012802D16E
:1047D000002004F067FCBDE8B040FCF7E7BD74487A
:1047E00002210160B0BD04206060042002F0DCFD05
:1047F0007A4900F078FA7249036A6F4802786F4884
:104800009847012803D174480580052002E07248CA
:10481000058001206060B0BDF8B5644E3078012895
:1048200028D0002849D1674D2879012845D1604C0E
:104830002068012863D000283FD16068052800F077
:104840008A80032875D0012837D16420FDF720FE27
:104850000120012502F0A8FD604900F0F4FA584952
:10486000036A5548027855489847022804BF2560D6
:10487000F8BD22E04E4C206802280FD001281DD040
:10488000D8B94FF4FA70FDF703FE4B484C49027853
:104890004A4802F043FF01202060F8BD45484FF030
:1048A000F0310160444846490278444802F036FF3E
:1048B00004F0C6FB434801218171F8BD414C607989
:1048C0000128FAD14048C168456B404888474FF4F9
:1048D0007A70A847E07904280ED33E48406828B98A
:1048E0003B48807A10B9012004F0DCFBFCF75EFD48
:1048F000607A0130607200200130E071F8BD32480A
:10490000C168466B314888474FF47A70B0473248E7
:10491000018802290AD301210022C4E900218288EA
:104920001E2A28BFA971511C8180002101310180FC
:10493000F8BD6420FDF7ACFD032002F035FD2749EA
:1049400000F081FA1E49036A1B4802781B48984709
:104950000228A0D0B1E76420FDF79AFD032002F001
:1049600023FD1E4900F06FFA1549036A12480278C8
:10497000124898470228A0D1012700204FF4006177
:1049800000222760164C3770164E28712046B0471B
:1049900020464FF480610022B0474FF090404FF422
:1049A00000710022B047AF71F8BD00BFA501002023
:1049B00044020020B400002010000020E57A000826
:1049C0008C040020B8000020449F000800A1BC33E4
:1049D00028020020C401002034020020140000201E
:1049E00000040048AF280008704700200021002282
:1049F000234603F03DBF8202810D002310464FF491
:104A00007A72FBF7B5BB50F824204FF09040FDF7C9
:104A10004EBF016841F0020101607047206E40F016
:104A200010002066606E40F0010060660120704753
:104A30004FF47A70FCF744BC4FF47A70FCF740BC3A
:104A4000086820F00400086070474FF0B04001682B
:104A500041F008010160DAE90912036823F0F0036C
:104A60001A430260206820F47F4040EA0120206061
:104A700070474FF6FF72F36F62EA01021A4042EA92
:104A80000141F16770470D46C16A044602200129C1
:104A900070470A60FF22CA6000210122C1620263DE
:104AA000704700200121A0602069E1600028704764
:104AB0002420C4F884002068016821F0010101600D
:104AC000204603F041BD2420C4F884002068056816
:104AD000026822F0010202600122C4F8802082688C
:104AE0007047216920680A68C2624A6882628A68DF
:104AF0004262C96801627047016821F0804101602B
:104B0000FDF7DBBE4FF6FF704FF6FF71002200236A
:104B100001F010BF0123FEF705BF4DF808ED03F0CB
:104B200027FA6FF002005DF808EB704720884AF61C
:104B3000552188427047002000210022234603F0BF
:104B400097BE0021002223460090002003F090BE73
:104B5000002100222B460090002003F089BE022095
:104B60000121CDE90350CDE9010170470021002268
:104B700023460090002003F07BBE0020002100228D
:104B80002B46009403F074BE4FF0FF3100220096D4
:104B9000284603F0E1BF20464FF48071FEF758BD70
:104BA0004FF0904002210022FDF781BE0020C8F89E
:104BB0005C00D8F8600040F00400C8F860000320F2
:104BC000BDE8F0813060FDF778BE6B782A78AE786A
:104BD00095F824001B0243EA0242324442EA0106ED
:104BE000704701201D4616460F46A060204601F082
:104BF000D3BC016821F0100101602046B4F85C10BC
:104C0000FFF78AB82068202105600020C4F88000E2
:104C1000C4F88410B0BD0022002301F08BBE8DF8D3
:104C200007000323CA60010A000C70473046FDF7F5
:104C3000DCB9204600F06CBCCA22CA605322CA60AC
:104C40000A687047000240EA0846A8785047816821
:104C500021F040018160E06F00287047016821F079
:104C600001010160A06D40F01000A06500202065EA
:104C700001206065704721F4D0710160816821F0E6
:104C8000010181602020C4F8840070478360E38FB5
:104C90000133E387704701220262D4F88C2042F08E
:104CA0000102C4F88C207047016821F00101016005
:104CB000A06D40F01000A065002020650120606517
:104CC00010BD04210162D4F88C0040F00200C4F849
:104CD0008C00704702220262D4F88C2042F0040259
:104CE000C4F88C20704700EBC0000025256001EB64
:104CF000800070474FF0904001210022FDF7D7BDA2
:104D0000016821F00201016070470120E065204642
:104D1000FBF7D0BD0546D4F88C0041F288367047C9
:104D2000FF20F8600020626BE062114361630121A3
:104D300021637047D9F8000040F40040C9F8000032
:104D4000204601F045BC20684A46016821F4807184
:104D50000160816801EA090181602021C4F888109E
:104D6000C4F870A0E16E012970474DF808ED0268A3
:104D700022F4C04202602046FCF712F92169206843
:104D80000A68C2624A6882628A684262C9680162CD
:104D9000016841F0010101605DF808EB70470020F7
:104DA00001F0A6BFC5F88C000020C5F880002020C7
:104DB000C5F8840070472167016841F02001016057
:104DC000BDE8F88F02206065256D012D7047002237
:104DD0002B460090204603F00BBD01688268B4F8B2
:104DE0006050D4F88830222B7047B4F85E00002859
:104DF00070474DF808EDA1682046FCF7D1F820680F
:104E0000016841F018015DF808EB70472020C4F8F4
:104E10008400C4F8880000207047026822F4700201
:104E200042EA01520260704700224346009503F0B7
:104E3000DFBCA4F84220026822F0180202600122BE
:104E4000C4E90D13704700EBC00001EB8000704710
:104E5000206E40F201118843013020660020704727
:104E6000096801F00F0152F82110B0FBF1F0704712
:104E70000868894620F400400860204670470168B1
:104E800021F490710160816821F00101816020218D
:104E9000C4F8881000212167E16E0129704704469B
:104EA000D0F88000012870474DF808ED026822F420
:104EB000C04202602046FCF773F8216A20680A6845
:104EC000C2624A6882628A684262C9680162016895
:104ED00041F0010101605DF808EB7047214600F1E7
:104EE0002005284603F0B2BE4FF090404FF4007109
:104EF0007047816941F00801816110BDB4F842003A
:104F0000216E084420662046FBF798BF2068416860
:104F100021F49041416081687047A4F84000656ABF
:104F20002068002D70470870B4F85E000138A4F8BE
:104F30005E0070472046FFF735B902206064B4F880
:104F4000420000287047204603F0FEB801680222A4
:104F500041F080010160016862F3C401704701689B
:104F600041F0800101602046FBF7E6BEA06D40F0F5
:104F70000400A0652046FDF737B828464FF47A7143
:104F800003F064BE0120E0652046FBF7DDBC411B59
:104F9000032002297047F26F22EA114289B21143BD
:104FA000F1677047CA21F9605321F9603968AA6A2C
:104FB000B2F5807F7047D8F8000040F40040C8F890
:104FC0000000204601F004BB0020C4F88000204609
:104FD000FFF766B811438160204603F093B840F2B2
:104FE000FF1001F03BBFA1682046FBF7D9BFA06DC1
:104FF00040F020007047A06D40F008007047044664
:10500000406D01287047016841F48041016070479C
:105010003860FDF752BC3118EA7895F8240041EA6F
:105020008256504764232268C2EBC202C2F34C424C
:105030005A4370478DF8060049F2C140ADF80400AC
:1050400070472068016841F00101016052217047FA
:105050002068016821F001010160204670474DF889
:1050600008EDA1682046FBF79BFF606900285DF80A
:1050700008EB7047116821F0E07121437047C4F8D4
:105080009000FDF71ABC21F40851396002217964BF
:10509000B9F5807F7047204601F052BA304601F0E2
:1050A00087BC2046FBF726BCE06257F80C0C00F4E6
:1050B0004079B9F5807F70472046314601F014BA37
:1050C0000A6822F480720A608A6822F001028A600B
:1050D0008A6822F040028A6020227047012000F096
:1050E000E9BC21F48851396001217964B9F5807FE8
:1050F00070470446C06801287047016841F001010B
:10510000016020467047002194F8940001F010BE21
:105110002A6A6969324342EA006008437047000026
:105120002DE9FC411D4614460E46804615A7002079
:10513000002100223B4603F09BFB0028F7D114A777
:105140000020002100223B46CDE9004503F090FB02
:105150000028F5D14748C06A804715484146324685
:1051600006801448FBF735F8134800214570047099
:10517000082003F0DDFC20200021BDE8FC4103F005
:10518000D7BC00BF4F6E5278446F6E650A0D0000A9
:105190005273736956616C75653D25642064426D78
:1051A0002C20536E7256616C75653D25640A0D00A6
:1051B000100000208C040020B800002010B507A4C7
:1051C000FFF713FC0028FBD12A48C06A804708205B
:1051D0000021BDE8104003F0ABBC00BF4F6E527819
:1051E0004572726F720A0D0010B507A4FFF7FDFB40
:1051F0000028FBD11F48C06A804708200021BDE875
:10520000104003F095BC00BF4F6E527854696D6535
:105210006F75740A0D00000010B507A4FFF7E5FBD9
:105220000028FBD11348C06A804708200021BDE850
:10523000104003F07DBC00BF4F6E5478446F6E6524
:105240000A0D000010B507A4FFF7CFFB0028FBD123
:105250000848C06A804708200021BDE8104003F0DC
:1052600067BC00BF4F6E547854696D656F75740AE2
:105270000D000000449F0008704780B5FEF714FD44
:1052800000200121BDE88040FDF7D6BB80B5FEF7C8
:105290000BFD0448012101600120BDE88040FDF7BD
:1052A000A9BB00BF880400587047FEF7F9BA80B563
:1052B000FEF7F6FABDE8804004F0CAB87047000077
:1052C00003280BD810B5044605A00121FFF79BFB6E
:1052D00007A00221FFF797FBBDE8104000207047B0
:1052E00000000000010000000000000000000000BD
:1052F00000000000000000000100000001000000AC
:10530000022070470A20704770B586B000244FF025
:105310009040012101250594FDF776F94FF090406A
:1053200002210226FDF770F9FFF796F8FFF794F8CF
:105330000320CDE90155CDE9034001AC4FF0904089
:105340002146FDF7EFF94FF0904021460196FDF719
:10535000E9F9FFF725FCFFF7CDFC002006B070BD92
:10536000002070470120704770B53C21214A01EAB6
:1053700090001E4908581E49FFF772FD1E49B0FBF8
:10538000F1F4FDF74BFBB0F5007F09D11D4900207A
:1053900003280FD031F8102094420DD90130F7E7DF
:1053A00016490020032805D031F81020944203D973
:1053B0000130F7E7002502E0114951F82050124E64
:1053C000306820F007002843FFF7FCFB04463068F4
:1053D00000F00700A84204BF002070BDFDF76DFA81
:1053E000001B032824BF032070BDF0E7049F0008C2
:1053F00008010058E89D000840420F00C69D0008C3
:10540000CC9D0008C09D0008004000581CB500213C
:10541000019101684A68520709D44A6822F04002A3
:105420004A600169002421F0080101612DE00A6849
:1054300042F080420A600A6822F080420A6002223A
:105440000192019A013A0192019AA2B10A685200AE
:10545000F7D44A68520603D54A6822F040024A60EF
:1054600002220192019A013A0192019A1AB14A6804
:105470005207F7D4D5E701240021C4608160016997
:1054800041F002010161FDF7DBFF20461CBD000079
:105490000148FEF7C3B800BF600A00200928014692
:1054A00098BF0921CAB20A23B2FBF3F202EB8203CE
:1054B000A1EB4303591A084440EA0210C0B27047F6
:1054C0002DE9F041114F80463868400619D43868FC
:1054D0000025012440F080003860FDF7EEF9064613
:1054E0003868E14341EA9010C0070BD1FDF7E5F9B8
:1054F000801BB0F57A7FF3D903250024C8F830501B
:10550000EEE700252846BDE8F08100BF0C280040EA
:10551000B0B5114D044655F80C0C20F0800045F84C
:105520000C0C2868800605D4FEF7A0F960B10320B2
:105530002063B0BD286820F020002860FEF796F9AF
:1055400020B10320206302E00020B0BD00202968C4
:1055500041F020012960B0BD1828004001207047AB
:1055600060B1074A0021B02907D05358083183425F
:10557000F9D9501810F8040C7047FEE71F20704747
:10558000549E000880B501F08FF8043803288EBFC0
:10559000002002A151F8200080BD00BF02000000E1
:1055A00001000000000000000300000080B501F0D1
:1055B000D1F8033080BD00007CB5DD4EDD4900250B
:1055C0003446C1E902550D7101C4174801F022F9B2
:1055D000002000F095FA01F0E3FA0020002101F02C
:1055E0006DF901200021042201F0F6FBFFF78AFA91
:1055F00000F064FE0D4B20464FF0FF310022009575
:1056000003F0AAFA009506F12005094B4FF0FF318F
:105610000022284603F0A0FA204603F065FB284646
:10562000BDE87C4003F060BB755800089158000845
:1056300081580008BCB55F4CD4F89000411E072982
:1056400021D910286AD020286AD0402800F07D8017
:10565000802800F08480B0F5807F00F08B80B0F56A
:10566000007F40F0718001F01FF8042840F08E8028
:10567000514C201D03F038FBFFF791FB20680028F8
:1056800062D0406891E0DFE801F0040F5F455F5FA2
:105690005F47494C201D03F027FBFFF780FB206884
:1056A000002851D0006880E0434D05F1200003F050
:1056B0001BFB207980B9FFF772FB40F60210002136
:1056C00001F0EEFB40F6441001F0DCF840F002017E
:1056D00040F6441001F0E4FB44480DF10701FF22BD
:1056E00001F020F804F1500000F0E2FF286858B300
:1056F00085684DB3206D9DF80710012807BF94F908
:105700005D3094F95C2094F9583094F9552037486D
:10571000A847BCBD32A312E02EA310E02AA30EE0DE
:10572000254D05F1200003F0DFFA207908B9FFF7D5
:1057300036FB286840B1C06830B180471FA3022003
:105740000021012203F094F8BCBD207908B9FFF7CD
:1057500026FB194800680028F6D0006925E0FFF70D
:105760001EFB154800680028EED081690029EBD0A7
:10577000002009E0FFF713FB0F4800680028E3D082
:1057800081690029E0D001208847BCBD00F08CFF72
:105790000528D9D1084C04F1200003F0A5FAFFF741
:1057A000FEFA20680028CFD0C0680028CCD08047FF
:1057B000BCBD00BFF0050020480100204844522035
:1057C0004B4F0D0A00000000484452204F4B0D0A79
:1057D0000000000053594E43204F4B0D0A000000BB
:1057E000505245204F4B0D0A00000000F0040020ED
:1057F0002DE9F0418AB01C4615468846074600F060
:1058000066FD0020002600F055F9384601F0D8F971
:10581000012041464FF416720023CDE90266CDE91E
:105820000466CDE90666CDE908600320CDE9008075
:10583000002000F081F9002000F046F8FFF7B6FEE6
:10584000FCF726FE03F0A2F90646304603F0A8F95D
:105850000746A04203D200F0B1FFA842F5DD0025C3
:10586000A74228BF012500F032FD28460AB0BDE856
:10587000F0810000AF49C1F89000FFF7DBBE00BF28
:105880008048006810B1C06800B10047704700BF91
:105890007C48006810B1406800B10047704700BF05
:1058A00080B5FFF71BFC00200021FFF7B4F9BDE82D
:1058B000804000F051BF00F0E5BF00F0EFBF80B5C1
:1058C00000F07CFF80BD0000B0B50446FFF71AF978
:1058D0002CB16C48FFF702FB284603F0CFF9954C3A
:1058E000FFF711FC21796FF07F40E268002908BFC3
:1058F0009001BDE8B04001F093B900BFB0B50446D7
:10590000FFF700F92CB15F48FFF7E8FA284603F0EB
:10591000B5F9884CFFF7F7FB21796FF07F40E2681B
:10592000002908BF9001BDE8B04001F08BB900BF6D
:1059300048010020F00500202DE9F04F89B08A468B
:10594000064640F2012040F20121FFF764F9DFF83A
:10595000FC8A012198F8940001F0EAF9D8F80000D7
:10596000032800F28180DFE800F002050A1688F8BB
:105970002CA001E088F844A008F1140005E0022101
:10598000404640F8141F80F824A001F089F8304602
:105990005146002266E0EB4623215846FAF732FCD6
:1059A0000020514632465B4639B1177803F8010BA7
:1059B0000139FF4302F8017BF6E74FEACA070020EE
:1059C00007210022974216D0C2F3C70421EA02033E
:1059D0000132345D24FA03F321EA020403F00103E7
:1059E0005840C3B2A340C2F3C7041BF804502B4372
:1059F0000BF80430E6E7C10146460AF1010941EA25
:105A00008011C0B2B0FA80F0400941EA40100BF8B2
:105A10000A00022046F8140F304686F8249001F060
:105A20003FF8746EE64EF1200021B047F0200021CF
:105A3000B047E121642C08BF7021F320B047042156
:105A4000642C08BF1D21F220B0474FEA5A11F42000
:105A5000B047B81CC1B2F520B0475FFA89F158468B
:105A60006FF07F4200F020FF0648D8F80810041DB0
:105A7000204603F0EBF8204603F000F909B0BDE83A
:105A8000F08F00BF4801002001F09AB8D54A0128E4
:105A900002D102F1440005E0906A012818BF704766
:105AA00002F12C000170C348017002F1140000F0F3
:105AB000F7BF00BFB0B5CB4C012820600AD0032847
:105AC00003D0042815D1002000E00220BDE8B0403A
:105AD00001F04CB8012001F049F8207C617C814242
