:020000040800F2
:10000000D824002051010008F5470008BB42000831
:100010008F460008EF080008118700080000000064
:1000200000000000000000000000000071660008F1
:10003000D713000800000000E148000829720008FA
:100040006B0100086B010008D17300086B01000808
:100050006B0100086B0100086B0100086B010008D0
:100060006B0100086B0100086B0100080113000818
:100070000D1300086B0100086B010008191300083C
:100080006B0100086B0100086B0100086B010008A0
:100090006B0100086B0100086B0100086B01000890
:1000A0006B0100086B0100086B0100086B01000880
:1000B0006B0100086B0100086B0100086B01000870
:1000C0006B0100086B0100086B0100086B01000860
:1000D0006B0100086B0100085D4400086B0100081B
:1000E0006B0100086B010008F54A00086B0100086D
:1000F0006B0100086B0100086B0100086B01000830
:100100006B0100086B0100088D5C00086B010008A2
:100110006B0100086B0100086B0100086B0100080F
:100120006B0100086B0100086B0100086B010008FF
:100130006B0100086B010008DFF810D000F056FBDF
:100140000048004701910008AFF30080D824002048
:100150000648804706480047FEE7FEE7FEE7FEE761
:10016000FEE7FEE7FEE7FEE7FEE7FEE7CD730008E9
:10017000390100082DE9F05F0546002092469B46B4
:1001800088460646814640241BE0284641464746AD
:10019000224600F02BF953465A46C01A914110D31B
:1001A00011461846224600F012F92D1A67EB010895
:1001B0004F4622460120002100F009F917EB000903
:1001C0004E41201EA4F10104DFDC484631462A4698
:1001D0004346BDE8F09F00000649074A08685043BF
:1001E00043F2390210440860400870470149086032
:1001F000704700009C0000206D4EC64140EA01039C
:100200009B0703D009E008C9121F08C0042AFAD2CC
:1002100003E011F8013B00F8013B521EF9D2704790
:10022000D2B201E000F8012B491EFBD27047002238
:10023000F6E710B513460A4604461946FFF7F0FFE5
:10024000204610BD421C10F8011B0029FBD1801A6A
:10025000704780EA010210B502F00043400022D04E
:100260004A001FD0010E01EB1261C0F35600C2F329
:10027000560240F4000042F40002A0FB02200004F9
:100280007F39140400D0401C50EA124001D44000D1
:10029000491EC2B20C0604EBD010401C4008802A54
:1002A00002D003E0002010BD20F00100002900DA98
:1002B0000020184310BD30B480EA010202F000456E
:1002C00030F0004221F0004013D090B1C30DD40DA6
:1002D000C2F31601C0F31600E41A41F4000140F421
:1002E00000027D34914201D3641C00E04900002CDF
:1002F00002DA30BC002070474FF400000023914226
:1003000001D3891A034340084FEA4101F7D151B1A3
:10031000914202D14FF0004105E002D24FF00101BD
:1003200001E06FF0010103EBC450284430BC00F041
:100330006DB8420005D0C0F3C7525242914201DC71
:100340000020704700EBC1507047962300221146F1
:1003500000F065B820F00040C10DC0F3160040F475
:1003600000007F2901DA00207047962903DCC1F1E3
:100370009601C840704796398840704700F00042A7
:1003800030F000400AD0C10D01F56071C0F31600D5
:1003900042EA0151C208400711437047002001465C
:1003A000704730B50B46014600202022012409E0A9
:1003B00021FA02F59D4205D303FA02F5491B04FA1E
:1003C00002F52844151EA2F10102F1DC30BD202AFD
:1003D00004DB203A00FA02F1002070479140C2F19C
:1003E000200320FA03F3194390407047202A04DBCE
:1003F000203A21FA02F00021704721FA02F3D0409E
:10040000C2F1200291400843194670470029A8BF55
:100410007047401C490008BF20F00100704710B42D
:10042000B0FA80FC00FA0CF050EA010404BF10BCE2
:10043000704749B1CCF1200421FA04F411FA0CF10F
:1004400018BF012121430843A3EB0C01CB1D4FEA48
:1004500000614FEA102042BF002010BC704700EB43
:10046000C35010440029A4BF10BC7047401C490071
:1004700008BF20F0010010BC70472DE9FE4F8046F8
:1004800081EA0300C00F0C46009021F0004123F0E8
:100490000045B8EB0200A94105D2404621469046EE
:1004A0001C460B46024623F00040104347D0270D60
:1004B000C7F30A00C3F30A510290401A0190402882
:1004C0006BDAC3F3130040F4801B0098924620B10E
:1004D0000023D2EB030A63EB0B0B01985946C0F1E2
:1004E00040025046FFF773FF06460D4650465946F8
:1004F000019A00F08DF910EB08006141002487EAB1
:10050000115284EAE7731A4340D0009A62B3019A09
:10051000012A4FEA075215DC001B61EB02014FF084
:10052000004202EA0752CDE90042001C41F5801169
:1005300032462B4600F08DF903B0BDE8F08F4046FF
:100540002146F9E7001B61EB0201001C41F5801315
:1005500000185B412018A2F5001747EB030140EAA1
:10056000D570B6196D4111E06D084FEA360645EABF
:10057000C0754FEA0752001B61EB0201001C41F5F8
:10058000801149084FEA30000019514132462B468C
:1005900003B0BDE8F04F00F04DB9009801224000D3
:1005A0000023D0EB020263EBE073009821464FEA90
:1005B000E074B8EB000061EB0401E9E783F000436D
:1005C0005BE781F0004158E72DE9FE4F81EA030423
:1005D00004F0004421F0004100944FF0000B23F0A0
:1005E000004350EA01045ED052EA03045BD0C3F337
:1005F0000A54C1F30A552C44A4F2F3340194A0FB2D
:100600000254C1F3130141F48011C3F3130343F403
:10061000801301FB024400FB034E840A970A44EA5C
:10062000815447EA8357A4FB076802958D0A05FBAE
:1006300007854FEA932C04FB0C542705029D4FEAD3
:10064000065847EA1637B5EB08056EEB070C870E20
:10065000920E47EA811742EA8312A7FB0201B6EB2A
:100660000B0164EB00042B0D43EA0C335E1844EBE2
:100670001C50DA465146E7FB0201C5F313044FEA6A
:100680000B3343EA14534FEA0432019C43EA060356
:10069000A4F10C040294009CCDE900B400F0D9F858
:1006A00003B0BDE8F08F00200146F9E72DE9F04DD9
:1006B00081EA030404F0004B21F0004514464FF09A
:1006C000000A23F0004150EA050220D054EA01025A
:1006D0001DD0C5F30A570246C5F31303C1F3130037
:1006E000C1F30A5640F4801543F48013A7EB0608C3
:1006F000101BD64608F2FD3873EB050002D308F153
:10070000010801E092185B41B8F1000F03DA002004
:100710000146BDE8F08D00204FF480110646844666
:100720000EE0171B73EB050705D3121B63EB0503E4
:1007300006434CEA010C49084FEA300092185B412D
:1007400050EA0107EDD152EA030012D082EA040018
:1007500083EA0501084305D0101BAB4106D20122F4
:10076000002306E000224FF0004302E06FF0010298
:1007700053101AEB06004CEB085110EB0A0041EB4A
:100780000B01BDE8F04D00F055B8C1F30A52C1F3BA
:10079000130140F2FF3341F480119A4202DA002043
:1007A0000146704740F233439A42A2F2334202DCE0
:1007B0005242FFF71BBEFFF70ABE000030B5041E11
:1007C00071F1000404DB4FF00044404264EB01018E
:1007D000141E73F1000405DB1C464FF00043524227
:1007E00063EB0403994208BF904230BD064C074DAD
:1007F00006E0E06840F0010394E8070098471034F1
:10080000AC42F6D3FFF79CFCC8980008E8980008B3
:10081000202A06DBCB17203A41FA02F043EAE073C4
:1008200006E041FA02F3D040C2F1200291400843B1
:100830001946704710B5141E73F1000408DA401C05
:1008400041F1000192185B411A4301D120F00100EF
:1008500010BD2DE9F04D92469B4611B1B1FA81F2DF
:1008600002E0B0FA80F220329046FFF7B0FD044675
:100870000F4640EA0A0041EA0B0153465A46084334
:1008800013D0114653EA010019D0C8F14002504676
:10089000FFF7ACFD05460E46504659464246FFF767
:1008A00096FD084305D0012004E020463946BDE806
:1008B000F08D0020054346EAE0762C4337430A9842
:1008C0006305E40AA0EB08000022FD0A44EA47544D
:1008D0000A3002D500200146E9E7010510196941F7
:1008E000DDE9084500196941BDE8F04DA2E7FEE7E2
:1008F000F0B4104C01782046617040680E4D421CE7
:100900000A2904D12B1813F8016C092E06D029549A
:100910006260E06800280AD0F0BC0047002103F8BC
:10092000011C401EA060012020706160F1E7F0BC56
:100930007047000084000020E01A002010B5044633
:10094000034807F0E7FC002C01D00248C46010BD4A
:10095000F1080008840000202DE9FF41134E307893
:10096000012821D1002737703C46DFF8448001ADD3
:100970000FE018F804200FA101A807F0CBFE002219
:100980000DA311461046009507F03CFC0028F6D157
:10099000641CB0688442ECD3642001F0E3FB00F0F7
:1009A000EDFD034810380771BDE8FF818400002089
:1009B000E01A0020257820002573200070B5044639
:1009C000C16AB0F842000125012933D0E065002654
:1009D000A6872068016821F4C04101602046A16813
:1009E00000F0A6FB206A21680068C862206A2168BE
:1009F00040688862206A216880684862206A2168AD
:100A0000C06808622068016841F001010160206847
:100A100040F22B11491E1AD04268D207FAD0016861
:100A200041F080010160204600F018FA002800D053
:100A3000012070BDA16D012902D0C4E91650C6E79E
:100A4000E16D0844E065204600F0ACFAEEE701688D
:100A500021F00101016054F8540F40F0100044F8F7
:100A6000040965702670E3E770B50446C16AB0F802
:100A700042000125012933D0E0650026A6872068C1
:100A8000016821F4C04101602046A16800F050FBDC
:100A9000206921680068C86220692168406888620E
:100AA000206921688068486220692168C0680862FE
:100AB0002068016841F001010160206840F22B11BB
:100AC000491E1AD04268D207FAD0016841F080016D
:100AD0000160204600F0C2F9002800D0012070BD5E
:100AE000A16D012902D0C4E91650C6E7E16D0844A2
:100AF000E065204600F056FAEEE7016821F00101BA
:100B0000016054F8540F40F0100044F80409657077
:100B10002670E3E7F8B5002504460095C06A012673
:100B2000012803D1A06D012859D0A665606940282D
:100B30003FD094F8300040B12046A16800F0F8FAA8
:100B40002068016841F0180123E02068016821F065
:100B5000180141F0080101602046A16800F0E8FAA0
:100B60002068016841F00101016052200090206876
:100B70000099491E00910ED04168C907F8D001685C
:100B800041F0800101602068016821F0180141F006
:100B90001001016011E0016821F00101016054F8C9
:100BA000540F40F0100044F80409667025700120CD
:100BB000F8BD2046A16800F0BBFA606978B12069F1
:100BC00021680068C86220692168406888622069DD
:100BD00021688068486220692168C0680862022034
:100BE0006064B4F8420030B1D4E90D1382082046A5
:100BF00000F05CFA02E004F8505F66700020F8BD77
:100C00002DE9F04100260D46044601276D1E0FD147
:100C10002068016821F001010160606D40F0100062
:100C2000606584F8506084F85170204601F010F837
:100C300020684068C007E9D02068016841F0800161
:100C40000160BDE8F08110B5806A012180F8511083
:100C5000416D41F00401416501680A6842F080027B
:100C60000A6000F0F5FF10BD70B58CB0846A3022C8
:100C700033496846FFF7C2FA2068016821F4006131
:100C80000160606C062855D14FF4917529462046C5
:100C9000FFF7B6FF02206064A06A58B1E26910074E
:100CA00039D04FF6FC7000EA9200A0870020C2F312
:100CB00081030CE0E0698200F1E7A68FA16951F899
:100CC00026102668B160A18F491CA187401C98425C
:100CD000F3D393074FF0000111D0A68FA36902F060
:100CE000030253F82630666802EB46025DF82220C4
:100CF0001A4023689A6007E022689160401C04282B
:100D0000FAD304E022689160401C0428FAD32946F3
:100D10002046FFF775FF2068016821F4700101602B
:100D20002068016821F4C04141F4804101602046FF
:100D300000F038F9204600F08FFF0CB070BD0000C5
:100D4000289600082DE9FF41846A2068016821F493
:100D5000805101602068016841F080010160B4F8B1
:100D600042004FF0010501074FF0000661D0010974
:100D70008A00E287E28FA4F8402009011031081AA6
:100D800021680A6812F0180202D0102A04D00DE07F
:100D90006269602A04D009E06269B2F5803F05D13A
:100DA0000A6822F4700242EA00520A608107C0F128
:100DB000100003D005EB900100200BE08108FBE759
:100DC000E38F626B52F8232023689A60E28F521CF3
:100DD000E287401C8842F3D302E021688E60401C09
:100DE0000428FAD34FF491712046FFF709FF2168D8
:100DF00000206A46CB6842F82030401C0428F9D312
:100E000000200CE052F82010B4F84070A36B43F8B7
:100E10002710B4F84010491CA4F84010401CB4F846
:100E20004030B4F84210C91CB3EB910F01D2042832
:100E3000E8D36069C0F34111032906D0C00304D48C
:100E40002068016821F00101016084F8515084F8A4
:100E50005060204600F096FFBDE8FF8170B58CB071
:100E6000044630224C496846FFF7C8F9A06A70B3BF
:100E7000E2692068016821F4C04141F40051016039
:100E80002068016841F0010101600220012600256F
:100E90006064102A25D34FF6FC7000EA9203A26C1E
:100EA0003E48A169D062A26C3D4850630620606450
:100EB0002268A06C083201F00DF960B154F8540FAB
:100EC00040F0040044F80409667025705FE0FFE715
:100ED000E0698200CDE72068016841F400610160AB
:100EE00058E0EAB3002009E0A38FA16951F823106C
:100EF00023689960A18F491CA187401CB0EB920F19
:100F0000F2D3910711D0A38FA16951F8233002F0D9
:100F10000301626801EB420122685DF8211019406B
:100F2000916007E021688D60401C0428FAD304E03A
:100F300021688D60401C0428FAD34FF4917120463B
:100F400000F02BF90028206801680DD021F0010184
:100F50000160606D40F01000606584F8516000E051
:100F600005E084F8505012E041F0800101602068F3
:100F7000016821F4700101602068016821F4C0411A
:100F800041F480410160204600F00CF810B10120CE
:100F90000CB070BD0020FBE7B8960008690C000893
:100FA000470C00082DE9FF41B0F8421001258A08DE
:100FB000002451B110290CD302F00301511A8AB256
:100FC000D0E90D1300F072F86BE000F8504F457057
:100FD00067E00368C1F110011A68334E3240602A9D
:100FE00003D0A2F58036103E05D11A6822F47002B3
:100FF00042EA01521A608A07C1F1100103D005EBE1
:10100000910300210BE08B08FBE7C68F426B52F87F
:1010100026200668B260C28F521CC287491C9942C2
:10102000F3D302E002689460491C0429FAD30168F2
:101030004FF49172521E11D04E68F607FAD00A682A
:1010400042F080020A60066800216A46F76842F8AA
:101050002170491C0429F9D300211CE00A6822F000
:1010600001020A6050F8541F41F0100140F80419C1
:1010700045700470012004B0BDE8F08152F8216091
:10108000B0F840C0876B47F82C60B0F84060761C21
:10109000A0F84060491C9942F0D380F8515080F884
:1010A00050400020E7E700007800010070B50446DA
:1010B0001646A26C1B481D46D062A26C1A485063AB
:1010C000E36C1A4ADA62E26C5063207DC0F341108F
:1010D000032804D02068026842F0010202602268FE
:1010E00033460832A06C00F0F5FF30B1606D40F07F
:1010F00004006065204600F0ABFD216833462A46B7
:101100000C31E06C00F0E6FF30B1606D40F004009F
:101110006065204600F09CFD2068016841F4C051E4
:10112000016070BD690C0008470C0008450D0008FF
:10113000C268002A30D001B3B1F5802F2CD11168DC
:101140000268D163C168026849689163C168026836
:1011500089685163C1680268C9681163C16802681F
:101160000969D161C168026849699161C168026811
:1011700089695161C168C9690CE011680268D1616F
:10118000C168026849689161C168026889685161F3
:10119000C168C96800680161704770B50C460646B1
:1011A00001F0AFF9054607E0601C05D001F0A9F990
:1011B000401BA04206D82CB130684068C007F3D06D
:1011C000002070BD012070BD024601210807000EFD
:1011D000904204D2491C0020C9B20729F6D37047B7
:1011E00070B515460A4604464AF65521062A4AD2E3
:1011F000DFE802F0030A13212E3D0C25A278208897
:10120000012305E029460FE01C25A278208802234F
:1012100000F049F80028F5D135E02020012B0DD150
:10122000A278208803230EE0204600F02EF8E17813
:1012300088420BD027E01020012B01D00146F3E7B4
:10124000A2782088042300F02EF8E0B1012070BDC0
:101250001020012B03D1A278208805230DE0014640
:10126000204600F012F8E178884209D00BE0102007
:10127000012BF4D1A2782088062300F014F810B1D5
:10128000A0882880E2E7002070BD034610B500204A
:10129000024605E0032A01D09C5C6040521CD2B299
:1012A0008A42F7D310BD884203D19A4201D101206E
:1012B0007047002070470021012007F0FFB870B58B
:1012C0000D46062A1AD2DFE802F00306090C0C0CC0
:1012D00004460C2607E004461C2604E004462026AB
:1012E00001E0044610263146FFF7CFFFE07032469A
:1012F00021462846BDE87040FEF780BF70BD000063
:101300000148806C00F016BED40700200148C06C74
:1013100000F010BED4070020014800F00BBE000012
:101320000C02002030B5416C036821F003020E4C22
:10133000D9B214250839A34205D2B1FBF5F10B4B04
:101340001A44826406E0B1FBF5F1084B1C331A44E1
:10135000C91D8264054A8032C26401F01F02012166
:101360009140016530BD00000804024000080240C1
:101370000179084A01F07F0102EB81024265054ACA
:101380004432491E826501F0030201219140C1658A
:1013900070470000FC08024030B5D0E91345656095
:1013A000446D14B1D0E91645656090F8444004F0EE
:1013B0001C050124AC40056C6C60046863608368A4
:1013C000102B036803D099600068C26030BD9A603A
:1013D0000068C16030BD704710B504460E4800F08B
:1013E00057FB08B100F01EF80B480C4901600421BE
:1013F000416000218160202141610949C0E9034128
:101400000121416200F02AFC002803D0BDE8104011
:1014100000F008B810BD0000D407002000180058E4
:1014200068980008FEE7000002484169024A11433B
:1014300041617047004000580400010004494A69B6
:1014400022F47E7242EAC000024A104348617047AB
:101450000040005802000100054910B54C6944F0F5
:1014600001044C610260BFF36F8F436010BD000048
:101470000040005830B50B4B40225C6944F4802496
:101480005C61EFF3108472B620C920C0521E12F0C6
:10149000FF02F9D11869C043C003FBD584F310885B
:1014A00030BD00000040005870B5054601F029F835
:1014B0000446154E04E001F024F8001BA8421CD29B
:1014C0003069C003F7D43069C10701D0012131610F
:1014D0004CF2FA31014010F0000F01D0B069B06158
:1014E000880000D0316151B108484160012070BDD1
:1014F00001F007F8001BA84201D3032070BD30693A
:101500004003F5D4002070BD004000586C0200205C
:10151000AA2801D00020704701207047074A00B573
:1015200001461078FFF7F4FF012804D1507800F04D
:1015300013F8012800D0002000BD0000E01A0020B0
:10154000034610B50020024603E09C5C6040521C3C
:10155000D2B28A42F9D310BD884201D1012070472E
:1015600000207047034610B50020024603E09C5C53
:101570006040521CD2B28A42F9D310BDF0B50120AE
:10158000FFF7CCFF0125284E01282BD00220FFF7C2
:10159000C5FF012831D00820FFF7C0FF012837D050
:1015A0000420FFF7BBFF01281BD106F1100408211E
:1015B0002046FFF7C5FF217A884212D1A07860F358
:1015C0000707E07860F30F27207960F31747607909
:1015D00060F31F6715488780A1798171E179C17136
:1015E000B570F0BD104C022110342046FFF7A8FF63
:1015F000A1788842F5D13570F0BD0B4C0221103432
:101600002046FFF79DFFA1788842F5D17570F0BDA7
:10161000054C022110342046FFF792FFA178884242
:10162000F5D1F570F0BD0000D01A0020C01A0020DE
:1016300030B50446074B002003EB40129569A542E4
:1016400002D1D2698A4204D0401CC0B28028F3D3B0
:10165000962030BDB409002070B588B00546012938
:101660000BD0134801682960416869608168A960EE
:10167000C068E8600F48406816E00F480024006822
:10168000FEF7B4FD6E4606EB84010C4801F022FD26
:1016900008B1FFF7C7FE56F8240045F82400641C83
:1016A000E4B2042CEFD30020286108B070BD000024
:1016B000B4070020680000208075FF1FE0080020AC
:1016C00010B500F0DFFD0F494FF4004008610E49EE
:1016D0007E220220C1E902200C49C1E90002886093
:1016E00009490A48143100F043FD05E0002208A32F
:1016F0001146104606F086FD0028F7D1BDE81040DF
:1017000000F080BD0040005868000020B41900209F
:101710000A20466C61736845726173652045727278
:101720006F720A000649002001EB40121278002A6D
:1017300004D0401CC0B28028F6D396207047000029
:10174000B409002010B500F04BF804484168491C6A
:101750004160BDE81040002000F094B8680000200F
:1017600070B51C4D88B01A4800246E4628612021AF
:101770006846FEF75CFD0020296911F8012B325400
:10178000401CC0B229612028F6D313489DF80010F0
:1017900000EB4410641C01709DF801104170BDF80D
:1017A0000210418001994160029981600399C160F2
:1017B0000499016105994161069981610799C161A7
:1017C00006492869E4B28842D1D308B070BD000050
:1017D00000F0030868000020B4090020FFFF0308A0
:1017E000094A10B507481061084B0020116910C95B
:1017F00043F82040401CC0B211610428F6D30868A9
:10180000506010BD00E8030868000020B407002005
:10181000064901EB4010064982680A60C2684A60C6
:1018200002698A604069C86070470000B4090020FE
:10183000C40700202DE9F0410F4DFFF741FF104E86
:101840000E48306100F01EFD00244FF4007705EBD8
:10185000C400D0E900230120316900F0E1FC10B997
:10186000306908303061641CA4B2BC42EFD3BDE8DB
:10187000F04100F0C7BC0000B409002000F00308EC
:101880006800002070B586B0044614216846FEF753
:10189000CEFC21466846FFF7DFFE00F0F3FC194955
:1018A0004FF400400861194E7D2101221848C6E915
:1018B000021202230360C0E90112134C06F1140165
:1018C00000F056FC05E0002212A31146104606F077
:1018D00099FC0028F7D134616D46002405EBC40063
:1018E000D0E900230120316900F09AFC10B9306979
:1018F00008303061641CE4B2032CEFD300F082FCAA
:1019000006B070BD0040005800E8030868000020E1
:10191000B41900200A20466C6173684572617365D2
:10192000204572726F720A002DE9F04191F800C0F3
:10193000DDE90765069F82F800C04A781A708A7848
:101940000C4662F30701E27862F30F213960C0B1FF
:1019500022790846617962F3070061F30F20A179CB
:1019600061F317400746FEF7F0FC3060E179384636
:1019700061F30700217A61F30F20617A61F3174068
:1019800017E0207960F30701607960F30F21A079F7
:101990000F460128084611D0FEF7D7FC3060E179E8
:1019A000384661F30700217A61F30F20617A01293B
:1019B00009D0FEF7CAFC2860BDE8F081FEF7C5FC3F
:1019C00080F00040EAE74042FEF7BFFC80F00040B4
:1019D000F1E700004FF47A7000F0C4FBBFF34F8FC3
:1019E00005480168054A01F4E06111430160BFF355
:1019F0004F8F00BFFDE700000CED00E00400FA058A
:101A000001488068C04370470028004000B585B099
:101A100014216846FEF70BFC012002F08FFC022027
:101A200002F08CFC042002F089FC802002F086FC8D
:101A3000032001900020029049F6FF700090694653
:101A40004FF0904000F0AAFC4FF6FF7000906946FE
:101A50000C4800F0A3FC69460B4800F09FFC694667
:101A60000A4800F09BFC012002F062FC022002F018
:101A70005FFC042002F05CFC802002F059FC05B001
:101A800000BD00000004004800080048001C004899
:101A900070B504004FF0010012D000256064E587A6
:101AA000A4F84050A5872068016821F00101016079
:101AB000204600F0F7F884F8515084F85050002088
:101AC00070BD000030B490F85140012C03D0416D3E
:101AD00041F0080137E0022480F8514090F850406E
:101AE000012C1ED0012480F850400024C487A0F8A7
:101AF0004040C0E90D13416AB1B1A0F8422001682D
:101B00000A6822F0180242F010020A6001680968AF
:101B1000134A1140402919D00DDCB9B120290FD149
:101B200014E0022030BC70474FF6FF7101EA8201D9
:101B3000A0F84210E3E760290BD0B1F5803F0BD04D
:101B4000416D41F0200141650120EBE730BCFEF71B
:101B5000E1BF30BCFEF788BF30BCFEF72FBF0000EE
:101B60006000010070B5044690F85100012803D0D0
:101B7000606D40F0080034E0022584F8515094F87C
:101B8000500001281CD0012684F850600020E08716
:101B9000A4F84000C4E90D13606A98B1A4F842208B
:101BA0002068016821F01801016020680068274959
:101BB0000840402818D00CDCB0B120280ED113E02A
:101BC000022070BD4FF6FF7000EA8200A4F84200C8
:101BD000E6E7602830D0B0F5803F32D0606D40F04D
:101BE00020006065012070BDE06A012803D1A06D6E
:101BF000012816D0A6652046A168FFF799FA60690A
:101C000078B1206921680068C8622069216840684D
:101C10008862206921688068486220692168C068FC
:101C200008626564B4F84200D4E90D1382082046C6
:101C3000FFF73CFA002070BD2046BDE87040FEF77B
:101C400013BF2046BDE87040FEF7B8BE600001003B
:101C5000704790F8510070477047000070B504005D
:101C600004D094F85100002510B106E0012070BDA9
:101C700084F85050204600F02DF8D4E901100143BB
:101C8000206862690368064E33401A4311430160BD
:101C900065650120A56584F851006064002070BD71
:101CA00099FFFAFF10B504460068094988420DD132
:101CB0004FF0B040016D21F400310165A06C00F0DF
:101CC000E5F8E06CBDE8104000F0E0B810BD0000A1
:101CD000001800582DE9F843044600682549884259
:101CE00046D14FF0B040016D41F400310165006D07
:101CF000224D00F4003000901F48286027206860C3
:101D000005F108011020002680274FF400784FF4D9
:101D1000006981E8C103EE6128462E6200F076F981
:101D200008B1FFF77FFB1021144800F09BF808B1C1
:101D3000FFF778FBA564AC620F48114D14302860A2
:101D40002820C5E9010605F10C0080E8C003EE611A
:101D500028462E6200F05AF908B1FFF763FB102104
:101D6000074800F07FF808B1FFF75CFBE564AC6260
:101D7000BDE8F8830018005808000240F40800206D
:101D800054090020704710B540B190F8251000228A
:101D9000022905D00421C16380F82420012010BD50
:101DA00001680B6823F00E030B60816C0B6823F451
:101DB00080730B6001680B6823F001030B6090F8DF
:101DC0004410012301F01C0403FA04F1046C616067
:101DD000D0E913144C60416D31B10C6824F4807467
:101DE0000C60D0E916144C6080F8253080F824206F
:101DF000002010BD10B590F825100024022903D052
:101E00000421C16301242BE001680A6822F00E025C
:101E10000A6001680A6822F001020A60816C0A689F
:101E200022F480720A6090F84410012301F01C0132
:101E300003FA01F2016C4A60D0E913124A60416D65
:101E400031B10A6822F480720A60D0E916124A6041
:101E500080F82530002180F82410816B01B188477B
:101E6000204610BD10B5002340B102681068CC06B2
:101E700008D5C90204D540F4801003E0012010BD4C
:101E800020F480101060184610BD000070B50400EA
:101E900011D02068016821F001010160224A206808
:101EA0001421904209D2214A0244B2FBF1F1890087
:101EB00061641F490AE0012070BD1B4A524202447E
:101EC000B2FBF1F1890061641749083900252164EA
:101ED000056094F8440000F01C0101208840216C4A
:101EE00048602046FFF71EFAA06C0560D4E9130194
:101EF00041606068401E032807D82046FFF738FA83
:101F0000606D0560D4E9160141606565A565E5650C
:101F1000E56225636563A563E56384F8255084F86D
:101F20002450002070BD000008040240F8FFFDBFEF
:101F300000000240F0B4016C0B6801680A6890F878
:101F40004440042604F01C0406FA04F51D4212D095
:101F5000550710D50A68920603D40A6822F00402D5
:101F60000A6090F8441001F01C0106FA01F5016CBA
:101F70004D60016B26E0022505FA04F71F424FF081
:101F8000000C4FF0010621D097071FD50A68920672
:101F900005D40A6822F00A020A6080F82560194A0E
:101FA0000168914290F8441001F01C0105FA01F516
:101FB00002D915490D6002E0124980394D6080F860
:101FC00024C0C16A00291AD0F0BC08470825A540E2
:101FD0001D4214D0120712D50A6822F00E020A60C0
:101FE00090F84410026C01F01C0106FA01F15160F6
:101FF000C66380F8256080F824C0416BE2E7F0BC3E
:1020000070470000800002400404024070B50400E4
:102010000CD02D4A20681421904209D22B4A024448
:10202000B2FBF1F18900616429490AE0012070BD29
:10203000254A52420244B2FBF1F18900616422490F
:1020400008392164022184F82510016847F6F072EE
:1020500091430160D4E902100143D4E90402104322
:102060000143A0690143E0690143206A01432068FC
:102070000268114301602046FFF754F9A06800256B
:10208000B0F5804F00D165602079A16C00F07F0031
:102090000860D4E9130141606068401E032808D835
:1020A0002046FFF765F9606D0560D4E916014160CF
:1020B00002E06565A565E565E563012084F8250016
:1020C00084F82450002070BD08040240F8FFFDBFD2
:1020D0000000024070B5044690F824000025012855
:1020E0000ED0012084F8240094F825600020012EF1
:1020F00008D08021E16384F824000125284670BDC2
:10210000022070BD022684F82560E063206806681E
:1021100026F0010606602046FFF73EF9206B0028F6
:102120002068016802D041F00E0106E021F00401B0
:1021300001602068016841F00A010160A06C01683B
:10214000C90303D5016841F480710160606D18B165
:10215000016841F4807101602068016841F001016B
:102160000160CBE711B4009818BC05F072B900000B
:102170002DE9F047214F05460E46387801280CD04E
:10218000012038704FF000094FF47A7A5046C7F8B2
:102190000490FFF789F918B12CE00220BDE8F08720
:1021A0002968DFF85C80042904D04FF0FF313160EA
:1021B0006C680FE0FFF738F95046FFF775F915E046
:1021C0002046FFF73BF95046FFF76EF908B134603F
:1021D00005E0641CD5E901121144A142F0D8D8F8F9
:1021E000142040F2FA339A43C8F81420D8F800209B
:1021F000D8F8001087F80090D0E700006C020020AB
:1022000000400058054900204A6942F000424A61F6
:102210004969002900DB0120704700000040005898
:102220002DE9F047154E05461446307898468A4603
:1022300001280AD00120307000274FF47A794846EF
:102240007760FFF731F918B10FE00220BDE8F087A1
:10225000012D0CD021465046FFF70CF94846FFF7F8
:1022600023F907494A69AA434A613770EEE72246D3
:1022700043465046FFF7F0F8F0E700006C020020FC
:1022800000400058064900204A69002A07DA054A3A
:102290008A60054A8A604969002900DA012070478E
:1022A0000040005823016745AB89EFCD2DE9F04F81
:1022B0000022DFF8D8904FF0070A4FF0010B60E0E2
:1022C0000BFA02F717EA01035AD022F003054D4436
:1022D000AC6896074FEA167C0AFA0CF606EA040880
:1022E000B0F1904F04D02A4CA04203D1012407E062
:1022F000002405E0274CA04201D1022400E007247D
:1023000004FA0CF4444520D1DFF88CC0DCF800401E
:102310009C43CCF800400CF1040CDCF800409C43DA
:10232000CCF80040DFF870C0ACF1800CDCF8004065
:102330009C43CCF800400CF1040CDCF800409C43BA
:10234000CCF80040AB68B343AB600468550003238E
:10235000AB401C430460D40800EB8404256A560794
:102360004FEAD66C0F2606FA0CF6B5432562846850
:102370009C4384604468BC434460C4689C43C4601C
:10238000521C31FA02F39BD1BDE8F08F00000140EE
:102390000004004800080048800800582DE9F04F6C
:1023A000DFF844A1DFF840E100224FF003090AF111
:1023B000040BAEF1800E8FE0012595402B407DD0BF
:1023C0004C68012C05D0022C03D0112C01D0122C0A
:1023D00010D18668540009FA04F7BE43CF68A740BD
:1023E000374387604468AC430D79C5F300159540C9
:1023F00025434560C468570009FA07F58E68AC4369
:10240000BE402643C6604C68022C01D0122C14D169
:10241000D40800EB840CDCF820605407E40E4FF085
:102420000F0808FA04F826EA0806D1F8108008FA1E
:1024300004F848EA0608CCF820800468AC430D791B
:1024400005F00305BD40254305604C68E40042D516
:10245000264C22F003052E19B7689407250F072490
:10246000AC40A743B0F1904F04D0214CA04203D11F
:10247000012407E0002405E01E4CA04201D1022403
:1024800000E00724AC403C43B460DAF80040554615
:102490004E689C43F60300D51C432C60DBF80040DB
:1024A0005D464E689C43B60300D51C432C60DEF8A5
:1024B000004075464E689C43F60200E00BE000D5F4
:1024C0001C432C60084D7C3D2C684E689C43B60232
:1024D00000D51C432C60521C0B6833FA02F47FF4C5
:1024E0006BAFBDE8F08F000080080058000001408D
:1024F00000040048000800480AB181617047816209
:10250000704704F0DBBF0000024881680278114484
:10251000816070471C00002010B50024032000F0EB
:1025200053F800F0ABFA064908600F2000F00AF8F3
:1025300008B1012401E000F007F8204610BD0000BA
:102540001800002000207047704700280DDB00F0C5
:102550001F02012191404009800000F1E020C0F8F5
:102560008011BFF34F8FBFF36F8F7047002809DBD7
:1025700000F01F02012191404009800000F1E0209D
:10258000C0F8001170470000F0B40E4B1B68C3F395
:102590000223C3F10704042C00D904241D1D072DB8
:1025A00001D2002300E0DB1E012606FA04F56D1EB1
:1025B0000D409D409E40761E164045EA0601F0BC47
:1025C00006F0BCB80CED00E0064A00F00701106808
:1025D0004FF6FF03184040EA01200349084310600A
:1025E000704700000CED00E00000FA050D4801689E
:1025F00021F4804101600C483221006848430B49B6
:10260000B0FBF1F00749143100E0401E0A68920562
:1026100001D50028F9D10868800501D5032070474D
:1026200000207047000400581800002040420F00AE
:102630000248016841F4804101607047000400587D
:102640000B490A6822F00702921C0A6009490A68CD
:1026500042F004020A60012807D040BF20BF20BF1B
:10266000086820F004000860704730BFF8E70000F9
:102670000004005810ED00E00248006800F4C0605B
:1026800070470000000400580248016841F480715E
:1026900001607047000400580F4A10B50028106808
:1026A0000C464FEA80500ED0002801DBFFF7C0FF38
:1026B0000A48016821F004010160012C0AD040BFE2
:1026C00020BF20BF10BD0028F2DAFFF78FFF0028DF
:1026D000F8D1EDE730BF10BD1404005810ED00E054
:1026E0002DE9F0470446002600683546B046C00391
:1026F0004FF0B04740D5FFF7C7FFFFF702FF814615
:10270000DFF878A105E0FFF7FCFEA0EB0900022846
:102710002AD8DAF80000C005F5D535BBD7F8900007
:10272000616B00F44070884211D0D7F8900020F41B
:102730004076D7F8900040F48030C7F89000D7F882
:10274000900020F48030C7F89000C7F89060B00780
:102750005FD5FFF7D6FE064641F2883906E0FFF75F
:10276000D0FE811B494501D9032504E001F02FFE6D
:102770000128F4D1F5B3A8462078C00702D06068DC
:1027800001F061FE2078800702D5A06801F05BFEB1
:102790002078800607D52069D7F8881021F4406199
:1027A0000143C7F888102088800502D5206A01F00F
:1027B0003FFE2088400502D5606A01F039FE20887E
:1027C000000502D5A06A01F033FE2078400602D54C
:1027D000606901F01EFE2078000602D5A06901F0B4
:1027E00018FE2088C00502D5E06901F012FE2078AD
:1027F000C00600E00DE019D5E068D7F8881021F494
:1028000040710143C7F88810E068B0F5807F09D0B7
:102810000CE0606BD7F8901021F440710143C7F8C9
:102820009010A9E7F86840F08070F86020880004F4
:102830000DD5206BD7F8881021F040410143C7F82F
:102840008810206B18B9F86840F08070F860208814
:1028500040040FD5E06AD7F8881021F040510143B9
:10286000C7F88810E06AB0F1005F03D1F86840F45F
:102870008030F8604046BDE8F08700000004005852
:102880002DE9F0410D46040078D0DFF8E481D8F856
:10289000000000F00700A84215D2D8F80000464614
:1028A00020F007002843C8F80000FFF72AFE07467B
:1028B00004E0FFF726FEC01B022878D8306800F03D
:1028C0000700A842F5D120784FF0B046800713D515
:1028D000A068B16821F0F0010143B160FFF711FE7B
:1028E000074604E0FFF70DFEC01B02285FD8B06862
:1028F000C0F300400028F5D02078800616D5606926
:10290000D6F8081121F0F0010143C6F80811FFF7CD
:10291000F8FD074604E0FFF7F4FDC01B022846D887
:10292000D6F80801C0F340400028F4D020784006D3
:1029300017D5A069D6F8081121F00F0141EA10104F
:10294000C6F80801FFF7DDFD074604E0FFF7D9FDF3
:10295000C01B02287AD8D6F80801C0F3004000282E
:10296000F4D02078400714D5E068B16821F4E06124
:102970000143B160FFF7C5FD074605E043E0FFF7FF
:10298000C0FDC01B022861D8B068C0F340400028D9
:10299000F5D02078000715D52069B16821F4605181
:1029A00041EAC001B160FFF7ACFD074605E04DE02C
:1029B000FFF7A7FDC01B022848D8B068C0F38040CD
:1029C0000028F5D02078C0072BD06068022805D0F9
:1029D000032806D0A0B101F0EBFC04E001F0E2FC1A
:1029E00001E001F010FD70B16068B16821F00301F1
:1029F0000143B160FFF785FD064641F288370AE0E2
:102A000001F0ECFCEFE70120BDE8F081FFF779FD74
:102A1000801BB8421AD801F0BFFC6168B0EB810F8F
:102A2000F4D1D8F80000464600F00700A84214D9B7
:102A3000306820F0070028433060FFF762FD04464D
:102A400006E0FFF75EFD001B022801D90320DBE74B
:102A5000306800F00700A842F3D100F00FF80549F4
:102A6000086005480068BDE8F041FFF76BBD000055
:102A700000400058180000202000002010B500F091
:102A80002FF84FF0B0418968044A01F0F00102EBE1
:102A900091010968B0FBF1F010BD000054950008E9
:102AA00010B5FFF7EBFF4FF0B0418968072202EA4B
:102AB0001121024A12F82110C84010BDD495000817
:102AC00010B5FFF7DBFF4FF0B0418968072202EA3B
:102AD000D121024A12F82110C84010BDD495000837
:102AE0002DE9F0470024254601F056FC064601F08A
:102AF00084FCDFF8C8804FF0B0474FEA480946B180
:102B00000C2E04D0042E30D0082E2AD030E001281C
:102B10002ED138682A49C0F3C00000283868C0F3B5
:102B2000C00004D088B1386800F0F00011E018B19E
:102B3000386800F0F00003E0D7F8940000F470600B
:102B400000F4706001EB901007E0D7F8940000F4F7
:102B5000706000F0F00001EB9000056846B92C466B
:102B600006E03868C0F3005008B1444600E04C4627
:102B700001F012FC0C281DD101F03FFC022805D009
:102B8000032806D13868C0F3005008B1454600E07C
:102B90004D46F868F968C0F30620684301F07002FA
:102BA000012101EB1212B0FBF2F2F86801EB507058
:102BB000B2FBF0F42046BDE8F08700000024F400EA
:102BC000949500082DE9F041040077D001F0E4FB72
:102BD000064601F012FC074620784FF0B04580060B
:102BE0007ED576B10C2E01D1012F0AD0206A0028A3
:102BF000286864D040F001002860FFF782FC80461E
:102C00004AE001F0EBFB10B1206A0028DDD0A16A98
:102C10002868000703D5286800F0F00004E0D5F824
:102C20009400F02202EA1010814212D9084601F005
:102C3000FBFE002842D1286840F008002860286880
:102C4000A16A20F0F00008432860606A01F0CCFB24
:102C500011E0286840F0080028602868A16A20F088
:102C6000F00008432860606A01F0BEFBA06A01F032
:102C7000DBFE0028DED1FFF701FFF7490860F748C7
:102C80000068FFF75FFC00287ED129E0FFF739FCE0
:102C9000A0EB0800022878D801F0A0FB0028F5D0AE
:102CA000286840F0080028602868A16A20F0F00039
:102CB00008432860606A01F097FB11E0ABE020F068
:102CC00001002860FFF71DFC804605E0FFF719FCB6
:102CD000A0EB08000228DED801F080FB0028F5D127
:102CE0002078C00748D0082E1ED00C2E01D1032F0B
:102CF0001AD02868A16820F4801008432860606812
:102D0000B0F5803F17D0B0F5041F286817D020F425
:102D100080302860286820F4001028606068E8B1DE
:102D2000FFF7EFFB804614E001F03CFB20B3606846
:102D3000002870D020E0286840F48030EDE740F4AF
:102D400000102860F7E7FFF7DCFBA0EB0800642821
:102D5000A1D801F027FB0028F5D00DE0FFF7D1FB4B
:102D6000804605E0FFF7CDFBA0EB0800642892D871
:102D700001F018FB0028F5D12078800737D5042E04
:102D800011D00C2E04D101E080E1D3E0022F0AD053
:102D90002069002828681AD040F480702860FFF766
:102DA000B0FB07460BE001F003FB60B1206900288F
:102DB000BFD008E0FFF7A5FBC01B02288BD801F0AD
:102DC000F7FA0028F6D0606901F0F8FA0FE020F475
:102DD00080702860FFF795FB074604E0FFF791FB42
:102DE000C01B0228B4D801F0E3FA0028F6D12078FD
:102DF000000758D5A0690028D5F8940040D0E169B3
:102E000000F01002914225D081074FEAC07003D52F
:102E100000288ED001E058E1A0B1D5F8940020F050
:102E20000100C5F89400FFF76CFB074604E0FFF7CC
:102E300068FBC01B11287DD8D5F89400C0F3400072
:102E40000028F4D1D5F89400E16920F0100008437F
:102E5000C5F89400D5F8940040F00100C5F894003E
:102E6000FFF74FFB074604E0FFF74BFBC01B1128A1
:102E700060D8D5F89400C0F340000028F4D012E0E8
:102E800020F00100C5F89400FFF73BFB074604E083
:102E9000FFF737FBC01B11284CD8D5F89400C0F3BE
:102EA00040000028F4D1207840075FD5DFF8B081DA
:102EB000D8F80000C0F3002080B9FFF7E5FBFFF76A
:102EC00020FB074604E0FFF71CFBC01B022831D89B
:102ED000D8F80000C0F300200028F4D0E06841F2E8
:102EE000883840B3852801D0052805D1D5F8900051
:102EF00040F00400C5F89000FFF703FB0746D5F843
:102F0000900040F00100C5F8900004E0FFF7F9FAE6
:102F1000C11B41450ED8D5F89000C0F340000028F1
:102F2000F4D0E06881280ED085280CD0FFF7E9FAAC
:102F3000074601E08EE024E0D5F8900020F0800004
:102F4000C5F8900018E0FFF7DCFA0746D5F89000C6
:102F500040F08000C5F8900004E0FFF7D2FAC11BF2
:102F6000414577D8D5F890000005F6D531E0FFF758
:102F7000C8FAC11B41456DD8D5F890000005F6D4BC
:102F800027E0FFF7BEFA0746D5F8900020F0800052
:102F9000C5F8900004E0FFF7B4FAC11B414574D8AE
:102FA000D5F890000005F6D4FFF7ABFA0746D5F840
:102FB000900020F00100C5F8900004E0FFF7A1FAAE
:102FC000C11B414561D8D5F89000C0F340000028EE
:102FD000F4D1E06AE8B30C2E5FD00228286820F014
:102FE000807028600BD0E86820F00300E860E86893
:102FF0001C490840E860FFF784FA044648E0FFF700
:1030000080FA064604E0FFF77CFA801B0A283CD8C9
:1030100001F0F9F90028F6D1D4E90C010843D4E90C
:103020000E2141EA02210843216C0843616C0843E8
:10303000E9680D4A11400843E860286840F0807054
:103040002860E86840F08050E860FFF75AFA0446CC
:1030500011E03CE019E000001800002020000020F2
:1030600000040058FFFFFEEE8C80C111FFF749FA03
:10307000001B0A2809D801F0C6F90028F6D026E07E
:10308000FFF73FFA001B0A2802D90320BDE8F081B0
:1030900001F0B9F90028F3D119E00128F6D0E86869
:1030A000226B00F0030191420FD1626B00F07001BE
:1030B00091420AD1A26B00F4FE41B1EB022F04D180
:1030C000616C00F06040884201D00120DEE7002002
:1030D000DCE770472DE9F05F0446007A00258B4657
:1030E00001280DD001262672607AA946012809D050
:1030F0000420E060012584F808902846BDE8F09F90
:103100000220FBE74FF0020A84F809A0206840681B
:103110004FF00808C043400607D4C4F80C8020468E
:1031200001F0A4FC05460128E8D0FFF7EAF90746BC
:103130000BE0FFF7E6F9C01B022806D96672C4F857
:103140000CA084F808900120D8E720684068C043AC
:10315000C007EED12068816821614268D2435206DF
:1031600006D4C4F80C80416821F00101416001E0FF
:10317000CBF800106672BEE72DE9F04704004FD08F
:10318000607A4FF0000920B984F80890204600F0DA
:1031900059F8022666722068016821F00401016076
:1031A000D4E900010268254B1A4042F080421143E5
:1031B000016021682248086121684AF6742008618C
:1031C0002068016821F080410160FFF79AF9054607
:1031D0004FF0010807E0FFF794F9401B022802D9DD
:1031E00084F809801BE0206800684000F3D4206860
:1031F000016841F004010160206840684FF0040755
:10320000C043400601D467720AE0FFF77AF9054629
:1032100009E0FFF776F9401B022804D96772E660DF
:103220000120BDE8F08720684068C0434007F0D522
:1032300084F80980C4F80C900020F2E7DFFFFFBF9C
:10324000BC0A591770477047014850F82100704771
:1032500000B10040014840F82120704700B1004013
:1032600010B590F82C10012916D0012300F82C3F3E
:10327000022141700949CA220A6053220A60074AA2
:103280000C3A146844F020041460FF220A60437072
:1032900000210170084610BD022010BD2428004006
:1032A00010B504F09BF8BDE81040401C04F0A8B82D
:1032B00010B5044607480068400606D5054A402177
:1032C000083211602046FFF7EBFF012184F82D1032
:1032D00010BD00005428004010B590F82C100129B2
:1032E0001BD0012200F82C2F022141700C49CA2367
:1032F0000B6053230B600A4B0C3B1C6844F08004AA
:103300001C60084B1C6844F480241C60FF230B6085
:10331000427000210170084610BD022010BD00005F
:10332000242800408008005805F016B92DE9F04126
:1033300005460C480468286B0B4F0440E0074FF02B
:10334000010603D03E602846FFF7EEFFA00704D534
:10335000022038602846FFF776FF85F82D60BDE82B
:10336000F0810000542800405C28004030B590F8FF
:103370002C20012A26D0012480F82C40022280F83B
:103380002D20184BCA221A6053221A60154A0C3A93
:10339000B1F5807F18D0134928310D6825F000451C
:1033A0000D60116821F408511160016B21F00201D8
:1033B0000163FF21196080F82D40002180F82C1056
:1033C000084630BD022030BD064920310D6825F089
:1033D00000450D60116821F488511160016B21F0E6
:1033E0000101E5E72428004070B504004FF001001A
:1033F00048D094F82D0028B9002084F82C002046ED
:1034000000F046F8022084F82D001F4ECA203060DC
:1034100053203060204601F07FFB60BB1A4D0C3D0D
:1034200028681A490840286028686168A26908432A
:1034300021691143084328602189E06840EA01407E
:10344000114914390860D4E9090108430E491839B3
:103450000A6822F4F85210430860204601F082FB0B
:1034600048B9D4E90721114362692B6823F060430E
:103470001A4311432960FF213160002802D1012144
:1034800084F82D1070BD000024280040BFFF8FFB82
:1034900010B590B0044638216846FCF7C8FE1849BC
:1034A0002068884229D18013009000120D90684650
:1034B000FFF716F908B1FDF7B5FF4FF0B04050F82F
:1034C000901F41F4004140F83819016841F48061CF
:1034D00001600068002200F480600E901146022016
:1034E000FFF752F80220FFF741F8002211462A2088
:1034F000FFF74AF82A20FFF739F810B010BD000096
:10350000002800402DE9F04F04460B4694F82C109B
:10351000002001294BD0012784F82C704FF0020ABB
:1035200084F82DA04F4909684E4E01F440754FF4C0
:10353000807B0C3680465D4519D030684FEA40608C
:10354000A2B3002801DB83F8038098781978DA7831
:1035500040EA01405978090241EA8251084393F850
:10356000241040EA0160196A084359690843DFF8EA
:10357000F490CA2209F11809C9F800205322C9F8A9
:1035800000209A6ADFF8DCC05A4532680CF1500C12
:103590003CD122F488523260CCF80070314A383283
:1035A0005D4522D1D3E90601084322E002E0022072
:1035B000BDE8F08F002801DB83F80380187801F064
:1035C0009FFA0204587801F09BFA42EA00229878A8
:1035D00001F096FA0243D87842EA805293F8240028
:1035E00001F08EFA42EA0060BDE71E4934310860FE
:1035F000986910601B49586864310860206B40F07E
:1036000001002063306840F488501CE022F4085226
:103610003260CCF800A0134A40325D4503D1D3E9B3
:103620000601084303E00F493C31086098691060C7
:103630000C49586868310860206B40F00200206334
:10364000306840F4085030600748016841F40031A8
:103650000160FF21C9F8001084F82D7084F82C80D7
:103660000020A5E70C2800408008005870B50B4DDD
:10367000286860F0A0002860FEF743FF04464FF47E
:103680007A7606E0FEF73DFF001BB04201D9032029
:1036900070BD28688006F5D5002070BD0C2800405C
:1036A0004FF0E020016941F0020101617047000024
:1036B0000448826819B1012903D10802104780200B
:1036C000FCE7704730000020014940208968084726
:1036D000300000202DE9F041054680791F4616464E
:1036E0000C4601282CD16879012829D04FF0010817
:1036F00085F80580284602F0B7FA00F033FE21462F
:10370000284602F085FA0021284602F081FA0024BA
:1037100006E03146284602F04DFA641CA4B2761C3D
:10372000BC42F6D300F030FE284602F0B5FAA86895
:1037300000B1012085F8068000216971BDE8F081A3
:103740000220FBE72DE9F04705468079984691462F
:103750000E46012831D1687901282ED001276F71DA
:10376000284602F081FA4FF0000A842E0BD0942EE6
:1037700009D085F804A000F0F5FD3146284602F096
:1037800047FA002408E02F71F5E719F804102846DD
:1037900002F03EFA641CA4B24445F6D300F0F4FDF6
:1037A000842E02D0284602F077FAA86800B10120E2
:1037B000AF7185F805A0BDE8F0870220FBE70000A7
:1037C0000149202089680847300000200149102065
:1037D000896808473000002038B505460020009071
:1037E00002236A4612212846FFF774FF9DF8000065
:1037F0009DF8011041EA0021CC43E00702D12846A0
:1038000000F032F9A00702D4284600F019F9600749
:1038100002D4284600F092F8200702D4284600F08F
:103820001DF9E00602D42846FFF7D0FFA00602D417
:103830002846FFF7C5FF600602D42846FFF744FF7D
:10384000200607D4E00501D4012100E0002128462C
:10385000FFF72EFFA00502D4284600F0F7F8022358
:103860006A4619462846FFF76DFF38BD2DE9F84333
:10387000040004D0A07900252F4618B106E00120ED
:10388000BDE8F8836771204600F042F80220A0717D
:103890004FF0B040D0F8941021F40041C0F89410DB
:1038A000184964220968C1EBC101C1F34C4111FB05
:1038B00002F1012600910099C1B1491E0091D0F892
:1038C0009410C1F380310029F5D100F05DFD0E4860
:1038D000016841F4805101604FF40068404600F0F7
:1038E00049FD0A49C1F800801DB107E00125A66025
:1038F000EBE7206802F04CF92671A760A671284614
:10390000BEE7000018000020900800581804005876
:1039100008B54FF0B040416E41F001014166406E84
:10392000002200F00100009011463220FEF72CFE2C
:10393000BDE808403220FEF719BE0000014904200E
:1039400089680847300000202DE9F041054680795C
:103950001F4616460C46012830D1687901282DD023
:103960004FF0010885F80580284602F07DF900F047
:10397000F9FC1E21284602F04BF92146284602F0A8
:1039800047F90021284602F043F9002406E03146B9
:10399000284602F00FF9641CA4B2761CBC42F6D390
:1039A00000F0F2FC284602F077F9A86800B1012087
:1039B00085F8068000216971BDE8F0810220FBE7EF
:1039C0002DE9F041054680791F4616460C46012830
:1039D00034D16879012831D04FF0010885F805808D
:1039E000284602F041F900F0BDFC1D21284602F0F6
:1039F0000FF9210A284602F00BF9E1B2284602F03D
:103A000007F90021284602F003F9002406E03146B8
:103A1000284602F0CFF8641CA4B2761CBC42F6D350
:103A200000F0B2FC284602F037F9A86800B1012086
:103A300085F8068000216971BDE8F0810220FBE76E
:103A400001490220896808473000002002494FF4EC
:103A500000708968084700003000002001490820F4
:103A6000896808473000002001490120896808471B
:103A7000300000202DE9F041054680791E461746AA
:103A80000C4601282BD16879012828D04FF0010875
:103A900085F80580284602F0E7F800F063FC0E2167
:103AA000284602F0B5F82146284602F0B1F8002475
:103AB00005E0395D284602F0ABF8641CA4B2B442BC
:103AC000F7D300F061FC284602F0E6F8A86800B1E0
:103AD000012085F8068000216971BDE8F08102208F
:103AE000FBE72DE9F041054680791E4617460C4656
:103AF000012831D1687901282ED04FF0010885F8CE
:103B000005800220A871284602F0AEF800F02AFCD9
:103B10000D21284602F07CF8210A284602F078F8A8
:103B2000E1B2284602F074F8002405E0395D284629
:103B300002F06EF8641CA4B2B442F7D300F024FC87
:103B4000284602F0A9F8A86800B1012085F806808F
:103B500000216971BDE8F0810220FBE74FF0E02011
:103B6000016921F002010161704710B5044690F827
:103B7000800001281CD0012084F880002420C4F893
:103B8000840020680168026822F00102026041F0AE
:103B900000504FF00051616621680860204603F034
:103BA0005DFE2020C4F88400002084F8800010BD51
:103BB000022010BD90F8801001290CD0012180F85E
:103BC000801001680A6842F002020A60002180F851
:103BD000801008467047022070477047704770B5E4
:103BE000044690F8800001281DD0012084F8800050
:103BF0002420C4F8840020680568026822F00102CD
:103C000002602068826822F060620A438260204677
:103C100003F024FE206805602020C4F88400002002
:103C200084F8800070BD022070BD70B5044690F825
:103C3000800001281DD0012084F880002420C4F8D1
:103C4000840020680568026822F001020260206892
:103C5000826822F060420A438260204603F0FEFD43
:103C6000206805602020C4F88400002084F88000CB
:103C700070BD022070BD38B5044690F88000002564
:103C8000012812D0012084F880002420C4F8840088
:103C90002068036823F0010303602068836823F42D
:103CA00040130B43836011B10EE0022038BD206841
:103CB000416893B221F01001194341602068120C51
:103CC000416862F31F6141602068016841F00101B1
:103CD0000160FEF716FC03466FF07E400090002264
:103CE0004FF48001204604F03DFA08B1032502E0BC
:103CF0002020C4F88400002084F88000284638BDC5
:103D000070477047704700002DE9F0410368044692
:103D1000D86919689A6840F60F0528424FF00005E7
:103D200009D186067ED501F0200602F080573E4379
:103D300078D0216FFFE0924E924F16400F403743EC
:103D400070D0C70709D0CF0507D501271F62D4F867
:103D50008C3043F00103C4F88C3083070AD5D307B5
:103D600008D0276802233B62D4F88C3043F0040368
:103D7000C4F88C3043070AD5D30708D0276804233A
:103D80003B62D4F88C3043F00203C4F88C30030754
:103D90000CD501F02003334308D026680823336292
:103DA000D4F88C3043F00803C4F88C3003050BD5ED
:103DB0004B0109D526684FF400633362D4F88C3088
:103DC00043F02003C4F88C30D4F88C30002B34D06E
:103DD000800609D501F0200002F08051084303D08D
:103DE000216F09B120468847D4F88C002168896882
:103DF000490602D410F0280F21D0204603F044FEDB
:103E000020688168490615D5816821F040018160EC
:103E1000E06F78B15C498163E06FFDF7EBFF00284C
:103E20000BD000E011E0E06F816B00E02046BDE8C0
:103E3000F04108472046FFF765FFBDE8F0812046C6
:103E4000FFF760FFC4F88C50F7E7E76E2026012FDC
:103E50005CD1C7065AD5CF0658D510201862206805
:103E6000816849062FD5E26F116849680904090C79
:103E7000E3D0B4F85C308B42DFD9A4F85E1011684F
:103E80000968890618D4016821F4807101602068EE
:103E9000816821F0010181602068816821F0400182
:103EA0008160C4F88860E5662068016821F010012F
:103EB0000160E06FFDF767FFB4F85C00B4F85E10D6
:103EC000401A81B21EE0B4F85C10B4F85E20891A82
:103ED000B4F85E2089B2002AAFD00029ADD00268C4
:103EE00022F49072026020688268254BDB431A40FE
:103EF0008260C4F88860E56625672068026822F061
:103F0000100202602046FFF768FE96E7C70209D557
:103F1000570207D54FF4801018622046BDE8F041E3
:103F2000FFF7EFBE07060AD501F0800702F4000292
:103F3000174304D0616F00297FF478AF7DE7420614
:103F40000CD54A060AD51968204621F040011960AF
:103F5000C4F88460656700F0A9F96EE7020206D52F
:103F60004A0004D52046BDE8F041FFF7C9BEC001B4
:103F7000CBD50029C9DA2046BDE8F041FFF72EBEB7
:103F80000100001020010004E979000810B50400C8
:103F900003D0D4F8840010B107E0012010BD002048
:103FA00084F88000204600F043F82420C4F8840000
:103FB0002068016821F001010160204603F042FF02
:103FC0000128EBD0A06A10B1204603F079FC2068EC
:103FD000416821F4904141602068816821F02A0104
:103FE00081602068016841F0010101602046BDE860
:103FF000104003F0C9BC000010B5044600680B492E
:10400000884212D14FF0B040C16D21F00101C1656D
:104010000C214FF09040FEF749F9A06FFDF736FFF5
:10402000BDE810402620FEF790BA10BD0080004089
:1040300070B594B0064614210EA8FCF7F8F83821A4
:104040006846FCF7F4F82B493068884250D12020AC
:1040500000904FF4406004906846FEF741FB08B1C1
:10406000FDF7E0F94FF0B041C86D40F00100C865C0
:10407000C86D00F001001390C86C40F00100C864E6
:10408000C86C002500F0010013900C200E90022057
:10409000CDE90F0503201190082012900EA94FF0D2
:1040A0009040FEF77BF9154C1348206016206060A5
:1040B0001020C4E902058020C4E90405A561E5617A
:1040C00020462562FDF7A2FF08B1FDF7ABF91021EC
:1040D0000A48FDF7C7FE08B1FDF7A4F9B46700224E
:1040E00002212620A662FEF74FFA2620FEF73EFAAE
:1040F00014B070BD00800040580002400C02002047
:10410000D0F88830202B0ED159B152B190F88030C0
:10411000012B08D0012380F880300023C36603F010
:10412000B5BF0120704702207047000010B504465B
:104130000848836833B1D4F88C0018B900220121F3
:10414000044898472046BDE8104001220149FFF786
:10415000D7BF00000C0000202DE9F8430446D0F83A
:1041600084001F4615460E46202851D1DEB1D5B138
:1041700094F8800001284BD0012084F880004FF093
:104180000008C4F88C802120C4F884001834FEF79D
:10419000B8F9A5878146E58754F8100C183CB0F5AE
:1041A000805F03D004E00120BDE8F883206920B1DE
:1041B0003546002684F8808010E00025FAE780214B
:1041C000204603F0CFFFB8B9C5B115F8010B21683F
:1041D0008862B4F85600401EA4F85600B4F85600A1
:1041E0004B464FF0000200970028E8D14FF0400105
:1041F000204603F0B7FF30B10320D5E736F8020BB5
:10420000C0F30800E3E72020C4F884000020CBE7D7
:104210000220C9E770B50446D0F8840020283DD1BB
:1042200071B36AB394F88000012837D0012084F874
:1042300080002165A4F85420A4F856200025C4F875
:104240008C502120C4F88400A06FD8B11449C162F9
:10425000A16F144813460863A16F13484863A06F09
:1042600085632668216D06F12802A06FFDF732FFF5
:1042700040B11020C4F88C0004F8805F20206060FA
:10428000012070BD21684020086284F880502068B9
:10429000816841F080018160002070BD022070BD06
:1042A0004D7A00087D7A0008FD7900080149002058
:1042B000496808470C0000207047FEE70E4910B51A
:1042C0000A780020012A08D10C4A087001231070D6
:1042D0000B4A10800B4A137050704A78012A07D09D
:1042E000C878012802D04879012803D1FDF772FB74
:1042F0004870FBE710BD0000D01A002080000020AD
:10430000940000209800002008B54FF0B0418A6C5E
:1043100002438A64896C0140009108BD08B54FF0E2
:10432000B0418A6C02438A64896C0140009108BDE7
:104330004FF0B041CA6C8243CA64704708B54FF071
:10434000B041CA6C0243CA64C96C0140009108BD07
:1043500008B54FF0B041CA6C0243CA64C96C014051
:10436000009108BD0248016821F4004101607047D6
:104370009004005803490A6822F4006202430A606C
:1043800070470000080400580248016841F40041E9
:1043900001607047900400584FF0B040806800F012
:1043A0000C0070474FF0B0400068C0F340407047C9
:1043B0004FF0B0400068C0F3802070474FF0B0412C
:1043C0004A6822F0FE4242EA0060486070474FF0BF
:1043D000B040D0F89000C0F3400070474FF0B040BC
:1043E0000068C0F3400070474FF0B0414A6822F4C3
:1043F0007F4242EA0020486070474FF0B040C068FA
:1044000000F0030070474FF0B0400068C0F3406018
:10441000704710B54FF0B04353F8882F4FF47F2109
:1044200001EA1014A24301EA001002431A6010BD11
:104430004FF0B04151F8882F030C1B049A4342EA15
:104440000040086070474FF0B04151F8882F22EAD1
:10445000104280B202430A60704700000148FFF733
:1044600053BC00007C01002010B50420FFF74CFF76
:104470000120FFF749FF002202210F20FEF784F8F8
:10448000BDE810400F20FEF771B800002DE9F041A3
:1044900001464FF0B04050F8942F42F40002026001
:1044A0003048FBF7D6FE07466FF00101FBF741FFEE
:1044B0002D4EB04202DC002404253BE038466FF06C
:1044C0000201FBF736FFB04202DC0124082531E08F
:1044D00038466FF00301FBF72CFFB04202DC0224E8
:1044E000102527E038466FF00401FBF722FFB042A9
:1044F00002DC032420251DE038466FF00501FBF7A0
:1045000018FFB04202DC0424402513E038466FF067
:104510000601FBF70EFFB04202DC0524802509E00E
:1045200038466FF00701FBF704FFB04202DC0624B7
:104530004FF480752846FBF708FF01463846FBF725
:10454000BAFEFBF707FF81B2084845F255520260F8
:1045500044608160510001604CF6CC410160BDE8CF
:10456000F08100000000FA4600007A45003000406B
:1045700002494AF6AA200860704700000030004057
:10458000194810B5174901604FF4165141600021D8
:1045900081600C22C160C0E9041281610162416244
:1045A00081624FF000514166FFF7F0FC08B1FCF763
:1045B00039FF00210C48FFF738FB08B1FCF732FF48
:1045C00000210948FFF70BFB08B1FCF72BFF064859
:1045D000FFF7CBFA002803D0BDE81040FCF722BF5C
:1045E00010BD0000008000407C01002030B58BB081
:1045F0002C216846FBF71BFE164815490024016074
:1046000004611F21446181604FF08041C0E906418F
:104610008D15C0E90845FEF7E7FE08B1FCF702FF7B
:104620000C48FEF759FE08B1FCF7FCFE07944FF06A
:1046300000500A950194CDE90540012269460548DC
:10464000FEF760FF002801D0FCF7ECFE0BB030BD98
:104650000028004038010020064910B508200860F5
:104660000846FFF703F9002803D0BDE81040FCF727
:10467000D9BE10BD7001002010B502F047FEBDE8A4
:10468000104002F01DBD4FF0FF3003F0AFBEFEE75B
:104690002DE9F041FFF76CFF1D481E491E4C0078C4
:1046A00001274FF0020868B1012809D189781B4819
:1046B00002F0DAFB002803D01948077184F8008063
:1046C000BDE8F081002525706078164E68B101289C
:1046D00014D00228F4D18978104802F034FB012864
:1046E000EED1358003206070EAE789780B4802F04C
:1046F00043FB0128E4D135806770E1E789780748FA
:1047000002F004FB0128DBD1358084F80180D7E773
:10471000800000200000002098000020A000002061
:10472000D01A002094000020F8B5FFF721FF2A4896
:104730002A4E2B4900782B4D01244FF47A7778B11B
:1047400001283ED1287820B17F0001283BD00228E3
:1047500037D13846FDF706FD234802F037FC2FE03D
:10476000687878B3012815D002281CD0032828D1F6
:104770000A201F4900901D48097800EB411043783A
:104780004268C169806902F00FF83846BDE8F84018
:10479000FDF7E8BC287840B96420FDF7E3FC124837
:1047A00002F008FB0CE0287820B13846BDE8F8405C
:1047B00002F072BD6420FDF7D5FC0B4802F02AFB25
:1047C0002C70F8BDFFE7F26808469047716B01B0A6
:1047D0003846BDE8F04008478000002018970008E0
:1047E00000A1BC3398000020E1720008B409002049
:1047F00068000020704700002DE9F04107460D4891
:104800001E461546C06A0C46804721460A4C0A4699
:104810000A4861803946FBF7F1FC2570667000217B
:10482000082003F04BFEBDE8F0410021202003F0FA
:1048300045BE00001897000800000020A0000020DE
:10484000044810B5C06A80470021BDE81040202010
:1048500003F034BE18970008044810B5C06A8047BA
:104860000021BDE81040202003F028BE1897000862
:10487000044810B5C06A80470021BDE810402020E0
:1048800003F01CBE18970008044810B5C06A8047A2
:104890000021BDE81040202003F010BE189700084A
:1048A000704710B5FFF75AF90121BDE8104000200C
:1048B000FDF7F2BE10B5FFF751F90349012008607A
:1048C000BDE81040FDF7BCBE880400587047FEF7F5
:1048D000E7BE10B5FEF7E4FEBDE8104004F0E4BD0D
:1048E000704710B54FF0904430B1012806D002282F
:1048F00010D003280CD10DE0002200E0012201219C
:104900002046FDF7F9FD002202212046FDF7F4FDC7
:10491000002010BD002201212046FDF7EDFD0122FF
:10492000F2E7022070470A20704710B586B01421C4
:104930006846FBF77CFC4FF0904401212046FDF7D0
:10494000B5FC02212046FDF7B1FC0120FFF700FD78
:104950000120FFF7FDFC01210091019100210320BE
:10496000CDE9021069462046FDF718FD02200090AF
:1049700069462046FDF712FD002202212046FDF780
:10498000BBFD002201212046FDF7B6FD06B0002048
:1049900010BD0020704701207047000070B5204A0C
:1049A00088B0F2E80234CDE90334F2E80234CDE90C
:1049B00005341CCA8DE81C000024B1F5007F6A464E
:1049C000214607D005AB33F8115085420BD352F87E
:1049D00021400BE003AB33F811508542F7D2491C5C
:1049E0000329F8D302E0491C0329ECD30D4E3068AB
:1049F00020F0070020433060FDF783FD054607E007
:104A0000FDF77FFD401B022802D9032008B070BDCE
:104A1000306800F00700A042F2D10020F6E7000065
:104A2000F4950008004000583C2101EA90000C4930
:104A300010B508584FF0B041D1F80811094A01F0FB
:104A40000F0152F82110B0FBF1F4FDF715FE0146FD
:104A50000548B4FBF0F0BDE81040FFF79FBF000031
:104A6000949500085495000840420F0038B5002284
:104A7000009201684B68DB435B0704D54A6822F06B
:104A800040024A6025E00B6843F080430B600168F8
:104A90000B6823F080430B600224012300940099EB
:104AA000491E00911BD0016809684900F7D40168CC
:104AB0004D68ED436D0603D44D6825F040054D600B
:104AC00000940099491E009109D00168496849077E
:104AD000F7D4C16821F00801C160002038BD4372DD
:104AE000C16841F00201C1600272FEF7F2FA0120D2
:104AF00038BD00000148FEF719BC00003801002055
:104B0000002102E00A38C0B2491C0A28FAD209077B
:104B100040EA1160704700002DE9F047104F06464B
:104B200000243868400618D4386840F080003860A7
:104B3000FDF7E7FC05464FF47A794FF0030807E0EC
:104B4000FDF7DFFC401B484502D9032486F82D8081
:104B50003868400601D4032CF2D12046BDE8F08726
:104B60000C2800402DE9F041054613480024016857
:104B700021F080010160104E0C3630684FF00307C1
:104B8000800607D42846FEF771FD90B185F82D7098
:104B900003240EE0306820F0200030602846FEF745
:104BA00065FD10B185F82D700324306840F02000B9
:104BB00030602046BDE8F0810C280040012070479D
:104BC00048B1084A002152F83130834205D902EB3E
:104BD000C100007970471F207047491CC9B21629CF
:104BE000F1D3FEE798970008F0B50025DDE90564EC
:104BF000121D079F052901D0062902D10C2B00D2D6
:104C00000C2310B1012802D004E00B2901D00C299B
:104C100000D101250FB1102000E0002000EBC400FE
:104C20004C4200EB84040EB1002000E0142020442C
:104C30008C00062902D9083005B1083C002800DAAA
:104C400000202044401E90FBF4F00C3300FB0230A7
:104C5000062900D8801C012202EB8000891E8840B2
:104C6000F0BD10B501F0A0F8042805D0052805D046
:104C7000072805D0002010BD022010BD012010BD66
:104C8000032010BD10B501F0E8F8C01C10BD0000F5
:104C900038B51E49002448601D4844704460846053
:104CA0001C4801F03BF9002000F06AFA01F01EFBFD
:104CB0000021084601F088F904220021012001F0BA
:104CC00057FC00234FF6FF701A46014601F0C2F967
:104CD00000F08AFE00220E48551E0F4B2946583020
:104CE000009403F001FC0A480C4B00222946703066
:104CF000009403F0F9FB0648583003F0D5FCBDE8FA
:104D000038400348703003F0CFBC0000280000207A
:104D1000840300200D4F0008354F00081D4F000888
:104D2000F8B5554D554CB5F85400202872D00CDC20
:104D300004282EDA01281FD002282AD14E487030CC
:104D400003F0B2FC687828B336E0402856D08028BB
:104D500061D0B0F5807F69D0B0F5007F19D101F046
:104D600023F804286ED001F01FF8052811D142481D
:104D7000703003F099FC77E03F48583003F094FC22
:104D8000002001F07BFB6068002802D000683EE054
:104D90008047F8BD002001F071FB002140F60210B1
:104DA00001F054FC40F64416304601F0EFF840F0B4
:104DB0000201304601F04AFCFF226946304801F00A
:104DC00035F82D48243000F0F5FF60680028E0D069
:104DD0008468002CDDD095F82400012805D095F8D2
:104DE0002C0095F9292043B203E095F9313095F96B
:104DF00030209DF800102248A047F8BD687810B90F
:104E0000002001F03BFB60680028F6D00069002814
:104E1000BED1F8BD22E0002001F030FB6068002820
:104E2000F7D081690029F4D0002009E0002001F0CA
:104E300025FB60680028ECD081690029E9D00120B9
:104E40008847E6E70C48583003F02EFC002001F0BC
:104E500015FB60680028DCD04068D8E70648703051
:104E600003F022FC687810B9002001F007FB6068AD
:104E70000028CED0C068CAE78403002028000020A4
:104E8000840200202DE9F04180468AB01D46164676
:104E90000F460124002001F0F1FA002000F04CF947
:104EA000404601F035FA00200121CDE908010790C4
:104EB000069002900390049005900320CDE90070C5
:104EC00000234FF416723946184600F075F9002099
:104ED00000F050F800F0C1FFC01CFDF743F903F0EB
:104EE00021FB074605E000F0E9FFB04201DD0024A8
:104EF00004E0384603F020FBA842F4D3002001F080
:104F0000BDFA0AB02046BDE8F08100000249A1F8D0
:104F10005400FFF705BF00008403002004484068E8
:104F2000002803D0C068002800D000477047000068
:104F30002800002004484068002803D0406800286A
:104F400000D00047704700002800002010B5012065
:104F500000F0F2F800231A461946184601F07AF8D4
:104F6000BDE8104000F07BBF01F010B801F01AB8A6
:104F700000F0A4BF10B5044600234FF6FF701A4698
:104F8000014601F067F834B121460C4803F032FBCA
:104F90000A4803F04BFB094C0021703C94F8560082
:104FA00001F08AFA6078012805D0A0688001BDE888
:104FB000104001F0EBB96FF07F40F8E7F4030020F8
:104FC00010B5044600234FF6FF701A46014601F063
:104FD00041F834B121460C4803F00CFB0A4803F0B9
:104FE00025FB094C0021703C94F8560001F064FA4E
:104FF0006078012805D0A0688001BDE8104001F06C
:10500000DDB96FF07F40F8E7F40300202DE9F041AF
:1050100080460C46002340F201208AB01A46014621
:1050200001F018F8354E012196F8560001F044FAC7
:10503000307806F10E0548B1012805D00227022874
:1050400019D003280BD119E0F47700E0B475284695
:1050500001F0C2F800222146404600F0ABFF27488D
:105060007168583003F0C6FA0AB02448BDE8F04130
:10507000583003F0DBBAB773B476E8E7242168460A
:10508000FBF7D5F822464146684604F048F8B84692
:10509000B773671CB776284601F09EF8B06C4FF0E6
:1050A000000164284FF0F1001CD000F03FFD00210A
:1050B000F02000F03BFDE121F32000F037FD04215A
:1050C000F22000F033FD08EBC404210AF42000F0C4
:1050D0002DFDE1B2F52000F029FDF9B26FF07F421D
:1050E0006846BAE700F022FD0021F02000F01EFD26
:1050F0007021F32000F01AFD1D21E1E78403002058
:1051000001F006B930B404460A4A094B02F10E0018
:10511000012C07D0547D012C07D11970917530BC3A
:1051200001F05AB81970D177F9E730BC7047000028
:10513000280000208403002010B5104C01282070A6
:105140000AD0032814D004284FF0000011D001F039
:10515000B1F80020607310BD012001F0ABF8617B55
:10516000207B8142F7D06073BDE8104000F008B8A2
:105170000220BDE8104001F09DB80000840300202B
:1051800070B504460B48047344730120FFF7D4FF45
:105190004FF4E860451C24B1342101F057FA442152
:1051A00003E0142101F052FA24212846BDE87040A2
:1051B00001F04CBA840300202DE9FF4F87B0DFF8DF
:1051C0008CB2DDE91773DDE915658A461D99144631
:1051D0008BF8011001B10025DFF8749217B189F83E
:1051E000003002E0FF2289F800204FF6FF7101EA4B
:1051F000C608964901F138020E31CDE900120028A7
:105200006CD001287ED004287DD1012001F04AF91C
:1052100000278BF838700920CBF83C408BF844000D
:105220004FF44870CBF840005E465046FFF7C8FC8C
:1052300086F84500B773A6F81080B7741020F07494
:105240003775777599F80000B0750120F0753776DD
:105250000420FFF771FF019800F038FF009800F07C
:10526000BBFF7CA0D0E90010CDE9021002A801F03C
:1052700037F940F2FF1001F0C5F940F6B80738469B
:10528000FFF772FE20F01001384600F04FFC0421B9
:10529000781C00F04BFC40F69B073846FFF764FE95
:1052A00020F01C0040F00801384600F03FFC40F2BE
:1052B000D1673846FFF758FE40F01801384600F035
:1052C00035FC40F2AC673846FFF74EFE20F0700028
:1052D00040F05001384600F029FC46E0002001F083
:1052E000E1F800208BF838000B20CBF83C408BF81D
:1052F00044005E465046FFF763FC86F845000020F8
:10530000B07301E03AE036E0A6F810800420B074F3
:105310001820F0740020307587F00100707599F83E
:105320000000B075199808B1F22000E00120F07576
:1053300001203076002001F0A1F896F8380000B185
:105340000120FFF7F9FE019800F0C0FE009800F080
:1053500043FF42A0D0E90010CDE9041004A801F0F9
:10536000BFF840F2FF1001F04DF94FF4FA504543F9
:10537000B5FBF4F0B0600BB0BDE8F08F002001F099
:1053800091F80121374B8BF83810E0B28BF85000C0
:1053900013F80A208BF851200A9AD8468BF852202D
:1053A000BAF1000F03D0BAF1010F02D003E00B2CC9
:1053B0000BD00C2C09D0002288F8532088F80E104E
:1053C000052805D0062803D008E088F85310F5E733
:1053D0000C2E03D20C20A8F81C0001E0A8F81C60D9
:1053E00088F81E7099F8000088F81F00199888F84E
:1053F00020001C9888F82100002001F03FF898F860
:10540000380000B10120FFF797FE019800F05EFE22
:10541000009800F0E1FEE8B200F03AFE98F82100B2
:1054200040F23674012820460BD000F0AFFD40F06A
:105430000401204601F00AF94FF6FF70C8F8080091
:1054400099E700F0A3FD20F00401F2E784030020B7
:1054500028000020B227000000000000C194C10015
:10546000000000009497000870B5054606480C46F9
:10547000002190F8560001F01FF821462846BDE8AB
:10548000704000F0B9BF0000840300202DE9FE4FFA
:105490000C4600210091CDE901111D460E4612B1C6
:1054A0000025012100E00021DFF8B881424688F89C
:1054B00001104FF0FF3102F1380A02F10E0910B16C
:1054C000012862D164E0E06800287DD020690028CE
:1054D0007AD0607D082877D80020694603E0A26969
:1054E000125C0A54401C627D8242F8DC94F823006E
:1054F000F0B3FF27206800B1012000F0D3FFB346CE
:1055000088F838B054F80C0FC8F83C0014F8080CB0
:1055100088F84400464654F8040CFFF751FB86F81F
:10552000450086F80EB0A1884FF6FF7000EAC10072
:105530003082207AB074607AC000F074A07D30753B
:10554000E07D7075B775207EF075207F3076002085
:1055500000F094FF0020FFF7EFFD504600F0B6FD8D
:10556000484600F039FE684600F0BAFFA08A00E025
:105570000CE001F047F8608B00F044FD4FF4FA5066
:1055800045432068B5FBF0F0B06060E0277FB1E7ED
:10559000A08EC8B194F83600012825D0FF27E06A14
:1055A00000B1012000F07EFFE8B200F071FD0121A2
:1055B00088F8381094F8300088F8500094F83100DA
:1055C000454688F8510000E00BE094F8320088F876
:1055D000520094F8330078B101283AD002280DD156
:1055E00004E00846BDE8FE8F277FD8E794F8300036
:1055F0000B282ED00C282CD085F8536005F80E1FF0
:1056000034F8340FE881A07828746F742079A87476
:105610006079E874002000F031FF0120FFF78CFD75
:10562000504600F053FD484600F0D6FDE87C0E3DA4
:1056300040F23674012820460ED000F0A7FC40F05E
:105640000401204601F002F84FF6FF70A8600298AE
:10565000C8E785F85310D1E700F098FC20F004016A
:10566000EFE70000840300202DE9FF4F83B012AD67
:10567000DDE9104C95E8400C5C4D002105F10E026F
:10568000DDF85C8005F138090127029280B101281C
:1056900050D003280BD1FFF74FFD022085F83800CA
:1056A0001620AC6485F84C00484600F00FFD81E000
:1056B00085F838100B20EC6385F8440088461846BE
:1056C000FFF77EFA85F84500059828644FF6FF70CD
:1056D00085F80E8000EAC60028820420A8741820ED
:1056E000E87485F814808AF001006875BBF1000F3A
:1056F00002D0F220E87500E0EF752F76002000F070
:10570000BDFE95F8380000B10120FFF715FD4846B1
:1057100000F0DCFC029800F05FFD35A0D0E900103D
:10572000CDE90010684600F0DBFE40F2FF1000F00B
:1057300069FF3FE0304A85F83870E0B285F85000E4
:10574000D25C85F8512085F852C013B1012B02D0EC
:1057500003E00B2C09D00C2C07D085F85310AF7345
:10576000052805D0062803D007E085F85370F6E732
:105770000C2E02D20C20A88300E0AE831F4885F8CF
:105780001EA00078E87785F820B085F821800020F9
:1057900000F074FE95F8380000B10120FFF7CCFC52
:1057A000484600F093FC029800F016FD95F8510071
:1057B000062813D040F68904204600F0E7FB40F0AD
:1057C0000401204600F042FF049800F0C9FD85F86E
:1057D00056001898686007B0BDE8F08F40F689045D
:1057E000204600F0D3FB20F00401EAE78403002008
:1057F000C194C10000000000949700082800002018
:1058000070B50D4601464FF47A7002FB00F408466D
:1058100000F07EFD284600F0A3FD012100F04CFEC3
:1058200000F096FE2146044802F0E4FEBDE8704018
:10583000014802F0FBBE0000DC0300202DE9FC471C
:105840000026684D0C46994692460096711E05F159
:10585000380805F10E07019620B101284DD0022825
:105860004AD19FE0A06800287ED0206900287BD024
:10587000207D082878D80020694603E0A269125CE0
:105880000A54401C227D8242F8DC85F83860A0680A
:10589000E863207885F844006068FFF791F985F89F
:1058A0004500E0682864AE73208A4FF6FF7101EA74
:1058B000C00028820420A874207DC000E8742E75E2
:1058C000A07F6875E07FE87594F8220028760020B4
:1058D00000F0D4FD0020FFF72FFC404600F0F6FB5F
:1058E000384600F079FC684600F0FAFDA08B00F025
:1058F00089FE208C00F086FB6AE0012185F83810D3
:1059000094F8240085F8500094F8250085F851009B
:1059100094F8260085F8520094F8270048B1012831
:1059200038D002280AD194F824000B2832D00C2851
:1059300030D085F8536094F8270000B1012085F835
:105940005300A97334F8280FA883A078A877E078CB
:1059500085F82000207985F82100002000F08EFDD8
:105960000120FFF7E9FB00E021E0404600F0AEFB3C
:10597000384600F031FC95F8510040F689040628BD
:1059800020460AD000F002FB40F00401204600F05F
:105990005DFE1DE085F85310CDE700F0F7FA20F02A
:1059A0000401F3E7A06810B1B0F57A7F02D9084688
:1059B000BDE8FC870220FFF7BFFB022085F8380016
:1059C000206BA864162085F84C00404600F07EFB52
:1059D000504600F0C5FC85F856000020C5F804903C
:1059E000E6E700008403002010B5042000F024FD49
:1059F000BDE810400220FCF7B5BB002000F03EBD22
:105A000010B500234FF4C0701A46014600F022FB87
:105A1000BDE8104000F0E6BAFEB51F4616460D463A
:105A2000DDE90A23DDE908CE01004FF000004FF068
:105A3000010402D0012949D114E0BEF1000F05D0C4
:105A4000002000EBCC011BB1022002E00820F8E7A7
:105A50000020104401EBC0004FF47A711830484325
:105A6000344633E0CDF800E0CDE9012363463A4601
:105A700031462846FFF7B8F84FF47A714843164983
:105A80000024495D0B2921D2DFE801F0060C121831
:105A90001B1D1F20090F150041F6846416E042F615
:105AA000B10413E043F6095410E045F261140DE02F
:105AB00047F612240AE04AF2C32407E04FF22444D6
:105AC00004E0064C02E0064C00E0064C2044401E78
:105AD000B0FBF4F0FEBD00009497000848E8010018
