:020000040800F2
:10000000502500204D010008313F0008B73A000894
:10001000CB3D000869040008E97B000800000000EF
:10002000000000000000000000000000895C0008E3
:10003000CB0D000800000000114000089167000887
:100040006701000867010008AD6900086701000842
:1000500067010008670100086701000867010008E0
:10006000670100086701000867010008010D00082A
:10007000090D00086701000867010008110D00085C
:1000800067010008670100086701000867010008B0
:1000900067010008670100086701000867010008A0
:1000A0006701000867010008670100086701000890
:1000B0006701000867010008670100086701000880
:1000C0006701000867010008670100086701000870
:1000D0006701000867010008813B0008670100080C
:1000E0006701000867010008114200086701000865
:1000F0006701000867010008670100086701000840
:1001000067010008670100087153000867010008D3
:10011000670100086701000867010008670100081F
:10012000670100086701000867010008670100080F
:100130006701000867010008DFF80CD000F082F9C1
:1001400000480047117C00085025002006488047E1
:1001500006480047FEE7FEE7FEE7FEE7FEE7FEE7AC
:10016000FEE7FEE7FEE7FEE7A9690008390100089F
:100170002DE9F05F0546002092469B4688460646DC
:10018000814640241BE0284641464746224600F06F
:1001900012F953465A46C01A914110D311461846D7
:1001A000224600F0F9F82D1A67EB01084F46224667
:1001B0000120002100F0F0F817EB00094E41201E4D
:1001C000A4F10104DFDC484631462A464346BDE837
:1001D000F09F00000649074A0868504343F239027D
:1001E00010440860400870470149086070470000EB
:1001F000000000206D4EC64140EA01039B0703D07A
:1002000009E008C9121F08C0042AFAD203E011F855
:10021000013B00F8013B521EF9D27047D2B201E017
:1002200000F8012B491EFBD270470022F6E710B5FB
:1002300013460A4604461946FFF7F0FF204610BD54
:10024000421C10F8011B0029FBD1801A704780EA7C
:10025000010210B502F00043400022D04A001FD036
:10026000010E01EB1261C0F35600C2F3560240F4D6
:10027000000042F40002A0FB022000047F391404B5
:1002800000D0401C50EA124001D44000491EC2B2C6
:100290000C0604EBD010401C4008802A02D003E07A
:1002A000002010BD20F00100002900DA00201843D2
:1002B00010BD30B480EA010202F0004530F0004287
:1002C00021F0004013D090B1C30DD40DC2F316013C
:1002D000C0F31600E41A41F4000140F400027D343A
:1002E000914201D3641C00E04900002C02DA30BCCA
:1002F000002070474FF400000023914201D3891A77
:10030000034340084FEA4101F7D151B1914202D174
:100310004FF0004105E002D24FF0010101E06FF023
:10032000010103EBC450284430BC00F054B800284D
:1003300001DBC0F10040002901DBC1F10041814235
:1003400001D80120704700207047002801DBC0F170
:100350000040002901DBC1F10041814201D90120A7
:1003600070470020704796230022114600F03CB8E9
:1003700020F00040C10DC0F3160040F400007F29BA
:1003800001DA00207047962903DCC1F19601C840CC
:100390007047963988407047202A04DB203A00FADB
:1003A00002F1002070479140C2F1200320FA03F3CC
:1003B000194390407047202A04DB203A21FA02F0CA
:1003C0000021704721FA02F3D040C2F1200291408F
:1003D0000843194670470029A8BF7047401C4900D0
:1003E00008BF20F00100704710B4B0FA80FC00FA9A
:1003F0000CF050EA010404BF10BC704749B1CCF1C5
:10040000200421FA04F411FA0CF118BF0121214350
:100410000843A3EB0C01CB1D4FEA00614FEA10200B
:1004200042BF002010BC704700EBC35010440029AD
:10043000A4BF10BC7047401C490008BF20F0010059
:1004400010BC7047064C074D06E0E06840F0010321
:1004500094E8070098471034AC42F6D3FFF770FEDB
:100460000487000824870008FEE7000010B5027822
:100470002D480A2A427041680AD12C4A4B1ED45C8E
:10048000092C08D10021D15401228360027005E0BB
:10049000264B5A5401E00A23535401314160C0688D
:1004A00010B1BDE81040004710BD00BF10B50446B4
:1004B000034807F0A1F90CB11B48C46010BD00BF90
:1004C0006D0400082DE9F04385B0DFF85C8098F8F2
:1004D0000000012825D1DFF8549000270DF10A040F
:1004E00013A514A688F80070D8F80800874210D227
:1004F00019F807202046294607F0EAFD00200021D0
:1005000000223346009407F0F9F80028F6D10137AD
:10051000EAE7642001F002FA00F0D4FC002088F839
:10052000140005B0BDE8F083EC000020AD0300200E
:10053000257820002573200010B50446C06A0128E4
:100540000DD1E06D012808D1B4F84200216E0844B5
:100550002066204600F024FA2BE00120E065002010
:10056000A087B4F8420020662068A168026822F4DF
:10057000C0420260204600F0CFFA216A20680A6873
:10058000C2624A6882628A684262C968016201681E
:1005900041F0010101606FF4957101310ED24268A2
:1005A000D207FAD0016841F080010160204600F0D6
:1005B00075F900280CBF0020012010BD016821F052
:1005C00001010160A06D40F01000A06500202065D1
:1005D0000120606510BD10B50446C06A01280DD128
:1005E000E06D012808D1B4F84200216E084420666D
:1005F000204600F0D5F92BE00120E0650020A0871F
:10060000B4F8420020662068A168026822F4C04263
:100610000260204600F080FA216920680A68C26200
:100620004A6882628A684262C9680162016841F070
:10063000010101606FF4957101310ED24268D20759
:10064000FAD0016841F080010160204600F026F9EF
:1006500000280CBF0020012010BD016821F001011D
:100660000160A06D40F01000A06500202065012011
:10067000606510BDF8B504466FF49075002601273B
:100680006DB92068016821F001010160A06D40F0A2
:100690001000A06520462665676500F0F7FE20681B
:1006A00001354168C907EBD0016841F08001016064
:1006B000F8BDC06A01214165816D41F00401816589
:1006C00001680A6842F080020A6000F0DFBE0000A4
:1006D000F8B5C46A2068616C0268062922F40062D9
:1006E00002604BD12046FFF7C5FF02256564A06A72
:1006F000E169002808BF8900080733D06FF00300C4
:1007000000EA9100A087C1F38100024652B1A38F95
:10071000A769266857F82330013AB360A38F0133E5
:10072000A387F3E711F0030211D0A38FD4E90016D9
:10073000A76902EB4602994E57F8233056F822205B
:1007400003381A408A6050B101300022FAE721686C
:1007500060F00300002210B18A600130FBE7204600
:10076000FFF788FF2068016821F4700101600168CB
:1007700065F34E310160204600F012F92046BDE8D5
:10078000F84000F086BE00BFF0B585B0C46A2068AE
:10079000016821F480510160016841F0800101602D
:1007A000B4F842100A0762D06FF0030202EA910225
:1007B000E287E28FA4F8402001F1100222F00F023C
:1007C000511A026802F01802102A04D06AB962694C
:1007D000602A04D009E06269B2F5803F05D1026861
:1007E00022F4700242EA01520260C1F1100289074C
:1007F0004FEA92014FF0010318BF03EB92010A4642
:100800004AB1E38F656B013A55F823308360E38F7B
:100810000133E387F4E70022032902D88260013123
:10082000FAE72046FFF726FF2068002201A9042AE4
:1008300004D0C36841F822300132F8E7B4F842200E
:10084000002303329208B4F84050032B0FD8AA4279
:100850000DD951F82350B4F84060A76B013347F825
:100860002650B4F840500135A4F84050EBE76169D8
:1008700001F06002602A06D011F4803103D10168D2
:1008800021F0010101600020206501206065204603
:1008900005B0BDE8F04000F095BE000070B50268FC
:1008A0000446C369806A1168012565F34E31116001
:1008B000022161641168002841F00101116008BF44
:1008C0009B00102B13D306206064A06C904DA1698F
:1008D00085638E4D083205634FF6FC7505EA930378
:1008E00000F0DCFF30B3A06D40F004003CE0002BD2
:1008F00043D09808014649B1A58FA669013956F839
:1009000025509560A58F0135A587F4E713F0030105
:1009100016D0A38F6568A66901EB45011F4D56F8F7
:10092000233055F82110194001309160002104282E
:10093000FAD30BE02068016841F4006101602BE00C
:100940000021032802D891600130FAE720464FF4D5
:10095000917100F002F92268116858B121F001008C
:100960001060A06D40F01000A065002020650120FF
:10097000606570BD41F0800010601068022120F4B5
:1009800070001060106861F34E301060204600F077
:1009900007F808B1012070BD002070BDE483000895
:1009A000F0B585B0B0F8424054B1A208102C0CD379
:1009B000D0E90D1322F0030200F06EF8002161E08F
:1009C00001214165002101655CE001682F4D0B6844
:1009D0002F4E1D40C4F11003B54201D0602D05D14A
:1009E0000D6825F4700545EA03550D6013F0030307
:1009F00018BF012303EB940425464DB1C68F476B06
:100A0000013D57F826608E60C68F0136C687F4E731
:100A10000025042C02D28D600134FAE71D4C01340C
:100A20000FD24D68ED07FAD00C6801AD44F0800498
:100A30000C600024042C11D0CE6845F824600134E9
:100A4000F8E70A6822F001020A60816D41F01001A6
:100A50008165002101650121416513E0D11801AADA
:100A600061B108CAB0F84040856B013945F82430BF
:100A7000B0F840300133A0F84030F1E70021012206
:100A800001654265084605B0F0BD00BF7800010071
:100A900010000100DEFEFFFF2DE9F8439846914665
:100AA000044602684369806C184EE76C0663184E72
:100AB000184D03F06003602B86633D63BE6303D073
:100AC000136843F00103136008324B4600F0E6FE62
:100AD00030B1A06D40F00400A065204600F0D6FCC7
:100AE0002168E06C0C3142464B4600F0D7FE30B135
:100AF000A06D40F00400A065204600F0C7FC20680F
:100B0000016841F4C0510160BDE8F883D1060008D6
:100B1000B306000889070008C268EAB199B1B1F5C7
:100B2000802F19D111680068C16351688163916891
:100B30004163D16801631169C16151698161916942
:100B40004161D16907E011680068C1615168816144
:100B500091684161D16801617047F8B50C4605465E
:100B600001F0CEF80646671C28684068C0070AD125
:100B7000002FF9D001F0C4F80146012014B1891BFF
:100B8000A142F1D9F8BD0020F8BD01221146D2B230
:100B9000062A07D801F00F034A1CB0EB031FF5D853
:100BA000080100E00020C0B27047000070B50529C0
:100BB00061D804461546DFE801F0030F1B26313CDF
:100BC00020884AF65521884255D1A078012852D173
:100BD000E57820460C2148E020884AF655218842D5
:100BE00049D1A078022846D1E57820461C213CE076
:100BF000012B33D120884AF6552188423BD1A07879
:100C0000032836D037E0012B2CD120884AF6552115
:100C1000884230D1A07804282BD02CE0012B13D1AE
:100C200020884AF65521884225D1A078052812D07F
:100C300021E0012B08D120884AF6552188421AD19B
:100C4000A078062807D016E0E6782046102100F0AC
:100C500014F886420FD1A08828800AE0E578204663
:100C6000202102E0E5782046102100F006F88542B8
:100C700001D1012070BD002070BD10B500220023FD
:100C8000914205D0032A1CBF845C63400132F7E720
:100C9000D8B210BD0120002106F094BEB0B5052ADF
:100CA00088BFB0BD04460D46DFE802F00C151E03F8
:100CB000030320461021FFF7E0FFE070284621469D
:100CC000102219E020460C21FFF7D7FFE0702846DC
:100CD00021460C2210E020461C21FFF7CEFFE070D9
:100CE000284621461C2207E020462021FFF7C5FFA9
:100CF000E070284621462022BDE8B040FFF77CBACC
:100D00004248806C00F01CBD4048C06C00F018BD2B
:100D1000014800F015BD00BFB41A002010B51049FD
:100D2000104C01F1640202650268836CA24238BF74
:100D300004F57E7123F003031944C1646FF00701C9
:100D400051FA82F11423B1FBF3F1A24228BF07311B
:100D500001F01F01012202FA01F1416510BD00BF3F
:100D60001C0802400804024010B54368074903F01C
:100D70007F03013B01F1400201EB830103F0030318
:100D80000124583004FA03F30EC010BD00090240DC
:100D9000F0B500F1500670CE656016B1D0E9174588
:100DA000656004688568D0E91160012700F01C00C7
:100DB00007FA00F0706008466360102D08BF104607
:100DC000A06008BF0A46E260F0BD704770B50F4CE6
:100DD0000546204600F039FA08B100F01DF80C4B2A
:100DE00004220126202000216662C4E9003204F1B9
:100DF0000802084E62C26061204600F04BFB18B149
:100E0000BDE8704000F008B870BD00BFDC180020DD
:100E1000001800582C840008FEE70000B0B5E54A31
:100E2000536843F480235360EFF31083EFF310848F
:100E300072B6402420C9013C20C02506FAD11068B2
:100E4000C003FCD483F31088B0BD00BF70B5D94E89
:100E5000044600F055FF05463068C00306D500F093
:100E60004FFF401BA042F7D3032070BD3068C1077D
:100E70001CBF012131604CF2FA31084009D007490A
:100E800048603060012070BD00F03AFF401BA04276
:100E9000EAD230684003F7D4002070BD201C002047
:100EA000002221B110F8013B01395A40F9E7D0B2D4
:100EB0007047002221B110F8013B01395A40F9E78F
:100EC000D0B2704710B5224C21786078AA2908BFAB
:100ED00001281BD0AA2908BF022822D0AA2908BFAE
:100EE000082829D0AA2908BF04282FD12046082184
:100EF000FFF7D6FF217A884228D116480121817454
:100F0000608815498880E088C88010BD204602218D
:100F1000FFF7C6FFA178884218D10E48012101745D
:100F200010BD20460221FFF7BBFFA17888420DD1FA
:100F300008480121417410BD20460221FFF7B0FF8F
:100F4000A178884202D103480121C17410BD00BFBD
:100F5000AD030020EC000020A006002010B5994A47
:100F600002F11C030022802A09D053F8044C844269
:100F700002D11C688C4203D020330132F3E7962261
:100F8000D0B210BDF0B589B00446012913D1124882
:100F90000068FFF729F9114D002601AF102E17D078
:100FA000B919284601F0D7FC08B1FFF735FFB85949
:100FB000A0510436F2E75948016821604168616038
:100FC0008168A1607C4949682161C068E06001E0F6
:100FD0000020206109B0F0BD8075FF1FA81B002014
:100FE00078490020802804D00A781AB120310130D5
:100FF000F8E79620C0B2704770B586B000F07AF876
:101000006D4E01AC70681421013070602046FFF70E
:101010000CF920460021FFF7B5FF00F025FD6548DB
:101020004FF4004101600221304640F8181F7D2135
:10103000012240E90412C0E90112011F00F074FC12
:1010400040B15E4D0020002100222B4606F056FBE9
:101050000028F7D1304800253061182D0CD06019D8
:10106000625943683169012000F0C4FC10B930694D
:10107000083030610835F0E706B0BDE8704000F098
:10108000AFBC00BF2DE9F04F89B019484A4D4C4E16
:10109000DFF830814FF00009834601AC2E615E45D8
:1010A000584622D820462021FFF7BFF800202028EC
:1010B00005D016F8011B21542E610130F7E75FFAC5
:1010C00089F0DDE9012E410105AFDDE903AC48F807
:1010D00001208ECF08EB4010C0E901EAC0E903C14E
:1010E00014308CC009F10109D9E709B0BDE8F08FCF
:1010F000FEFF030810B508492F48084B00220C4694
:1011000001612468102A05D09C508C1804340461B5
:101110000432F6E7446010BD00E80308381C0020E4
:1011200010B52849054C01EB401000F108030ECB27
:10113000406984E80E00E06010BD00BF101C002074
:1011400070B500F091FC1B481B4D4FF4004101604D
:101150000221284640F8181F7E2240E90421C0E9F8
:101160000121011F00F0E0FB40B1144C00200021E0
:101170000022234606F0C2FA0028F7D100F030FC26
:101180000F48286100F070FC0E4E0024B4F5805F1B
:101190000CD03019325943682969012000F02AFC2B
:1011A00010B92869083028610834EFE7BDE87040BD
:1011B00000F016BC10400058C8000020EF86000860
:1011C00000F003084C080020F8B50C460978DDE96A
:1011D0000765117061781970A178E27841EA0221FF
:1011E000069A116021796279A77970B141EA0220EB
:1011F00040EA0740FFF7B7F83060E079217A627A79
:1012000040EA012040EA024015E041EA0220FFF7EF
:10121000AAF8012F08BF80F000403060E079217A01
:10122000627A40EA0120012A05D14042FFF79BF88B
:1012300080F0004001E0FFF796F82860F8BD4FF419
:101240007A7000F06BFB06F0D1FCB0B504460120CB
:1012500084B10025E587A4F84050A5876064206824
:10126000016821F001010160204600F033F90020FF
:1012700025656565B0BD0000F8B50446406D0128E0
:1012800035D102206065256D012D35D00026E68719
:10129000A4F84060676A2568002F08BF9200A4F890
:1012A00042202A6860F3C40201202A602065C4E954
:1012B0000D1328687449084008D0202806D0B0F5DE
:1012C000803F25D0602828D040282BD10096E06AA6
:1012D000012804D1E06D012855D00120E065606946
:1012E00040280AD1A1682046FFF716FC3FE0A06D18
:1012F00040F00800A0650120F8BD206BB0B1A168E6
:101300002046FFF709FC2068016841F018012DE034
:101310002046BDE8F840FFF70FB92046BDE8F84089
:10132000FFF759B9A06D40F02000E3E728680121DC
:1013300061F3C4002860A1682046FFF7EDFB206838
:10134000016841F0010101605221009100990139C9
:101350000091009949B34168C907F7D0016802229A
:1013600041F080010160016862F3C40101606069BD
:1013700048B1216920680A68C2624A6882628A6844
:101380004262C968016202206064B4F8420038B168
:10139000D4E90D1382082046FFF77EFB0020F8BD3C
:1013A0000120606500202065F8BD016821F0010181
:1013B0000160A06D40F01000A065002020650120B4
:1013C0006065F8BDB0B50446406D012848D10220E3
:1013D0006065256D012D48D00020E087A4F840000D
:1013E000656A2068002D08BF9200A4F842200268B8
:1013F00022F01802026001222265C4E90D13006880
:101400002149084008D0202806D0B0F5803F2DD0D3
:10141000602830D0402833D1E06A012804D1E06D43
:10142000012811D00120E065A1682046FFF774FB78
:10143000606948B1216920680A68C2624A688262AC
:101440008A684262C968016202206064B4F842009E
:10145000D4E90D1382082046FFF71EFB0020B0BD23
:10146000A06D40F00800A0650120B0BD2046BDE899
:10147000B040FFF761B82046BDE8B040FFF7ABB819
:10148000A06D40F02000EEE7600001007047406D65
:1014900070477047C8B170B50446406D20B9002050
:1014A0002065204600F02AF894E807006369056883
:1014B000074E3540294311431943016000200121A3
:1014C000A065E0656164616570BD0120704700BF83
:1014D00099FFFAFF10B5044600683549884218BFE5
:1014E00010BD3448016821F400310160A06C00F0A7
:1014F000E3F8E06CBDE8104000F0DEB82DE9FC41F7
:10150000044600682A49884201D0BDE8FC81294987
:101510002A4D0868002240F40030086026484FF445
:10152000006C4FF4007E8027102627230262C0E95A
:101530000053C0E90262C0E9047EC0E906C209683E
:10154000A84601F400310191019900F049F908B170
:10155000FFF762FC184D1021284600F09CF808B1F6
:10156000FFF75AFC1648EC62A56400214FF40062B4
:101570004FF400738025282608F114070162C0E9A2
:101580000076C0E90211C0E90453C0E9062100F069
:1015900027F908B1FFF740FC094D1021284600F05B
:1015A0007AF808B1FFF738FCEC62E564BDE8FC812D
:1015B0000018005850000058EC19002008000240A4
:1015C000501A0020704740B3B0B5816A022926D175
:1015D000016800F144041CCC0D6803F01C0325F0E5
:1015E0000E050D60256825F4807525600C6824F0D3
:1015F00001040C60012101FA03F35360D0E91423C4
:101600005360826D32B1136823F480731360D0E9A4
:10161000172353608162002104E0012106E00421C8
:101620000164012100224262BDE8B04008467047D3
:10163000B0B5816A022929D10168D0E91132C46CA0
:101640000D6825F00E050D600D6825F001050D6093
:10165000216821F48071216002F01C01012202FA4C
:1016600001F15960D0E914134B60816D31B10B6801
:1016700023F480730B60D0E917134B6000214162A3
:101680008262C26B2AB19047002102E0042101640A
:1016900001210846B0BD60B10068CB06026805D5DF
:1016A000C90254BF22F4801242F48012026000206A
:1016B0007047012070470000B0B504460120E4B334
:1016C00022681425116821F001011160714901F1AE
:1016D00008039A42704B38BFA1F5806138BF03F50B
:1016E00080631344B3FBF5F39D00C4E91115002595
:1016F00015601C2202EA8302904048602046FFF7F2
:101700000DFB606804F14C030ECB013803280D601B
:10171000536007D82046FFF727FB04F1580207CA99
:1017200005604A602564C4E916552566C4E90C5570
:10173000C4E90E556562A56200E001252846B0BDEA
:10174000F0B50168D0E9112314680E6803F01C039A
:1017500075070ED504259D4015EA040709D00B68CE
:101760009B0603D40B6823F004030B605560416BA8
:101770002EE0B50719D502259D4015EA040714D0BF
:101780000A68920605D40A6822F00A020A60012259
:10179000826200224262114A02F17C03994288BFB0
:1017A00002F580621560016B12E0350714D508253B
:1017B0009D402C4010D00C6824F00E040C600121D8
:1017C00001FA03F353600022016442628162816B7B
:1017D00011B1BDE8F0400847F0BD00BF0400024071
:1017E00000284AD0F8B504460220A06229492068A2
:1017F00001F1080204F108069042274A68CE38BF7A
:10180000A1F5806138BF02F5806202441427B2FB63
:10181000F7F29200C4E91112016847F6F0729143A1
:10182000016045EA0301626931431143A269114332
:10183000E2691143226A11430268114301602046A4
:10184000FFF76CFAA06804F14C03B0F5804F06BFB7
:101850000020606060680ECB00F07F05013803282F
:101860000D6053600BD82046FFF77EFA04F1580252
:1018700007CA002303604A6005E00120704700208A
:10188000C4E9160020660020012120646062A16284
:10189000F8BD00BF00040240F8FBFDBFB0B5044630
:1018A000406A012804BF0220B0BD01206062A06A26
:1018B000012812D10220A06200202064206805685F
:1018C00025F0010505602046FFF762FA2068626B8B
:1018D000016842B141F00E010BE0002060628020FF
:1018E00020640120B0BD21F004010160016841F0D5
:1018F0000A010160E16C0A68D20303D50A6842F468
:1019000080720A60A16D19B10A6842F480720A609F
:10191000016841F0010101600020B0BD81B000907C
:10192000009801B005F076B82DE9F84FDFF830A146
:101930000546DAF80000012804BF0220BDE8F88F50
:1019400000240120CAE900044FF47A708946FFF7A9
:101950007DFAE8BB2868434B1F4A04289B4609D1FF
:101960001968901C084318604FF47A70FFF76EFAFC
:101970005B4629E04FF0FF30C9F80000686817495E
:10198000C40088460646A9680844864211D21868F1
:10199000174600EA08002043104318604FF47A709D
:1019A000FFF754FA38B96868083401363A465B469E
:1019B000E9E7002002E05B46C9F80060196840F2E0
:1019C000FA3200249143196053F8141C53F8141C84
:1019D000CAF80040BDE8F88F0200010005FCFEFFD8
:1019E0002048016841F0004101600068C043C00F19
:1019F000704700BF2DE9F843194F044638680128A5
:101A000004BF0220BDE8F8834FF000090120C7E9B8
:101A100000094FF47A70984616460D46FFF716FAFD
:101A2000C8B91049012C0AD1086840F001000860CB
:101A30002E60BFF36F8FC5F804800D4604E0284682
:101A40000D463146FFF7EAF94FF47A70FFF7FEF9D9
:101A50002968A1432960C7F80090BDE8F88300BF5A
:101A6000201C0020144000580648C168B1F1FF3F17
:101A7000C4BF002070470449016004490160C06888
:101A8000C00F70470840005823016745AB89EFCD70
:101A90002DE9FC4F934A4FF0000890424FF00702A7
:101AA0004FF000054FF0000308BF022200920191A1
:101AB00031FA03F608BFBDE8FC8F012202FA03F6F3
:101AC00016EA010C56D008F00C09072202FA09F4B4
:101AD000864A4FEA930E52F82E70B0F1904F07EA03
:101AE000040A07D0824ADDF800B0904208BF4FF0E8
:101AF000010B01E04FF0000B0BFA09F7BA451AD1C0
:101B00007949D1F8807027EA0C07C1F88070D1F8C4
:101B1000847027EA0C07C1F884700F6827EA0C0765
:101B20000F604F6827EA0C074F60704951F82E701C
:101B3000A74341F82E70032101FA05F72C460568EA
:101B40000F213D43056008F01C0501FA05F56FF013
:101B5000030101EA53020244116AA9431162816838
:101B60002546B94381604168B1434160C168B943CA
:101B7000C160019908F104080235013398E700BFFC
:101B80002DE9F84F574A4FF0000890424FF00702F6
:101B900008BF02220092554A4FF0010B92464FF0C7
:101BA000000E00270A6832FA07F308BFBDE8F88F75
:101BB0000BFA07F312EA030900F08E804E68122E2A
:101BC00054D80BFA06F515F0061F4FD0032202FA7F
:101BD0000EF58468CA68AC4302FA0EF222438260B2
:101BE000C6F300124468BA4024EA03031A436FEABA
:101BF000050C7B004260C2688C6802EA0C029C40C3
:101C00002243C26046F01002122A11D16FF0030580
:101C100005EA5705054408F01C020F242E6A94407B
:101C200026EA04040E6906FA02F222432A624E688A
:101C3000026806F0030402EA0C0204FA03F31A43F2
:101C40000260F20048D5BB08544608F00C06072293
:101C50005AF82340B24024EA020CB0F1904F0CD065
:101C6000234A009D904208BF012507E0032202FAA3
:101C70000EF36FEA030C7346BDE7002505FA06F282
:101C800042EA0C024AF82320174A54461646D2F874
:101C900080204C6842EA0903E50358BF22EA0903A1
:101CA000C6F88030D6F88420A50342EA090358BF5D
:101CB00022EA0903C6F884303268E50242EA0903E1
:101CC00058BF22EA090333607268A40242EA09039A
:101CD00058BF22EA0903736008F104080EF1020EEE
:101CE00001375FE70008004800080058080001407D
:101CF000000400481823002A08BF2823C150704759
:101D000004F0BCBE0348044940680A6810440860F7
:101D1000704700BF04000020481D002080B503204C
:101D200000F05AF800F098FA404908600F2000F0DF
:101D300007F808B1012080BD00F004F8002080BD44
:101D4000002070477047000000280CD400F01F01ED
:101D5000012202FA01F1044A400942F82010BFF3BF
:101D60004F8FBFF36F8F704780E100E0002808D4E9
:101D700000F01F01012202FA01F1024A400942F873
:101D80002010704700E100E0B0B500F00F04184DDE
:101D9000043C2C440C340F4BB0F1FF3FC8BFC418B7
:101DA00028684FF0FF35C0F30220C31E80F0070003
:101DB00038BF0023042828BF042005FA00F021EAD8
:101DC000000005FA03F1984022EA010108430001EE
:101DD0002070B0BD00E400E005494FF6FF030A683B
:101DE0001A4060F30A22034810430860704700BF9E
:101DF0000CED00E00000FA0522483222016821F4CF
:101E000080410160094909685143094AB1FBF2F177
:101E10004A1E43698A4203D213F400711146F7D176
:101E200040690321800501EAE07070471800002036
:101E300040420F001348016841F48041016070473F
:101E4000104902230A68012863F302020A601E494E
:101E50000A6842F004020A600FBF30BF40BF20BFD3
:101E600020BF086820F0040008607047054800683B
:101E700000F4C060704700BF0248016841F48071FF
:101E8000016070470004005810B50C460D49096800
:101E900001F4007118B139B9FFF7CCFF04E019B1B2
:101EA000FFF7AAFF00B110BD0748012C016821F01F
:101EB0000401016004BF30BF10BD40BF20BF20BF80
:101EC00010BD00BF1404005810ED00E0F8B5044642
:101ED0008078644EC00742D0FFF7CEFFFFF710FFB7
:101EE0000546D6F8F403C00506D4FFF709FF401BEA
:101EF0000228F6D9032533E0606BD6F8841001F48C
:101F00004071814224D0D6F88410D6F8842042F45F
:101F10008032C6F88420D6F8842022F48032C6F8B5
:101F2000842021F4407289070146C6F884200FD529
:101F3000FFF7E6FE054641F28837D6F884008007B1
:101F400005D4FFF7DDFE401BB842F6D9D2E7616B3E
:101F5000D6F8840020F440700843C6F884000025B9
:101F60002068C10706D06168F26F22EA114289B287
:101F70001143F167810706D5A168F26F22EA114289
:101F800089B21143F167810605D52169F26F22F408
:101F900040621143F167810509D5216A4FF6FF724E
:101FA000F36F62EA01021A4042EA0141F16741051A
:101FB00009D5616A4FF6FF72F36F62EA01021A40B7
:101FC00042EA0141F167010509D5A16A4FF6FF72A6
:101FD000F36F62EA01021A4042EA0141F1674106E9
:101FE00003D5606901F0BCFD2068010603D5A06936
:101FF00001F0B6FD2068C10503D5E06901F0B0FD30
:102000002068C1060DD5E168F26FB1F5807F22F43A
:10201000407242EA0102F26703D1316841F08071F7
:10202000316001040BD5216BF26F22F0404242EA8D
:102030000102F26719B9316841F0807131604004E2
:102040000DD5E06AF16FB0F1005F21F0405141EA37
:102050000001F16703D1306840F4803030602846D9
:10206000F8BD00BF0C0000582DE9F843002800F02F
:102070009E80764F054638680C4600F0070088427F
:1020800012D2386820F0070020433860FFF738FE8E
:102090000646386800F00700A04205D0FFF730FE82
:1020A000801B0228F5D971E02868B9467E4F810768
:1020B00012D5A868396821F0F00108433860FFF7AD
:1020C0001FFE06463868C00305D4FFF719FE801BC3
:1020D0000228F7D95AE02868810615D56869D7F82B
:1020E000001121F0F0010843C7F80001FFF708FED6
:1020F0000646D7F80001800305D4FFF701FE801BD8
:102100000228F6D942E02868410616D5A869D7F812
:10211000001121F00F0141EA1010C7F80001FFF78C
:10212000EFFD0646D7F80001C00305D4FFF7E8FD30
:10213000801B0228F6D929E02868410712D5E868F3
:10214000396821F4E06108433860FFF7D9FD06469D
:102150003868800305D4FFF7D3FD801B0228F7D928
:1021600014E02868010715D52869396821F4605101
:1021700041EAC0003860FFF7C3FD064638684003F7
:1021800007D4FFF7BDFD801B0228F7D90320BDE867
:10219000F8832868C00728D068684FF0B04148B17C
:1021A00003284BD002284DD10968890305D40120AA
:1021B000BDE8F88309688907F9D5396821F003017A
:1021C00008433860FFF79CFD064641F2883868688E
:1021D000396801F00C01B1EB800F06D0FFF790FDDC
:1021E000811B03204145F2D91CE0D9F8000000F022
:1021F0000700A04218D9D9F8000020F007002043BA
:10220000C9F80000FFF77CFD05464846D9F80000F4
:1022100000F00700A04207D0FFF772FD411B03202A
:102220000229F2D9BDE8F88300F016F808490860E1
:1022300008480068BDE8F843FFF782BD09688901D6
:10224000B5D5BAE709684905B1D5B6E700400058E9
:10225000180000200400002080B500F029F8124981
:102260003C22096802EA9101024A5158B0FBF1F0A0
:1022700080BD00BF3C84000880B5FFF7EDFF0A4930
:102280000A4A0968C1F3022152F82110C84080BDF2
:1022900080B5FFF7E1FF0449044A0968C1F3C22190
:1022A00052F82110C84080BD080000587C84000806
:1022B00010B5364951F8042C086812F00C0205D00C
:1022C0000C2A17D100F00300012813D14FF0B040C1
:1022D000036800681B0700F0080004D4C8B14FF081
:1022E000B04000681CE0C8B14FF0B0400068C0F3D7
:1022F000031016E02648042A1CD0082A19D14FF0F2
:10230000B0421268D2025CBF44F60000C0F2E8108E
:1023100010E0D1F88800C0F3032002E0D1F8880073
:1023200000201C4B002A53F82030184618BF00200C
:1023300001E00020002351F8042C02F00C020C2ACA
:1023400022D1086800F003021148022A0CD0032AA7
:1023500009D14FF0B0421268D2025CBF44F60000CF
:10236000C0F2E81000E018460A680B680968C2F37A
:1023700006225043C3F3021201320124B0FBF2F0F3
:1023800004EB5171B0FBF1F010BD00BF0C00005820
:102390000024F400588500082DE9F84F002800F0CB
:1023A0008281DF4C8346606800F00C08A06800F072
:1023B00003099BF8000080062CD49BF80000C0079E
:1023C00000F0FB80B8F1080F57D0B8F10C0F08BF30
:1023D000B9F1030F51D04FF0B040DBE90161026861
:1023E000B6F5803F22F4801241EA0201016009D073
:1023F000B6F5041F40F0B8804FF0B0410A6842F4CF
:1024000000120A60016841F480310160FFF778FC36
:102410000546BBE0B8F1000F1CD0B8F10C0F08BFA7
:10242000B9F1010F16D04FF0B0463068DBF820103C
:10243000002974D040F001003060FFF761FC0546D0
:10244000306880077CD4FFF75BFC411B0320022926
:10245000F6D92BE24FF0B0410868800704D5DBF8CD
:102460002000002800F01F81DBF828000968090718
:102470000FD4D4F8901009090EE04FF0B040006876
:10248000800340F19A80DBF80400002840F095803A
:1024900009E14FF0B041096801F0F001884218D914
:1024A00001F01CFE002840F0FE804FF0B0400168B3
:1024B00041F008010160DBE90912036823F0F00331
:1024C0001A430260206820F47F4040EA0120206027
:1024D00017E04FF0B0410A6842F008020A600A684B
:1024E00022F0F00202430A60DBF82410226822F492
:1024F0007F4242EA0121216001F0F0FD002840F016
:10250000D280FFF7A9FEDFF8B01B0860DFF83804BF
:102510000068FFF715FC002840F0C8814DE720F067
:1025200001003060FFF7ECFB0546306880077FF55F
:1025300044AFFFF7E5FB411B03200229F5D9B5E1C4
:102540004FF0B040016841F008010160DBE9091279
:10255000036823F0F0031A430260206820F47F40F0
:1025600040EA0120206028E74FF0B04ADAF8000086
:1025700020F48030CAF80000DAF8000020F40010DF
:10258000CAF80000FFF7BCFB054696B14FF0B04615
:102590003068800311D4FFF7B3FB411B032064298B
:1025A000F6D983E1FFF7ACFB411B0320642900F25D
:1025B0007D81DAF800008003F4D49BF800008007E6
:1025C00031D5B8F1040F1DD0B8F10C0F08BFB9F127
:1025D000020F17D04FF0B0463068DBF8101000291A
:1025E00000F0FE8040F480703060FFF789FB054604
:1025F000306840050FD4FFF783FB411B03200229FD
:10260000F6D953E14FF0B0400068400503D5DBF840
:102610001000002847D0DBF81400216821F0FE41AB
:1026200041EA006020609BF80000000729D49BF875
:10263000000040073AD4DBF82C00002800F0358178
:10264000B8F10C0F40F0818001282CD0DBF830105D
:10265000A06800F003028A4225D1DBF8341000F0B4
:1026600070028A421FD1DBF8381000F4FE42B2EB50
:10267000012F18D1DBF8441000F06040884212D1DD
:1026800013E1D4F89010DBF8180000284AD0DBF8EA
:102690001C0001F01002904200F03F8101F00302A3
:1026A000022A40F085800120BDE8F88FD4F8FC03B1
:1026B000C0050FD4FFF7E0FBFFF722FB0546D4F877
:1026C000FC03C00506D4FFF71BFB411B03200229B6
:1026D000F5D9EBE0DBF80C00002800F092808528AB
:1026E00001D0052805D1D4F88C0040F00400C4F8CE
:1026F0008C00FFF705FB0546D4F88C0041F28836C4
:1027000040F00100C4F88C00D4F88C00800731D46C
:10271000FFF7F6FA411B0320B142F5D9C6E000BF2E
:102720000400005821F00100C4F89000FFF7E8FA17
:102730000546D4F8900080077FF579AFFFF7E0FAFF
:10274000411B03201129F4D9B0E04FF0B0463168A5
:10275000022821F0807131606DD1FFF7D1FA054672
:10276000306880017CD5FFF7CBFA411B03200A2992
:10277000F6D99BE0DBF80C0040F00400852840F01F
:102780009780FFF7BDFA0546D4F88C0041F28836F1
:1027900040F08000C4F88C00D4F88C0000053FF5B0
:1027A0004AAFFFF7ADFA411B0320B142F4D97DE0F7
:1027B000C90700F0AB80D4F8900020F00100C4F805
:1027C0009000FFF79DFA0546D4F89000800740F18D
:1027D0009B80FFF795FA411B03201129F4D965E08E
:1027E00020F480703060FFF78BFA054630684005B2
:1027F0007FF519AFFFF784FA411B03200229F5D9B1
:1028000054E0FFF77DFA0646D4F88C0041F288398F
:1028100020F08000C4F88C00D4F88C002746040512
:10282000FFF76EFA0546002C59D5A91B0320494530
:102830003C46F1D93AE0A068444920F00300A0608A
:10284000A0680840A060FFF75BFA0446306880018A
:102850002BD5FFF755FA011B03200A29F6D925E0ED
:10286000A0683B490BF130070840EECF0843104306
:1028700040EA0320284330433843A0604FF0B0457E
:10288000286840F080702860A06840F08050A06008
:10289000FFF736FA04462868800106D4FFF730FABD
:1028A000011B03200A29F6D900E00020BDE8F88FBB
:1028B000FFF726FA0546D4F88C0041F2883620F05E
:1028C0008000C4F88C00D4F88C0000057FF5B3AE0E
:1028D000FFF716FA411B0320B142F4D9E6E7D7F817
:1028E0008C003C4620F0010041F28836C7F88C008D
:1028F000D4F88C0080077FF59EAEFFF701FA411BEC
:102900000320B142F4D9D1E7DBF81C00D4F89010D1
:1029100021F010010843C4F89000D4F8900040F072
:102920000100C4F89000FFF7EBF90546D4F89000D9
:1029300080073FF57CAEFFF7E3F9401B1128F5D97E
:102940000320BDE8F88F00BF04000020FFFFFEEE6B
:102950008C80C1117047F8B504468068012801D108
:1029600002253FE00120A060E068012808D1022094
:10297000E06020680E464068400605D400250DE062
:102980000420012520612BE008202061204601F071
:10299000FDFB0546012801D1012523E0FFF7B0F931
:1029A000074620684168C9070BD1FFF7A9F9C01B8A
:1029B0000328F6D301250020E560A06002202061F5
:1029C00010E0816861614268520601D4316005E01F
:1029D00008212161416821F0010141600120E0608E
:1029E0000020A0602846F8BDB0B500284AD00446B3
:1029F000C06820B90020A060204600F04DF80220F9
:102A0000E060D4E90001026822F00402026002687A
:102A100022F02002114341F0804101601D49016113
:102A20004AF674210161016821F080410160FFF7DD
:102A300067F9054620680168490009D5FFF760F984
:102A4000401B0328F6D301200221E0602161B0BDC4
:102A5000016841F0040101604068400610D4FFF7AE
:102A60004FF905462068406840070DD5FFF748F943
:102A7000401B0328F6D30420E0600220206101E01F
:102A80000420E0600120B0BD0120E0600020206152
:102A9000B0BD00BFBC0A591770477047034850F8D3
:102AA00021007047014840F82120704700B10040E4
:102AB000C26A0221012A0FD00163D449CA22CA6026
:102AC0005322CA600A6842F020020A60FF22CA60EC
:102AD00000210122C16202630846704780B503F0FD
:102AE00069FF0130BDE8804003F070BF10B50446B7
:102AF00020480168490604D5402181602046FFF73F
:102B0000EDFF0120206310BDC26A0221012A14D00A
:102B10000163BE49CA22CA605322CA600A6842F0F1
:102B200080020A60BB4A136843F480231360FF22CB
:102B3000CA6000210122C16202630846704700BFDB
:102B400004F088BF70B50B4D04462868616B01EA3C
:102B50000006F00704D00120A8602046FFF7F0FF30
:102B6000B00704D50220A8602046FFF796FF012099
:102B7000206370BD5428004010B5C36A0222012BA7
:102B80002BD00263A14ACA23D3605323D3603423DA
:102B9000B1F5807F08BF2C239C58B1F5807F24F0CD
:102BA00000449C506FF4085308BF6FF488531468B6
:102BB000B1F5807F03EA040313604FF0FF03D36095
:102BC0004FF000026FF00203C26208BF6FF0010312
:102BD000416B1940416301210163104610BD00BFE4
:102BE00070B580B30446006B20B90020E062204637
:102BF00000F03EF80220934D2063CA20A8615320C4
:102C0000A861204601F01EFBD0B9E8681749261DCF
:102C10000840E8604ECEA06931430843E9680843A4
:102C2000E86043EA02406860D4E909012A6822F4B6
:102C3000F852104308432860204601F025FB20B1DC
:102C4000FF21A96170BD012070BD6069D4E9071240
:102C5000EB6823F060431A4311430843E860FF2008
:102C6000A86101202063002070BD00BFBFFF8FFB63
:102C700010B590B0044601A83821FDF7D6FA2068B7
:102C80001749884229D14FF480700E904FF480305C
:102C9000019001A8FFF71AF908B1FEF7BDF8114835
:102CA0000022816B41F400418163016841F480613D
:102CB00001600068002100F480600F900F980220EE
:102CC000FFF762F80220FFF751F82A2000210022C6
:102CD000FFF75AF82A20FFF749F810B010BD00BFDF
:102CE00000280040580000582DE9F84F0D46C16AF1
:102CF00004460220012900F0878020630120434F11
:102D0000E06257F80C0C00F4407ABAF5807F01D1EC
:102D1000002036E0386800F040001AB138B1E87899
:102D2000810506E088B1E8784FEA805911E000217A
:102D3000E9706B782A78AE781B0243EA024295F874
:102D40002400324442EA010615E04FF0000985F8FC
:102D500003902878DFF8B8B0D84780466878D8471D
:102D6000000240EA0846A878D847304440EA0906FD
:102D700095F82400D8472A6A6969324342EA00601C
:102D80000843CA21F9605321F9603968AA6AB2F58B
:102D9000807F0BD121F4885139600121BAF5807F01
:102DA00079640FD1D5E9060108430DE021F40851FB
:102DB00039600221BAF5807F79640CD1D5E906012A
:102DC00008430AE0B862A869F86268680121B8653A
:102DD0004FF4885007E03863A86978636868022177
:102DE000F8654FF408503A681043386009480268A3
:102DF00042F400320260FF20F8600020E062626B63
:102E00001143616301212163BDE8F88F1828004058
:102E10001D42000880080058B0B50A4D286860F0CF
:102E2000A0002860FEF76CFF04462868800607D4DF
:102E3000FEF766FF001BB0F57A7FF6D90320B0BD20
:102E40000020B0BD0C2800400248016841F002019A
:102E50000160704710E000E0012904D041B9F24858
:102E6000816880200847F34881684FF480700847E4
:102E7000704700BFEF488168402008472DE9F041C6
:102E80000446C068012802D1A068012802D10220AE
:102E9000BDE8F0810120A06020461D4616460F4681
:102EA00002F04EFAD8490868884620F400400860CD
:102EB000F9B2204602F014FA20460021002702F061
:102EC0000FFAAF4206D22046314602F0D9F9013757
:102ED0000136F6E7D8F8000040F40040C8F80000DA
:102EE000204602F049FA0020A06020690121E1603B
:102EF000002818BF0120BDE8F08100BF2DE9F04196
:102F00000446C068012802D1A068012802D102202D
:102F1000BDE8F0810120A06020461E4617460D4600
:102F200002F00EFA45F010009438B0FA80F0400933
:102F3000E04920710868884620F400400860E9B242
:102F4000204602F0CDF936B117F8011B204602F0F9
:102F5000C7F9013EF7E7D8F80000842D40F400409F
:102F6000C8F8000002D0204602F006FA0020A06057
:102F700020690121E160002818BF0120BDE8F0812F
:102F8000AC48816820200847AA488168102008477B
:102F90007CB504460020ADF806000DF1060220467F
:102FA00012210223FFF76AFF9DF807609DF8065083
:102FB000F00702D0204600F039F9B00702D52046CC
:102FC00000F024F9700702D5204600F091F8300790
:102FD00002D5204600F024F9F00602D52046FFF77E
:102FE000D3FFB00602D52046FFF7CAFF700602D510
:102FF0002046FFF73FFF300604D505F001012046CB
:10300000FFF72AFFA80702D5204600F003F90DF1CB
:103010000602204602210223FFF770FF7CBD00005C
:10302000BCB510B30446C06820B90020A06020469B
:1030300000F046F80220E0601D491E486423425813
:1030400022F4004242501C4A1268C2EBC202C2F390
:103050004C425A430192019A4AB1019A013A0192B3
:1030600042585204F7D4002503E001251DE0012554
:103070002561D0F8881041F40041C0F888100F494C
:103080000A6842F480520A60016841F400610160FC
:103090004FF40061016135B9206802F0DFF80020CB
:1030A0002061012020710120E0602846BCBD00BFE6
:1030B0008CFCFFFF080400581800002090080058FE
:1030C000E0B50A480022016841F001010160006892
:1030D000002100F00100019001983220FEF754FE1B
:1030E0003220BDE88C40FEF741BE00BF64000058AE
:1030F00050488168042008472DE9F8430446C06819
:10310000012802D1A068012802D10220BDE8F8837D
:103110000120A06020461D4616460F4602F010F919
:103120008649DFF81C820868894620F40040086060
:1031300020461E21C04720463946C0472046002170
:103140000027C047AF4206D22046314602F098F829
:1031500001370136F6E7D9F8000040F40040C9F81D
:103160000000204602F008F90020A060206901213B
:10317000E160002818BF0120BDE8F8832DE9F8437D
:103180000446C068012802D1A068012802D10220AB
:10319000BDE8F8830120A06020461D4616460F4674
:1031A00002F0CEF86549DFF898810868894620F476
:1031B0000040086020461D21C047390A2046C0470C
:1031C000F9B22046C047204600210027C047AF4241
:1031D00006D22046314602F053F801370136F6E7B1
:1031E000D9F8000040F40040C9F80000204602F081
:1031F000C3F80020A06020690121E160002818BF09
:103200000120BDE8F88300BF900400580948816898
:1032100002200847074881684FF40070084700BF44
:103220000448816808200847A800002001488168F8
:1032300001200847A80000202DE9F0410446C0689D
:10324000012802D1A068012802D10220BDE8F08146
:103250000120A06020461D4616460F4602F070F879
:1032600036490868884620F40040086020460E2150
:1032700002F036F82046394602F032F835B116F839
:10328000011B204602F02CF8013DF7E7D8F80000BA
:1032900040F40040C8F80000204602F06DF800201D
:1032A000A06020690121E160002818BF0120BDE86D
:1032B000F08100BF900400582DE9F8430446C0682F
:1032C00001281CBF0220BDE8F8830F46A168022038
:1032D000012931D0E0600120A06020461D4616463D
:1032E00002F02EF81549DFF858800868894620F466
:1032F0000040086020460D21C047390A2046C047DB
:10330000F9B22046C04735B116F8011B204601F03E
:10331000E7FF013DF7E7D9F8000040F40040C9F8A5
:103320000000204602F028F80020A060206901215A
:10333000E160002818BF0120BDE8F8839004005820
:10334000E15200080248016821F002010160704763
:1033500010E000E010B50446D0F88000012804BF5A
:10336000022010BD2420C4F884002068016802688F
:1033700041F0005122F0010202600122C4F88020D5
:103380004FF0005262660160204603F03FFD0020CE
:103390002021C4F88000C4F8841010BD0146D0F884
:1033A0008000012804BF022070470020C1F880007F
:1033B00009680A6842F002020A6070477047704765
:1033C000B0B50446D0F88000012804BF0220B0BD8B
:1033D0002420C4F8840020680568026822F00102F5
:1033E00002600122C4F88020826822F060621143EA
:1033F0008160204603F00AFD20682021056000203E
:10340000C4F88000C4F88410B0BDB0B50446D0F84C
:103410008000012804BF0220B0BD2420C4F884002D
:1034200020680568026822F0010202600122C4F8E7
:103430008020826822F0604211438160204603F0C0
:10344000E5FC2068202105600020C4F88000C4F855
:103450008410B0BDBCB50446D0F88000012804BF7C
:103460000220BCBD2420C4F884002068036823F037
:10347000010303604FF00103C4F88030836823F434
:10348000401343EA0103836059B9436891B223F0C2
:10349000100319434160C2F30741426861F31F62A0
:1034A0004260016841F001010160FEF729FC03461A
:1034B0006FF07E40009020464FF4800100220025EE
:1034C00004F0CCF808B1032003E02020C4F8840005
:1034D0000020C4F88050BCBD7047704770470000A2
:1034E000F8B501680446CA6940F62F0002EA0005F3
:1034F00008688B68202D0ED100F0200503F080565F
:10350000AD1900F08880216F002900F00D81204660
:10351000BDE8F840084740F60F052A427BD0934D9E
:1035200000EA0506924D1D40761974D0D60718BFE3
:1035300010F4807607D001260E62D4F88C6046F035
:103540000106C4F88C6003F00106970708D53EB168
:1035500002270F62D4F88C7047F00407C4F88C700F
:10356000570708D53EB104260E62D4F88C6046F0A9
:103570000206C4F88C6016070BD500F02006354310
:1035800007D008250D62D4F88C5045F00805C4F822
:103590008C5015050BD510F0806508D04FF40065F0
:1035A0000D62D4F88C5045F02005C4F88C50D4F846
:1035B0008C50002D00F0B88012F020021EBF00F0E9
:1035C000200003F0805210EB020040F0BC80D4F8E1
:1035D0008C00896800F0280001F04001401800F0DC
:1035E0009D80204603F006FD20688168490640F171
:1035F0009080816821F040018160E06F002800F038
:1036000088805C49C163FEF713F8002800F08C80C5
:10361000E06FC16B7CE700EA0205EE06E66E24D59A
:10362000012E22D110200862886840062AD4B4F8FE
:103630005E00B4F85C20B4F85E30002B74D0101A31
:10364000020471D00A684C4B22F490720A608A68B6
:103650001A408A602022C4F888200022E26622678D
:103660000A6822F010020A6037E0D6023BD513F454
:10367000800638D04FF4801008622046BDE8F8403C
:10368000FFF72BBFE06F03685D68AEB2002E4BD032
:10369000B4F85C20964247D2A4F85E501B689B06A3
:1036A00018D40A6822F480720A608A6822F0010243
:1036B0008A608A6822F040028A602022C4F888204A
:1036C0000022E2660A6822F010020A60FDF77BFF22
:1036D000B4F85C20B4F85E00101A81B22046BDE850
:1036E000F840FFF76BBE160607D500F0800603F41E
:1036F00000039B1901D0616F06E76B0615D4110218
:1037000029D510F0804126D02046BDE8F840FFF7CB
:10371000E3BE2046BDE8F840FFF7E0BE2046FFF7D5
:10372000DDFE0020C4F88C00F8BD086820F04000E1
:103730000860002060672020C4F884002046BDE8AF
:10374000F84000F0B1B9226F002A3FF440AF2046A4
:10375000904721683BE7D101E6D5B0F1FF3FE3DCBC
:103760002046BDE8F840FFF72ABE00BF2001000454
:10377000010000105F6F0008FEFFFFEF10B5B0B151
:103780000446D0F8840028B90020C4F88000204600
:1037900000F042F82420C4F884002068016821F079
:1037A00001010160204603F003FE012801D1012040
:1037B00010BDA06A10B1204603F04AFB20684168A2
:1037C00021F490414160816821F02A018160016803
:1037D00041F0010101602046BDE8104003F08DBBBF
:1037E00010B5044600683E49884218BF10BD09481C
:1037F000016821F0010101604FF090400C21FEF7BB
:1038000047F9A06FFDF758FF2620BDE81040FEF7EE
:103810009BBA00BF5C00005870B594B004460EA877
:103820001421FCF702FD68463821FCF7FEFC2068F5
:103830002B49884251D14FF44060049020200090E1
:103840006846FEF743FB08B1FDF7E6FAC3480025DA
:10385000016941F001010161016901F00101139168
:103860001399016841F00101016000680EA900F0A0
:10387000010013900820129003201190022010954F
:103880000F900C200E9013984FF09040FEF778F9AF
:103890001448154E802110221623C0E90063C0E9A8
:1038A0000225C0E90415C0E906550562FDF798FF39
:1038B00008B1FDF7B1FA0B4D10212846FDF7EBFEDC
:1038C00008B1FDF7A9FA262002210022EC62A567C3
:1038D000FEF75AFA2620FEF749FA14B070BD00BF71
:1038E00000800040B41A00205800024010B5D0F803
:1038F0008830202B06D1012429B122B1D0F88030A4
:10390000012B02D10224204610BD00240123C466ED
:10391000C0F8803003F03CFEF5E7000010B5044627
:103920000848436833B1D4F88C0018B90548012120
:1039300000229847034920460122BDE81040FFF7C6
:10394000D5BF00BF640000202DE9FC470446D0F835
:10395000840020280AD10D460120002959D016469E
:10396000002A56D0D4F88000012802D10220BDE8F8
:10397000FC874FF0000A0120C4F88CA0C4F8800036
:1039800021209946C4F88400FEF7BAF9A4F85660DD
:10399000A4F854608046A068B0F5805F06D127691E
:1039A0000026002F0CBF2E462F4601E02F46002692
:1039B000C4F880A0B4F85600D8B120468021002277
:1039C0004346CDF8009003F049FED8B927B117F867
:1039D000010B2168886206E036F8021B20686FF34D
:1039E0005F2181620027B4F856000138A4F8560020
:1039F000E0E72046402100224346CDF8009003F046
:103A00002DFE10B10320BDE8FC872020C4F88400FF
:103A10000020BDE8FC870000F8B50546D0F884001A
:103A2000202806D161B3134652B3D5F8800001288F
:103A300001D1022425E000240120A5F85630C5F864
:103A40008C40A5F854302965C5F880002120C5F8C0
:103A50008400A86FB8B1114A114E124FC0E90C761C
:103A6000C0E90E242A682832FDF718FF58B110204B
:103A7000C5F88C000020C5F880002020C5F884001F
:103A800001242046F8BD286840210162C5F8804025
:103A9000816841F080018160F3E700BF6F6F00082B
:103AA000ED6F0008C56F0008014801680020084755
:103AB000D81800207047FEE7E5480178012909D1B0
:103AC000E14900220A70E34901230A80DF490270BC
:103AD000C1E900324178012908D0C178012907D015
:103AE0004079012818BF7047FDF7A9FB00214170FC
:103AF000FDF7A5FB81B00B490A6802430A6009681B
:103B000008400090009801B0704700BF81B005499F
:103B10000A6802430A60096808400090009801B0F2
:103B2000704700BF4800005881B00C490A68024342
:103B30000A60096808400090009801B0704700BF13
:103B400081B00648016841F001010160006800F0A1
:103B500001000090009801B0704700BF4C00005871
:103B6000064A6FF47F21136861EA1011194000F4CE
:103B70007F4041EA00101060704700BF8800005885
:103B80006648FFF7ADBC00BF80B50420FFF7B2FF69
:103B90000120FFF7AFFF0F2002210022FEF7F4F80B
:103BA0000F20BDE88040FEF7E1B80000B0B53C4909
:103BB0000A6842F400020A603A49FCF748FB4FF0F9
:103BC0007A510446FCF743FB3749FCF7B0FBE0BBF6
:103BD00020464FF07851FCF73AFB3349FCF7A7FB3E
:103BE000B8BB20464FF07651FCF731FB2E49FCF76D
:103BF0009EFB90BB20464FF07451FCF728FB2A49EE
:103C0000FCF795FB68BB20464FF07251FCF71FFB99
:103C10002549FCF78CFB40BB20464FF07051FCF768
:103C200016FB2149FCF783FB18BB20464FF06E5171
:103C3000FCF70DFB1C49FCF788FB002807BF06209A
:103C40004FF087410021002016E000204FF0814115
:103C500012E001204FF082410EE002204FF083413C
:103C60000AE003204FF0844106E004204FF0854134
:103C700002E005204FF086410F4D45F255522A6073
:103C800068602046FCF715FBFCF772FB80B2A86069
:103C90004AF6AA2028604CF6CC402860B0BD00BF90
:103CA000940000580000FA4600007A4502484AF69F
:103CB000AA210160704700BF0030004010B51748CE
:103CC0004FF00051164C416600210C224FF4165360
:103CD000C0E908118162C0E90043C0E90211C0E9EE
:103CE00004128161FFF74AFD08B1FDF795F80B4812
:103CF0000021FFF78AFB08B1FDF78EF80748002185
:103D0000FFF75EFB08B1FDF787F80448FFF722FBD9
:103D100018B1BDE81040FDF77FB810BD181B00209A
:103D20000080004080B58CB001A82C21FCF77DFA02
:103D300017484FF4807100224FF08043C0E90422FD
:103D4000C0E90623C0E908211F21816011490160F3
:103D5000FEF746FF08B1FDF75FF80D48FEF7D4FE09
:103D600008B1FDF759F84FF480700B904FF00050F8
:103D700007900020069002900890054801A90122B2
:103D8000FEF7B2FF08B1FDF747F80CB080BD00BFE9
:103D9000C01B00200028004080B5054808210160B4
:103DA000FFF73EF918B1BDE88040FDF735B880BD9A
:103DB000FC1B002080B502F05DFDBDE8804002F0F4
:103DC0002DBC4FF0FF3003F089BDFEE710B5FFF7C3
:103DD0006DFF51480078012812D0E8B94F4C0020FF
:103DE00020606068022818D001281FD0A0B95F4861
:103DF00001785F4802F0A6FA01280DD101201DE0EC
:103E00005A4801785A4802F00BFB28B14348022176
:103E100001600F480121017110BD544801785448D8
:103E200002F078FA0128F7D1032007E04F48017823
:103E30004F4802F053FA0128EED102206060054895
:103E40000021018010BD00BFAC0300204C180020F1
:103E5000FC000020480800201CB5FFF727FF2E4873
:103E60000078012810D068BB2C4C6068032829D842
:103E7000DFE800F0022932385348C168446B294812
:103E800088474FF47A700DE0244C206870B1022806
:103E90000FD0012816D14C48C168446B214888478F
:103EA0004FF4FA602146BDE81C4008474FF47A7091
:103EB00001E04FF4FA60FDF731FD194802F038FBDC
:103EC000012020601CBD206840B96420FDF726FD5C
:103ED000134802F053FAF3E72068B0B1BDE81C4084
:103EE00002F090BC1048114900780A2401EB4011FF
:103EF0004B784A68D1E90601009401F05FFF4FF466
:103F00007A70BDE81C40FDF709BD6420FDF706FD91
:103F1000034802F05DFAD3E7AC0300204C18002000
:103F20004568000800A1BC33C80000204C080020F0
:103F300070470000F8B5074623481C46C06A15467E
:103F40000E46804709483946068009483246FCF744
:103F500053F90848002144700570082003F032FD31
:103F600020200021BDE8F84003F02CBD1400002003
:103F7000480300202000002080B51348C06A804715
:103F800020200021BDE8804003F01CBD80B50E4814
:103F9000C06A804720200021BDE8804003F012BDA8
:103FA00080B50948C06A804720200021BDE88040D4
:103FB00003F008BD80B50448C06A80472020002176
:103FC000BDE8804003F0FEBC98850008704780B5CE
:103FD000FFF7B8F900200121BDE88040FDF754BF8C
:103FE00080B5FFF7AFF90448012101600120BDE869
:103FF0008040FDF725BF00BF880400587047FEF7DA
:1040000023BF80B5FEF720FFBDE8804004F042B832
:1040100070470000032813D810B5044609A050F8D3
:1040200024204FF090400121FDF764FE09A050F8D4
:1040300024204FF090400221FDF75CFEBDE81040C7
:104040000020704700000000010000000000000098
:10405000000000000000000000000000010000005F
:1040600001000000022070470A20704770B586B03A
:1040700000244FF09040012105940125FDF708FD33
:104080004FF0904002210226FDF702FDFFF758FD98
:10409000FFF756FD0320CDE9034001AC4FF09040FF
:1040A0002146CDE90155FDF76BFD4FF090402146CB
:1040B0000196FDF765FD4FF0904002210022FDF7CB
:1040C00019FE4FF0904001210022FDF713FE002061
:1040D00006B070BD002070470120704770B53C21CC
:1040E00001EA90002149234A08582149096801F052
:1040F0000F0152F82110B0FBF1F01F49B0FBF1F4B1
:10410000FDF7B4FEB0F5007F09D11E490020032859
:104110000FD031F8102094420DD90130F7E717493C
:104120000020032805D031F81020944203D9013033
:10413000F7E7002502E0124951F82050124E30688E
:1041400020F0070028433060FDF7DAFD04463068B0
:1041500000F00700A84206D0FDF7D2FD001B03289F
:10416000F5D3032070BD002070BD00BF5885000846
:10417000080100583C84000840420F001A840008DF
:104180002084000814840008004000581CB5002159
:10419000019101684A68520709D44A6822F0400236
:1041A0004A600169002421F0080101612DE00A68DC
:1041B00042F080420A600A6822F080420A600222CD
:1041C0000192019A013A0192019AA2B10A68520041
:1041D000F7D44A68520603D54A6822F040024A6082
:1041E00002220192019A013A0192019A1AB14A6897
:1041F0005207F7D4D5E701240021C460816001692A
:1042000041F002010161FEF7A5FB20461CBD000044
:104210000148FEF797BC00BFC01B002001460928DB
:1042200028BF0921411A0931CAB20A23B2FBF3F2AD
:1042300002EB8203A1EB4303591A084440EA02103F
:10424000C0B27047F8B50F4F04463868400616D420
:104250003868002540F080003860FDF751FD0646C3
:104260003868032D0CD010F0400009D1FDF748FD4F
:10427000801BB0F57A7FF3D903252563F0E700258D
:104280002846F8BD0C280040B0B5114D044655F83D
:104290000C0C20F0800045F80C0C2868800607D430
:1042A000FEF7BAFD00280EBF002003202063B0BD3A
:1042B000286820F020002860FEF7AEFD00281ABF15
:1042C000032020630020296841F020012960B0BD4F
:1042D000182800400120704760B1074A0021B0292A
:1042E00007D0535808318342F9D9501810F8040CFC
:1042F0007047FEE71F207047A884000880B501F0D2
:10430000A7F8043803288EBF002002A151F820002E
:1043100080BD00BF0200000001000000000000009E
:104320000300000080B501F0E9F8033080BD000013
:104330007CB5D34ED349344601C41C480025C1E99D
:1043400002550D7101F03AF9002000F083FA01F0F6
:10435000FDFA0020002101F085F90120002104224E
:1043600001F01AFC4FF6FF704FF6FF710022002398
:1043700001F0B4F900F060FE0D4B20464FF0FF3124
:104380000022009503F032FB009506F12005094B51
:1043900028464FF0FF31002203F028FB204603F0AF
:1043A000EDFB2846BDE87C4003F0E8BB91450008E2
:1043B000AD4500089D450008BCB5B24CD4F890004E
:1043C000B0F5007F1AD0022828D0202859D04028E4
:1043D00065D080286FD0B0F5807F76D0012840F07E
:1043E0008D80A74C201D03F0C9FB002001F05AFB73
:1043F0002068002800F08280006859E001F028F869
:1044000004286DD1F44C201D03F0B8FB002001F00E
:1044100049FB2068002871D0406849E0EE4D05F165
:10442000200003F0ABFB207988B9002001F03AFBB3
:1044300040F60210002101F013FC40F6441001F098
:10444000F5F840F0020140F6441001F009FC2F4855
:104450000DF10701FF2201F039F804F1500000F0DE
:10446000FBFF2868002849D08568002D46D0206DC4
:104470009DF80710012842D194F95D3094F95C2031
:1044800041E0D54D05F1200003F078FB207910B90B
:10449000002001F007FB286880B3C06808E020799D
:1044A00010B9002001F0FEFACB48006830B3006973
:1044B00020B3804722E0002001F0F4FAC6480068EB
:1044C000E0B18169D1B1002008E0002001F0EAFAF2
:1044D000C148006890B1816981B101208847BCBDA5
:1044E00000F0B6FF052809D1BB4C04F1200003F011
:1044F00045FB002001F0D6FA2068CDE7BCBD94F959
:10450000583094F955200148A847BCBDA1050020AA
:104510002DE9F0418AB01C4615468846074600F052
:1045200094FD0020002600F06FF9384601F01EFAD5
:104530000120CDE908600320CDE90080002041463C
:104540004FF416720023CDE90266CDE90466CDE989
:10455000066600F09BF9002000F046F8FFF7E2FE47
:10456000FDF7DCF903F05CFA0646304603F062FA28
:10457000A04205D200F0F6FFA842F6DD002400E0DC
:10458000012400F062FD20460AB0BDE8F081000081
:10459000BD49C1F89000FFF70FBF00BF8E4800680B
:1045A00010B1C06800B10047704700BF8A4800687A
:1045B00010B1406800B10047704700BF80B50120CE
:1045C00000F022F9002000210022002301F086F8EB
:1045D000BDE8804000F094BF01F028B801F032B887
:1045E00080B500F0BFFF80BDB0B504464FF6FF7048
:1045F0004FF6FF710022002301F070F84CB17648AD
:10460000214600F12005284603F06AFA284603F007
:104610007FFA9D4C002194F8940001F065FA21790D
:104620006FF07F40E268002908BF9001BDE8B0400C
:1046300001F0CEB9B0B504464FF6FF704FF6FF71EA
:104640000022002301F04AF84CB16348214600F1F2
:104650002005284603F044FA284603F059FA8A4C0C
:10466000002194F8940001F03FFA21796FF07F4027
:10467000E268002908BF9001BDE8B04001F0BEB972
:104680006C000020B00600202DE9F04F89B08A466A
:10469000064640F2012040F201210022002301F0F1
:1046A0001DF8DFF8408B012198F8940001F01CFA06
:1046B000D8F80000032800F28180DFE800F002054E
:1046C0000A1688F82CA001E088F844A008F114002C
:1046D00005E00221404640F8141F80F824A001F0B4
:1046E000B3F830465146002266E0EB465846232197
:1046F000FBF79BFD0020514632465B4639B103F87B
:10470000010B17780139FF4302F8017BF6E74FEA06
:10471000CA07002007210022974216D0C2F3C7041F
:10472000345D21EA020324FA03F303F00103584045
:104730000132C3B221EA0204A340C2F3C7041BF84A
:1047400004502B430BF80430E6E7C10141EA801125
:10475000C0B2B0FA80F0400941EA40100BF80A00FC
:104760000220464646F8140F0AF10109304686F841
:10477000249001F069F8746EE74EF1200021B047F3
:10478000F0200021B047E121F320642C08BF702104
:10479000B0470421F220642C08BF1D21B0474FEA26
:1047A0005A11F420B047B81CC1B2F520B0475FFAE7
:1047B00089F158466FF07F4200F04AFF0648D8F86A
:1047C0000810041D204603F08BF9204603F0A0F9E1
:1047D00009B0BDE8F08F00BF6C00002001F0C6B842
:1047E000D64A012802D102F1440005E0906A01286E
:1047F00018BF704702F12C000170C448017002F12B
:10480000140001F021B800BFB0B5CC4C01282060E5
:104810000AD0032803D0042815D1002000E002208C
:10482000BDE8B04001F076B8012001F073F8207CBB
:10483000617C81420CD06074002818BF0120BDE863
:10484000B04000F007B80020002501F063F865745F
:10485000B0BD00BF10B50446B848447404740120CC
:10486000FFF7D2FF14214FF4E860002C18BF342169
:1048700001F0F6F92421002C18BF442140F24170C8
:10488000BDE8104001F0ECB9B00600202DE9F04F72
:1048900085B09246DDE911B20D46DFF848891799D7
:1048A000BBF1000F994F88F8041008BF4FF0FF329A
:1048B000DDF8409000290F9C3A7018BF4FF00009B6
:1048C00000286CD0012800F0BB80042840F01B8138
:1048D0000120BB4601F0FAF809204FF44871C8E9FD
:1048E0001AA1C8F8700000274646284646F8647F9B
:1048F000FFF7F2FC454645F8147F85F8600010206C
:10490000C5E904772873E000AF60A8800120C5E9FD
:1049100007079BF8000028760420FFF775FF304654
:1049200000F01AFF284600F08FFF42F2B270CDF877
:104930000E70ADF80C0003A8ADF8127001F0EAF8A3
:1049400040F2FF1001F06AF9724D40F6B800A84736
:10495000714C00F0EF0140F6B800A04740F6B900F6
:104960000421A04740F69B00A84700F0E30000F1B7
:10497000080140F69B00A04740F2D160A84740F0F4
:10498000180140F2D160A04740F2AC60A84700F0A7
:104990008F0000F1500140F2AC60A04749E00020D8
:1049A000002701F093F80B20C8F87000464628460F
:1049B000C8F868A046F8647FFFF78EFC454645F8C6
:1049C000147F85F860008BF00100C5E904701820A1
:1049D000287304201399A860E000A8800120002912
:1049E0004FF0010118BFF221C5E9071047480078D0
:1049F000287600F02AFB3068002818BF0120FFF756
:104A000003FF304600F0A8FE284600F01DFFC1203D
:104A1000CDF807708DF8060049F2C140ADF80400EA
:104A200001A88DF80B7001F075F840F2FF1001F04D
:104A3000F5F84FF4FA5009FB00F0B0FBFAF060E033
:104A400000201E4601F042F8314850F82500C8E920
:104A500020A04FF00100C8F88860C8F864005DB974
:104A6000AAF10B01012907D80120C8F8140088F821
:104A70008C001398169914E0C8F814008AF00C0002
:104A800085F001010843B0FA80F0400988F88C00F5
:104A9000AAF1050001281398169902D80C2C98BF8A
:104AA0000C24C8F840B0A8F83C40C8E91201387896
:104AB00088F8440000F0C9FA444654F8640F00280E
:104AC00018BF0120FFF7A0FE204600F045FEA4F12C
:104AD000500000F0B9FE5FFA89F000F01DFED8F832
:104AE0004C4040F2367000F0A1FD40F00401012C72
:104AF00008BF00F0FB0140F2367001F0B1F84FF64C
:104B0000FF70C8F80C0005B0BDE8F08F160000205B
:104B10009C8400082D560008615C0008B0B505466D
:104B2000D3480C4690F89400002100F0DDFF2846A1
:104B30002146BDE8B04000F07FBF00BFB0060020B6
:104B40002DE9FE430D46002A1146C94C1E4618BFEA
:104B500001210027002A2171CDE9007718BF3E46C8
:104B6000012812D0002840F0B680E86878B32869A0
:104B700068B3287E08282AD800216A46884229D0AE
:104B8000EB695B5C53540131F8E7B5F85000F0B1C4
:104B9000686D01280CBF2F6AFF27E86B002818BF3B
:104BA000012000F093FFF0B200F0B6FD0120606636
:104BB00005F14003E96C0DCB04F1800600290DC618
:104BC00051D0022951D0012957D1012053E04FF093
:104BD000FF3780E0E86A00280CBFD5F820904FF03E
:104BE000FF092868002818BF012000F06FFFD5E9F1
:104BF0000110EA680027A046A266216748F8647F92
:104C0000FFF76AFB44F8147F84F860006869A060CD
:104C1000A86A84F81890E96AC4E90401286BA96BB2
:104C2000C4E90701288AC000A080287EC000207344
:104C300000F00BFA0020FFF7E7FD404600F08CFD86
:104C4000204600F001FE684600F064FFA88C00F0EA
:104C5000E5FFA88E00F020FD4FF4FA50E96870439C
:104C6000B0FBF1F035E0002005E0A0F10B010020E1
:104C7000022938BF012084F88C00012044F8140F69
:104C8000B5F85000208584F83070686DD5E91712AA
:104C9000E062C4E90D1200F0D8F90120FFF7B4FD7D
:104CA00004F1500000F058FD204600F0CDFDA56B4A
:104CB00040F2367000F0BAFC40F00401012D08BF4C
:104CC00000F0FB0140F2367000F0CAFF4FF6FF70B3
:104CD000002744F8080C3846BDE8FE832DE9FE4F56
:104CE0000546149FDDF84090DDE90EA0DDF830B0F8
:104CF00088468DB1012D58D0032D40F09A800320B5
:104D0000FFF782FDCB48022140F8641F1621C0E95D
:104D100005B100F021FD8CE0C64E0B203067C6F8CF
:104D200068B04FF0000B37461846144647F864BF8A
:104D3000FFF7D2FA46F814BF86F86000012001217F
:104D4000B465B9F1000F18BFF221C6E907100F983A
:104D500080F00100C6E904B0182030730420B06070
:104D60004FEACA00B08000F070F93868002818BF18
:104D70000120FFF749FD384600F0EEFC304600F018
:104D800063FDC120CDF807B08DF8060049F2C1409F
:104D9000ADF80400149F01A88DF80BB000F0BAFE26
:104DA00040F2FF1000F03AFF43E0FB4CDDF84CC04E
:104DB0000D9AA04E54F8234001217166C6E920B433
:104DC000C6F8882043B9ABF10B02012A04D80121AF
:104DD000716186F88C1013E071618BF00C0183F027
:104DE00001021143B1FA81F1490986F88C10ABF147
:104DF0000501012904D8BAF10C0F98BF4FF00C0A35
:104E000030641C48A6F83CA00078C6E9129C86F8DD
:104E1000440000F01AF956F8640F002818BF01206A
:104E2000FFF7F2FC304600F097FCA6F1500000F0CE
:104E30000BFDEC4C85F00100D4F8841081F00601E4
:104E400040EA010540F6890000F0F0FB40F0040163
:104E5000002D08BF00F0FB0140F6890000F000FFC4
:104E6000404600F0A1FD84F89400A760BDE8FE8FE5
:104E7000B006002016000020B0B514460D4600F024
:104E800075FD284600F090FD012100F02DFE4FF445
:104E90007A70444300F072FE05482146051D2846FD
:104EA00002F01EFE2846BDE8B04002F031BE00BF51
:104EB0006C0000202DE9FE4F9A4615460E46002153
:104EC0000228CDE9001116D001281DD0002870D18C
:104ED000B068A8B1D6F81090B9F1000F10D0347DA9
:104EE000082C0DD800216A468C426DD0B3695B5CFA
:104EF00053540131F8E7B0680138C0087C2814D950
:104F00004FF0FF30BDE8FE8FB64F0120786606F106
:104F10003003F06B0ECB07F180040EC498B1022869
:104F200013D0012819D1012115E002200224FFF736
:104F30006BFCAC48162140F8644F8161316D4161D2
:104F400000F00AFC35E0002105E0A1F10B02002190
:104F5000022A38BF012187F88C10012147F8141F5D
:104F6000002818BF012087F87800B6F8400006F145
:104F70004402388507CAF862C7E90D1200F065F8E7
:104F80000120FFF741FC07F1500000F0E5FB384637
:104F900000F05AFC3C6F40F6890000F047FB062CFD
:104FA0000CBF00F0FB0140F0040140F6890000F066
:104FB00057FE284600F0F8FC8A4981F8940000204A
:104FC000C1F808A0BDE8FE8F864F4FF0000BB86611
:104FD000D6E90010B846396748F864BFFFF77CF996
:104FE00047F814BF87F86000F068D6E90812F36A42
:104FF000B865E00038730420B8604FEAC900B88093
:10500000C7E904B1C7E9072300F01FF80020FFF744
:10501000FBFB404600F0A0FB384600F015FC68465C
:1050200000F078FDB08B00F0F9FD308D00F034FB1E
:10503000BFE700BFB006002080B5042000F01AFDD5
:105040000220BDE88040FCF769BC002000F02ABDCA
:1050500080B54FF4C0704FF4C0710022002300F0FF
:105060003DFBBDE8804000F00BBB00002DE9F041A6
:105070000DF1180CDDF824809CE860100024012854
:1050800013D0002868D10CEB0500B8F1000F4FF0E9
:10509000200118BF0230002E18BF182101EBC000FC
:1050A0004FF47A7100FB01F457E00C2D4FF0000033
:1050B000A2F1050738BF0120022F38BF012419B91A
:1050C000A2F10B07022F05D34FF0000E012908BFF4
:1050D0000C2A01D14FF0010E0440181D1423002E9C
:1050E00018BF0023A3EB8203B8F1000F18BF1033E1
:1050F00003EBCC069300072A04D30836BEF1000F59
:1051000018BF083B0C27072A38BF0E27002C18BFF2
:105110000C25EC191D46002EC8BF3544013D95FBFA
:10512000F3F3023A03FB00408000013090404FF45B
:105130007A7200FB02F41848002250F821000A2875
:105140000BD8DFE800F006101316191B1D0A1F22EA
:10515000250041F6846200E00122A0180138B0FB6E
:10516000F2F0BDE8F08143F60952F6E747F6122265
:10517000F3E74FF22442F0E70A4AEEE7084AECE789
:10518000064AEAE742F6B102E7E745F26112E4E7D0
:105190004AF2C322E1E700BF9C84000820A1070077
:1051A00090D0030048E8010080B500F0FDFB01212C
:1051B00000F09AFCBDE8804000F0E0BC80B50948F2
:1051C000012190F8940000F08FFC4FF4D7602D215E
:1051D00000F046FD00F0D8FC0348BDE8804000F038
:1051E000B7BC00BFB0060020FFFF0F0000F038BDC5
:1051F00000F042BD10B50446FEF76CFF012818BF51
:1052000010BD40F6231000F011FA00F0F90040EA5A
:10521000040140F62310BDE8104000F021BD00005D
:105220000021B0F5803F38BF01214FEA011138BF9E
:105230000004B0F1807F3CBF08310002B0F1805F14
:1052400038BF043138BF0001034A000F105C81F001
:105250001F01081AC0B27047A4860008074940F42D
:1052600041700A6822F040020A6008604FF4B850AA
:105270004860086840F0400008607047000001582E
:10528000B8B54C4C64232268C2EBC202C2F34C4254
:105290005A432A4B0092009A3AB1009A013A00927E
:1052A0001A689207F7D5002201E001220261FF256A
:1052B0001D7124686425C4EBC404C4F34C446C43DE
:1052C0000094009C34B1009C013C00941C68E407ED
:1052D000F7D001E001220261586808701046B8BD9D
:1052E00018B5344C64232268C2EBC202C2F34C42AC
:1052F0005A43124B0092009A3AB1009A013A009236
:105300001A689207F7D5002201E0012202611971A3
:1053100021686424C1EBC101C1F34C416143009198
:10532000009931B10099013900911968C907F7D086
:1053300001E0012202615868104618BD08000158BA
:10534000B0B50446007901280BD1084D286820F437
:10535000004028600120FCF7E1FA286840F4004092
:1053600028602046BDE8B04000F006B89004005820
:10537000E848FDF70DBE00BF81B00E496422096800
:1053800001EB4101C1F34B41514300910A490A68C5
:10539000009B53B1009B9208013B00930B6802EA0B
:1053A0005302D207F3D1002002E002210161012063
:1053B00001B070471800002014040058E0B500F058
:1053C0007F008DF80700E3480DF1070289210123D2
:1053D000FDF794FD8CBD00BFE0B51849884204D3A9
:1053E000E1208DF80600E9201EE01549884204D32B
:1053F000D7208DF80600DB2016E01249884204D33E
:10540000C1208DF80600C5200EE00F49884204D364
:1054100075208DF80600812006E00C49884205D3EE
:105420006B208DF806006F208DF80700C9480DF13C
:10543000060298210223FDF761FD8CBD01E9A43528
:1054400081F8A9328144E52D010B6B1B41FC5419F5
:10545000A148C068704700BF1CB50446BD480DF1A7
:10546000050214210323FDF709FDED480169012917
:10547000216010D009BB9DF805009DF806109DF82D
:10548000072020710020A06048424008A0715042CF
:10549000400860711CBD406820619DF805009DF8C2
:1054A00007104042400820739DF906000230800832
:1054B000607348424008A0731CBD2046002114229E
:1054C00002F0F0F90F2020601CBD00BF7CB50E4635
:1054D000044600208DF807000DF1070130461546FF
:1054E00000F04EF83278AA4284BF01207CBD9DF8BE
:1054F0000700214600F094F800207CBDFEF7B4BD03
:105500007CB50020019040F6E20000F08FF8144EC8
:10551000044600F0FE0140F6E200B04740F6E50028
:1055200000F084F8054600F07F0140F6E500B04742
:105530006FF07F4000F04CFA01A940F619000422F8
:1055400000F080F8002000F0ADFA40F6E2002146BD
:10555000B04740F6E5002946B04701987CBD00BF42
:10556000615C0008E0B5EA480DF10702152101234E
:10557000FDF784FC9DF80700404240108CBD00BF41
:10558000BCB50546ED480C460DF106021321022379
:10559000FDF774FCE8480169012907D14069012839
:1055A00004D140F2027000F041F801E09DF80600DD
:1055B00028709DF807002070BCBD00BF10B508B171
:1055C000DD4988600220FFF715FEFEF7E5FBDA4CA7
:1055D00000202070002000F065FAFEF77DFD012814
:1055E0000ED1FEF741FD8101062000F09DFA40F644
:1055F0001110002100F034FB7F20FFF7DFFE09E0EF
:1056000040F61110202100F02BFB40F61210202153
:1056100000F026FBFEF72AFD0120E06010BD00BF70
:1056200013460A460146DF48FDF766BDE0B5014670
:10563000F1480DF107020123FDF7A0FD9DF80700D9
:105640008CBD00BF13460A460146EB48FDF796BDE8
:1056500010B5144600F074F92046BDE8104000F083
:1056600077BA0000E0B58DF807108DF80600F14814
:105670000DF106028F210223FDF740FC8CBD00BF17
:1056800080B5EC48C52100220023FDF737FCE8482F
:105690000721C16080BD00BFE0B540BAADF806008B
:1056A000F348006900B18CBD0DF1060140F2BE6007
:1056B000022200F0E1FA8CBDE0B540BAADF8060078
:1056C000EB48006900B18CBD0DF1060140F2BC60F1
:1056D000022200F0D1FA8CBDA8000020E0B58DF8C0
:1056E00007301B0A8DF806308DF80520120A8DF858
:1056F00004208DF80310090A8DF802108DF80100BE
:10570000000A8DF80000EF486A4608210823FDF7DB
:10571000F5FB8CBDFC1B0020E0B58DF80700F148BF
:105720000DF10702A0210123FDF7E8FB9DF807001A
:1057300040280ED341080020CAB2202A02D30130EB
:105740009108F9E700EBC100C1B240F2067000F029
:1057500087FA8CBDFC1B00201CB504460020DA49EA
:10576000CDE9000020680969814202D000F0D2F83A
:105770002168032952D8DFE801F002243339221DC1
:1057800007CA8DF80320227C00238DF80420254AC7
:10579000B2FBF0F0020A8DF802008DF80120000C37
:1057A0007F4A8DF800004806C909FAF7E1FC8DF838
:1057B0000700010A000C8DF806108DF8050008237B
:1057C00027E004F11C0207CA04238DF800008DF8BD
:1057D00001108DF8022094F828008DF8030018E0DD
:1057E000D4E9050104238DF8031007E0E16860683F
:1057F0008DF80310217C05238DF804100949B1FBB5
:10580000F0F08DF80200010A000C8DF801108DF8FF
:105810000000E0486A468B21FDF770FB1CBD00BF0D
:10582000A80000200000093DE0B58DF807308DF894
:1058300006208DF805108DF80400D64801AA9521A0
:105840000423FDF75BFB8CBDBFB504460020CA4DA9
:105850008DF80C00CDE9010020682969814202D051
:1058600000F058F82168032951D8DFE801F002114F
:105870002202E069F22822D0F12829D14FF6FF70E8
:10588000FFF71AFF48F20500FFF706FF02201FE0AE
:10589000E06A062368618DF8060094F830008DF800
:1058A0000700D4E90D018DF808008DF80910208D4E
:1058B00024E094F8240001238DF8040022E041F64E
:1058C0000F50FFF7F9FE41F22100FFF7E5FE062039
:1058D0008DF80B00A06809238DF80600207B8DF859
:1058E0000700D4E904018DF808008DF80910207E26
:1058F0008DF80A00206A8DF80C00A08800BA000C10
:10590000ADF80400DF4801AA8C21FDF7F7FABFBD0E
:10591000FC1B0020E0B5CE490861019020B940F29F
:10592000AC60002100F09CF9D64801AA8A2101232D
:10593000FDF7E4FA8CBD00BFA8000020FC1B00208E
:105940000A460146002000F085B90000E0B5FEF7E8
:10595000C1FB0138B0FA80F040090190C94801AAA2
:1059600096210123FDF7CAFA8CBD00BFBCB5B84D26
:105970000446287820B92046FFF72EFD0120287024
:10598000074A6006E1090023FAF7F2FB00BA01902A
:10599000BC4801AA86210423FDF7B0FABCBD00BFB4
:1059A0000048E801FC1B0020B0B50446FEF75AFB96
:1059B000022805D0012520B90F2CC8BF022500E020
:1059C000022528462146022200F0E6F82846B0BD0E
:1059D000E0B59F490522CA608DF80700010A000C56
:1059E0008DF806108DF80500A6480DF105028221FC
:1059F0000323FDF783FA8CBDFC1B00201CB5044675
:105A000093480521C16040F6AC00972100F028F9C9
:105A1000200A8DF807408DF80600200C8DF805004F
:105A200098480DF1050282210323FDF767FA1CBD9A
:105A3000A8000020FC1B00201CB58DF807100A0AE6
:105A4000090C8DF806208DF805108DF80400010A68
:105A5000000C8DF803108DF802008A480DF1020247
:105A6000942106230624FDF749FA7948C4601CBD39
:105A7000A8000020BCB5044600200025FEF7CAFAA5
:105A80000220FFF7B7FB04F007008DF807007D4800
:105A90000DF1070284210123FDF730FA6C48C5603F
:105AA000BCBD00BFE0B50190764801AA802101236A
:105AB000FDF724FA019902200029654908BF012059
:105AC000C8608CBDFC1B0020A8000020E0B58DF84C
:105AD00007006C480DF107029F210123FDF70EFA24
